{
  "contractName": "Crowdsale",
  "abi": [
    {
      "constant": true,
      "inputs": [
        {
          "name": "",
          "type": "address"
        }
      ],
      "name": "owners",
      "outputs": [
        {
          "name": "",
          "type": "bool"
        }
      ],
      "payable": false,
      "stateMutability": "view",
      "type": "function"
    },
    {
      "constant": true,
      "inputs": [],
      "name": "multisigContract",
      "outputs": [
        {
          "name": "",
          "type": "address"
        }
      ],
      "payable": false,
      "stateMutability": "view",
      "type": "function"
    },
    {
      "constant": true,
      "inputs": [
        {
          "name": "",
          "type": "address"
        }
      ],
      "name": "balanceOfTokenBonus",
      "outputs": [
        {
          "name": "",
          "type": "uint256"
        }
      ],
      "payable": false,
      "stateMutability": "view",
      "type": "function"
    },
    {
      "constant": true,
      "inputs": [
        {
          "name": "",
          "type": "address"
        }
      ],
      "name": "balanceOfTokenBuyed",
      "outputs": [
        {
          "name": "",
          "type": "uint256"
        }
      ],
      "payable": false,
      "stateMutability": "view",
      "type": "function"
    },
    {
      "constant": true,
      "inputs": [],
      "name": "deadline",
      "outputs": [
        {
          "name": "",
          "type": "uint256"
        }
      ],
      "payable": false,
      "stateMutability": "view",
      "type": "function"
    },
    {
      "constant": true,
      "inputs": [],
      "name": "amountTokensForOwners",
      "outputs": [
        {
          "name": "",
          "type": "uint256"
        }
      ],
      "payable": false,
      "stateMutability": "view",
      "type": "function"
    },
    {
      "constant": true,
      "inputs": [],
      "name": "limitOfFirstBuyers",
      "outputs": [
        {
          "name": "",
          "type": "uint256"
        }
      ],
      "payable": false,
      "stateMutability": "view",
      "type": "function"
    },
    {
      "constant": true,
      "inputs": [],
      "name": "multisigContractAddress",
      "outputs": [
        {
          "name": "",
          "type": "address"
        }
      ],
      "payable": false,
      "stateMutability": "view",
      "type": "function"
    },
    {
      "constant": true,
      "inputs": [],
      "name": "tokenReward",
      "outputs": [
        {
          "name": "",
          "type": "address"
        }
      ],
      "payable": false,
      "stateMutability": "view",
      "type": "function"
    },
    {
      "constant": true,
      "inputs": [
        {
          "name": "",
          "type": "address"
        }
      ],
      "name": "balanceOf",
      "outputs": [
        {
          "name": "",
          "type": "uint256"
        }
      ],
      "payable": false,
      "stateMutability": "view",
      "type": "function"
    },
    {
      "constant": true,
      "inputs": [],
      "name": "startICO",
      "outputs": [
        {
          "name": "",
          "type": "uint256"
        }
      ],
      "payable": false,
      "stateMutability": "view",
      "type": "function"
    },
    {
      "constant": true,
      "inputs": [],
      "name": "owner",
      "outputs": [
        {
          "name": "",
          "type": "address"
        }
      ],
      "payable": false,
      "stateMutability": "view",
      "type": "function"
    },
    {
      "constant": true,
      "inputs": [],
      "name": "countOfFirstBuyers",
      "outputs": [
        {
          "name": "",
          "type": "uint256"
        }
      ],
      "payable": false,
      "stateMutability": "view",
      "type": "function"
    },
    {
      "constant": true,
      "inputs": [],
      "name": "amountTokensForSale",
      "outputs": [
        {
          "name": "",
          "type": "uint256"
        }
      ],
      "payable": false,
      "stateMutability": "view",
      "type": "function"
    },
    {
      "constant": true,
      "inputs": [],
      "name": "price",
      "outputs": [
        {
          "name": "",
          "type": "uint256"
        }
      ],
      "payable": false,
      "stateMutability": "view",
      "type": "function"
    },
    {
      "constant": true,
      "inputs": [],
      "name": "amountOfSoldTokens",
      "outputs": [
        {
          "name": "",
          "type": "uint256"
        }
      ],
      "payable": false,
      "stateMutability": "view",
      "type": "function"
    },
    {
      "constant": true,
      "inputs": [
        {
          "name": "",
          "type": "address"
        }
      ],
      "name": "balanceOfBonusFirstBuyers",
      "outputs": [
        {
          "name": "",
          "type": "uint256"
        }
      ],
      "payable": false,
      "stateMutability": "view",
      "type": "function"
    },
    {
      "constant": true,
      "inputs": [],
      "name": "startICOPlus2Days",
      "outputs": [
        {
          "name": "",
          "type": "uint256"
        }
      ],
      "payable": false,
      "stateMutability": "view",
      "type": "function"
    },
    {
      "constant": true,
      "inputs": [
        {
          "name": "",
          "type": "address"
        }
      ],
      "name": "ownerGetTokens",
      "outputs": [
        {
          "name": "",
          "type": "bool"
        }
      ],
      "payable": false,
      "stateMutability": "view",
      "type": "function"
    },
    {
      "inputs": [],
      "payable": false,
      "stateMutability": "nonpayable",
      "type": "constructor"
    },
    {
      "payable": true,
      "stateMutability": "payable",
      "type": "fallback"
    },
    {
      "anonymous": false,
      "inputs": [
        {
          "indexed": false,
          "name": "backer",
          "type": "address"
        },
        {
          "indexed": false,
          "name": "amount",
          "type": "uint256"
        },
        {
          "indexed": false,
          "name": "isContribution",
          "type": "bool"
        }
      ],
      "name": "FundTransfer",
      "type": "event"
    },
    {
      "constant": false,
      "inputs": [
        {
          "name": "_addressOfTokenUsedAsReward",
          "type": "address"
        }
      ],
      "name": "setTokenUsedAsReward",
      "outputs": [],
      "payable": false,
      "stateMutability": "nonpayable",
      "type": "function"
    },
    {
      "constant": false,
      "inputs": [
        {
          "name": "_multisigAddress",
          "type": "address"
        }
      ],
      "name": "setMultisig",
      "outputs": [],
      "payable": false,
      "stateMutability": "nonpayable",
      "type": "function"
    },
    {
      "constant": false,
      "inputs": [],
      "name": "init",
      "outputs": [],
      "payable": false,
      "stateMutability": "nonpayable",
      "type": "function"
    },
    {
      "constant": false,
      "inputs": [],
      "name": "distributeTokensAmongOwners",
      "outputs": [],
      "payable": false,
      "stateMutability": "nonpayable",
      "type": "function"
    },
    {
      "constant": true,
      "inputs": [],
      "name": "isIcoEnd",
      "outputs": [
        {
          "name": "",
          "type": "bool"
        }
      ],
      "payable": false,
      "stateMutability": "view",
      "type": "function"
    },
    {
      "constant": true,
      "inputs": [],
      "name": "isIcoFail",
      "outputs": [
        {
          "name": "",
          "type": "bool"
        }
      ],
      "payable": false,
      "stateMutability": "view",
      "type": "function"
    },
    {
      "constant": false,
      "inputs": [
        {
          "name": "_wei_amount",
          "type": "uint256"
        },
        {
          "name": "_pre_calc",
          "type": "bool"
        }
      ],
      "name": "calcTokenAmount",
      "outputs": [
        {
          "name": "_token_count",
          "type": "uint256"
        },
        {
          "name": "_wei_change",
          "type": "uint256"
        }
      ],
      "payable": false,
      "stateMutability": "nonpayable",
      "type": "function"
    },
    {
      "constant": false,
      "inputs": [
        {
          "name": "fixTotal",
          "type": "uint256"
        },
        {
          "name": "bonus",
          "type": "uint256"
        },
        {
          "name": "buyed",
          "type": "uint256"
        }
      ],
      "name": "fixBonus2",
      "outputs": [
        {
          "name": "bonusFixed",
          "type": "uint256"
        },
        {
          "name": "buyedFixed",
          "type": "uint256"
        }
      ],
      "payable": false,
      "stateMutability": "nonpayable",
      "type": "function"
    },
    {
      "constant": false,
      "inputs": [],
      "name": "invest",
      "outputs": [],
      "payable": true,
      "stateMutability": "payable",
      "type": "function"
    },
    {
      "constant": false,
      "inputs": [],
      "name": "refund",
      "outputs": [],
      "payable": false,
      "stateMutability": "nonpayable",
      "type": "function"
    }
  ],
  "bytecode": "0x608060405234801561001057600080fd5b5033600160006101000a81548173ffffffffffffffffffffffffffffffffffffffff021916908373ffffffffffffffffffffffffffffffffffffffff16021790555060016011600073896ab7b50d7bce2961072fef0a7225376e88ba7e73ffffffffffffffffffffffffffffffffffffffff16815260200190815260200160002060006101000a81548160ff021916908315150217905550600160116000732dbc56b412ef3f70bee2ef3662e850f49c83105273ffffffffffffffffffffffffffffffffffffffff16815260200190815260200160002060006101000a81548160ff02191690831515021790555060016011600073f7a67efba2a97f86228a7e36b996b34e0a41776373ffffffffffffffffffffffffffffffffffffffff16815260200190815260200160002060006101000a81548160ff0219169083151502179055506001601160007394bb857c3a550130120b5bfc1b7de3d47810470573ffffffffffffffffffffffffffffffffffffffff16815260200190815260200160002060006101000a81548160ff0219169083151502179055506001601160007344f8fb0c0425471e23cdcc819827aa32cab607a973ffffffffffffffffffffffffffffffffffffffff16815260200190815260200160002060006101000a81548160ff02191690831515021790555061203c8061020f6000396000f300608060405260043610610175576000357c0100000000000000000000000000000000000000000000000000000000900463ffffffff168063022914a71461017f57806304d5232b146101da5780630f8a2fa9146102315780631d9baed31461028857806325bbc352146102df57806329dcb0cf1461032257806330988bcb1461034d578063433357af146103785780634acb7b52146103a7578063590e1ae3146103d257806364b054ec146103e95780636e66f6e91461044057806370a08231146104975780637fa8c158146104ee57806386f0103f146105195780638da5cb5b1461056d5780638ee155a7146105c45780638f11a560146105ef5780639835c6381461061a578063a035b1fe14610649578063a6e5178a14610674578063b89660351461069f578063c27fd4c8146106f6578063c530e17414610752578063d308b0e314610769578063e1c7392a14610794578063e8b5e51f146107ab578063f3283fba146107b5578063f93f889c146107f8575b61017d610853565b005b34801561018b57600080fd5b506101c0600480360381019080803573ffffffffffffffffffffffffffffffffffffffff169060200190929190505050610b1f565b604051808215151515815260200191505060405180910390f35b3480156101e657600080fd5b506101ef610b3f565b604051808273ffffffffffffffffffffffffffffffffffffffff1673ffffffffffffffffffffffffffffffffffffffff16815260200191505060405180910390f35b34801561023d57600080fd5b50610272600480360381019080803573ffffffffffffffffffffffffffffffffffffffff169060200190929190505050610b65565b6040518082815260200191505060405180910390f35b34801561029457600080fd5b506102c9600480360381019080803573ffffffffffffffffffffffffffffffffffffffff169060200190929190505050610b7d565b6040518082815260200191505060405180910390f35b3480156102eb57600080fd5b50610320600480360381019080803573ffffffffffffffffffffffffffffffffffffffff169060200190929190505050610b95565b005b34801561032e57600080fd5b50610337610d8a565b6040518082815260200191505060405180910390f35b34801561035957600080fd5b50610362610d90565b6040518082815260200191505060405180910390f35b34801561038457600080fd5b5061038d610d96565b604051808215151515815260200191505060405180910390f35b3480156103b357600080fd5b506103bc610db4565b6040518082815260200191505060405180910390f35b3480156103de57600080fd5b506103e7610dba565b005b3480156103f557600080fd5b506103fe610fae565b604051808273ffffffffffffffffffffffffffffffffffffffff1673ffffffffffffffffffffffffffffffffffffffff16815260200191505060405180910390f35b34801561044c57600080fd5b50610455610fd3565b604051808273ffffffffffffffffffffffffffffffffffffffff1673ffffffffffffffffffffffffffffffffffffffff16815260200191505060405180910390f35b3480156104a357600080fd5b506104d8600480360381019080803573ffffffffffffffffffffffffffffffffffffffff169060200190929190505050610ff9565b6040518082815260200191505060405180910390f35b3480156104fa57600080fd5b50610503611011565b6040518082815260200191505060405180910390f35b34801561052557600080fd5b5061055060048036038101908080359060200190929190803515159060200190929190505050611017565b604051808381526020018281526020019250505060405180910390f35b34801561057957600080fd5b5061058261130a565b604051808273ffffffffffffffffffffffffffffffffffffffff1673ffffffffffffffffffffffffffffffffffffffff16815260200191505060405180910390f35b3480156105d057600080fd5b506105d9611330565b6040518082815260200191505060405180910390f35b3480156105fb57600080fd5b50610604611336565b6040518082815260200191505060405180910390f35b34801561062657600080fd5b5061062f61133c565b604051808215151515815260200191505060405180910390f35b34801561065557600080fd5b5061065e611357565b6040518082815260200191505060405180910390f35b34801561068057600080fd5b5061068961135d565b6040518082815260200191505060405180910390f35b3480156106ab57600080fd5b506106e0600480360381019080803573ffffffffffffffffffffffffffffffffffffffff169060200190929190505050611363565b6040518082815260200191505060405180910390f35b34801561070257600080fd5b5061073560048036038101908080359060200190929190803590602001909291908035906020019092919050505061137b565b604051808381526020018281526020019250505060405180910390f35b34801561075e57600080fd5b506107676113b8565b005b34801561077557600080fd5b5061077e6118f5565b6040518082815260200191505060405180910390f35b3480156107a057600080fd5b506107a96118fb565b005b6107b3610853565b005b3480156107c157600080fd5b506107f6600480360381019080803573ffffffffffffffffffffffffffffffffffffffff169060200190929190505050611d6b565b005b34801561080457600080fd5b50610839600480360381019080803573ffffffffffffffffffffffffffffffffffffffff169060200190929190505050611fc1565b604051808215151515815260200191505060405180910390f35b60008060008061086161133c565b15801561086e5750600034115b151561087957600080fd5b349350610887846000611017565b809250819350505080840392508160036000828254019250508190555082600d60003373ffffffffffffffffffffffffffffffffffffffff1673ffffffffffffffffffffffffffffffffffffffff16815260200190815260200160002060008282540192505081905550600b60009054906101000a900473ffffffffffffffffffffffffffffffffffffffff1673ffffffffffffffffffffffffffffffffffffffff1663a9059cbb33846040518363ffffffff167c0100000000000000000000000000000000000000000000000000000000028152600401808373ffffffffffffffffffffffffffffffffffffffff1673ffffffffffffffffffffffffffffffffffffffff16815260200182815260200192505050602060405180830381600087803b1580156109b657600080fd5b505af11580156109ca573d6000803e3d6000fd5b505050506040513d60208110156109e057600080fd5b8101908080519060200190929190505050507fe842aea7a5f1b01049d752008c53c52890b1a6daf660cf39e8eec506112bbdf633846001604051808473ffffffffffffffffffffffffffffffffffffffff1673ffffffffffffffffffffffffffffffffffffffff16815260200183815260200182151515158152602001935050505060405180910390a16000809054906101000a900473ffffffffffffffffffffffffffffffffffffffff1673ffffffffffffffffffffffffffffffffffffffff166108fc849081150290604051600060405180830381858888f19350505050158015610ad1573d6000803e3d6000fd5b503373ffffffffffffffffffffffffffffffffffffffff166108fc829081150290604051600060405180830381858888f19350505050158015610b18573d6000803e3d6000fd5b5050505050565b60116020528060005260406000206000915054906101000a900460ff1681565b600c60009054906101000a900473ffffffffffffffffffffffffffffffffffffffff1681565b600f6020528060005260406000206000915090505481565b60106020528060005260406000206000915090505481565b600160009054906101000a900473ffffffffffffffffffffffffffffffffffffffff1673ffffffffffffffffffffffffffffffffffffffff163373ffffffffffffffffffffffffffffffffffffffff16141515610c80576040517f08c379a00000000000000000000000000000000000000000000000000000000081526004018080602001828103825260248152602001807f4f6e6c79206f776e6572206f6620636f6e74726163742063616e2063616c6c2081526020017f746869730000000000000000000000000000000000000000000000000000000081525060400191505060405180910390fd5b601360029054906101000a900460ff16151515610d2b576040517f08c379a00000000000000000000000000000000000000000000000000000000081526004018080602001828103825260258152602001807f546f6b656e2072657761726420636f6e74726163742068617320616c7265616481526020017f792073657400000000000000000000000000000000000000000000000000000081525060400191505060405180910390fd5b80600b60006101000a81548173ffffffffffffffffffffffffffffffffffffffff021916908373ffffffffffffffffffffffffffffffffffffffff1602179055506001601360026101000a81548160ff02191690831515021790555050565b60075481565b60045481565b6000610da061133c565b8015610daf5750600254600354105b905090565b60065481565b6000610dc4610d96565b1515610dcf57600080fd5b600d60003373ffffffffffffffffffffffffffffffffffffffff1673ffffffffffffffffffffffffffffffffffffffff1681526020019081526020016000205490506000600d60003373ffffffffffffffffffffffffffffffffffffffff1673ffffffffffffffffffffffffffffffffffffffff16815260200190815260200160002081905550600c60009054906101000a900473ffffffffffffffffffffffffffffffffffffffff1673ffffffffffffffffffffffffffffffffffffffff1663e032223033836040518363ffffffff167c0100000000000000000000000000000000000000000000000000000000028152600401808373ffffffffffffffffffffffffffffffffffffffff1673ffffffffffffffffffffffffffffffffffffffff16815260200182815260200192505050600060405180830381600087803b158015610f1b57600080fd5b505af1158015610f2f573d6000803e3d6000fd5b505050507fe842aea7a5f1b01049d752008c53c52890b1a6daf660cf39e8eec506112bbdf633826000604051808473ffffffffffffffffffffffffffffffffffffffff1673ffffffffffffffffffffffffffffffffffffffff16815260200183815260200182151515158152602001935050505060405180910390a150565b6000809054906101000a900473ffffffffffffffffffffffffffffffffffffffff1681565b600b60009054906101000a900473ffffffffffffffffffffffffffffffffffffffff1681565b600d6020528060005260406000206000915090505481565b60085481565b6000806000806000806000806000806000601360019054906101000a900460ff1615156110ac576040517f08c379a000000000000000000000000000000000000000000000000000000000815260040180806020018281038252601f8152602001807f43726f776473616c6520636f6e7472616374206d75737420626520696e69740081525060200191505060405180910390fd5b600a549850600097506000965060009550600354600254039450600954421080156110d557508b155b156110ed57600a60098a028115156110e957fe5b0498505b888d8115156110f857fe5b0496508487111561110b57600195508496505b6000600d60003373ffffffffffffffffffffffffffffffffffffffff1673ffffffffffffffffffffffffffffffffffffffff1681526020019081526020016000205414156111b15760065460055410801561116457508b155b156111ac5761117287611fe1565b9150848288011115611199578482880103925061119083838961137b565b80985081935050505b6005600081548092919060010191905055505b611200565b6064601060003373ffffffffffffffffffffffffffffffffffffffff1673ffffffffffffffffffffffffffffffffffffffff168152602001908152602001600020548115156111fc57fe5b0693505b61120a8488611ff7565b905084818389010111156112415784818389010103925061122c83838961137b565b809850819350505061123e8488611ff7565b90505b80820197508b15156112e85787600f60003373ffffffffffffffffffffffffffffffffffffffff1673ffffffffffffffffffffffffffffffffffffffff1681526020019081526020016000206000828254019250508190555086601060003373ffffffffffffffffffffffffffffffffffffffff1673ffffffffffffffffffffffffffffffffffffffff168152602001908152602001600020600082825401925050819055505b8887028d0399508787019650868a9a509a505050505050505050509250929050565b600160009054906101000a900473ffffffffffffffffffffffffffffffffffffffff1681565b60055481565b60025481565b6000600754421180611352575060025460035410155b905090565b600a5481565b60035481565b600e6020528060005260406000206000915090505481565b6000806000808611156113a85761139186611fe1565b9050808503925085840391508282925092506113af565b8484925092505b50935093915050565b6000806000601160003373ffffffffffffffffffffffffffffffffffffffff1673ffffffffffffffffffffffffffffffffffffffff16815260200190815260200160002060009054906101000a900460ff169250601260003373ffffffffffffffffffffffffffffffffffffffff1673ffffffffffffffffffffffffffffffffffffffff16815260200190815260200160002060009054906101000a900460ff1691508215156114d0576040517f08c379a000000000000000000000000000000000000000000000000000000000815260040180806020018281038252601f8152602001807f4f6e6c79206f776e6572206f662049434f2063616e2063616c6c20746869730081525060200191505060405180910390fd5b811515611545576040517f08c379a000000000000000000000000000000000000000000000000000000000815260040180806020018281038252601c8152602001807f4f776e65722068617320616c72656164792067657420746f6b656e730000000081525060200191505060405180910390fd5b61154d61133c565b15156115c1576040517f08c379a00000000000000000000000000000000000000000000000000000000081526004018080602001828103825260138152602001807f49434f2068617320616c726561647920656e640000000000000000000000000081525060200191505060405180910390fd5b6115c9610d96565b15151561163e576040517f08c379a000000000000000000000000000000000000000000000000000000000815260040180806020018281038252600d8152602001807f49434f206973206661696c65640000000000000000000000000000000000000081525060200191505060405180910390fd5b6001601260003373ffffffffffffffffffffffffffffffffffffffff1673ffffffffffffffffffffffffffffffffffffffff16815260200190815260200160002060006101000a81548160ff02191690831515021790555060056004548115156116a457fe5b049050601360009054906101000a900460ff1615156117ee576001601360006101000a81548160ff021916908315150217905550600b60009054906101000a900473ffffffffffffffffffffffffffffffffffffffff1673ffffffffffffffffffffffffffffffffffffffff1663a9059cbb33600560045481151561172557fe5b0684016040518363ffffffff167c0100000000000000000000000000000000000000000000000000000000028152600401808373ffffffffffffffffffffffffffffffffffffffff1673ffffffffffffffffffffffffffffffffffffffff16815260200182815260200192505050602060405180830381600087803b1580156117ad57600080fd5b505af11580156117c1573d6000803e3d6000fd5b505050506040513d60208110156117d757600080fd5b8101908080519060200190929190505050506118f0565b600b60009054906101000a900473ffffffffffffffffffffffffffffffffffffffff1673ffffffffffffffffffffffffffffffffffffffff1663a9059cbb33836040518363ffffffff167c0100000000000000000000000000000000000000000000000000000000028152600401808373ffffffffffffffffffffffffffffffffffffffff1673ffffffffffffffffffffffffffffffffffffffff16815260200182815260200192505050602060405180830381600087803b1580156118b357600080fd5b505af11580156118c7573d6000803e3d6000fd5b505050506040513d60208110156118dd57600080fd5b8101908080519060200190929190505050505b505050565b60095481565b600160009054906101000a900473ffffffffffffffffffffffffffffffffffffffff1673ffffffffffffffffffffffffffffffffffffffff163373ffffffffffffffffffffffffffffffffffffffff161415156119e6576040517f08c379a00000000000000000000000000000000000000000000000000000000081526004018080602001828103825260248152602001807f4f6e6c79206f776e6572206f6620636f6e74726163742063616e2063616c6c2081526020017f746869730000000000000000000000000000000000000000000000000000000081525060400191505060405180910390fd5b601360019054906101000a900460ff16151515611a6b576040517f08c379a000000000000000000000000000000000000000000000000000000000815260040180806020018281038252601f8152602001807f43726f776473616c6520636f6e747261637420616c726561647920696e69740081525060200191505060405180910390fd5b601360029054906101000a900460ff161515611aef576040517f08c379a000000000000000000000000000000000000000000000000000000000815260040180806020018281038252600f8152602001807f546f6b656e2069736e277420736574000000000000000000000000000000000081525060200191505060405180910390fd5b601360039054906101000a900460ff161515611b73576040517f08c379a00000000000000000000000000000000000000000000000000000000081526004018080602001828103825260128152602001807f4d756c74697369672069736e277420736574000000000000000000000000000081525060200191505060405180910390fd5b6001601360016101000a81548160ff021916908315150217905550426008819055506202a3006008540160098190555062093a80600854016007819055506703782dace9d90000600a8190555060646028600b60009054906101000a900473ffffffffffffffffffffffffffffffffffffffff1673ffffffffffffffffffffffffffffffffffffffff166318160ddd6040518163ffffffff167c0100000000000000000000000000000000000000000000000000000000028152600401602060405180830381600087803b158015611c4a57600080fd5b505af1158015611c5e573d6000803e3d6000fd5b505050506040513d6020811015611c7457600080fd5b810190808051906020019092919050505002811515611c8f57fe5b04600281905550600254600b60009054906101000a900473ffffffffffffffffffffffffffffffffffffffff1673ffffffffffffffffffffffffffffffffffffffff166318160ddd6040518163ffffffff167c0100000000000000000000000000000000000000000000000000000000028152600401602060405180830381600087803b158015611d1f57600080fd5b505af1158015611d33573d6000803e3d6000fd5b505050506040513d6020811015611d4957600080fd5b8101908080519060200190929190505050036004819055506005600681905550565b600160009054906101000a900473ffffffffffffffffffffffffffffffffffffffff1673ffffffffffffffffffffffffffffffffffffffff163373ffffffffffffffffffffffffffffffffffffffff16141515611e56576040517f08c379a00000000000000000000000000000000000000000000000000000000081526004018080602001828103825260248152602001807f4f6e6c79206f776e6572206f6620636f6e74726163742063616e2063616c6c2081526020017f746869730000000000000000000000000000000000000000000000000000000081525060400191505060405180910390fd5b601360039054906101000a900460ff16151515611f01576040517f08c379a00000000000000000000000000000000000000000000000000000000081526004018080602001828103825260218152602001807f4d756c746973696720636f6e74726163742068617320616c726561647920736581526020017f740000000000000000000000000000000000000000000000000000000000000081525060400191505060405180910390fd5b806000806101000a81548173ffffffffffffffffffffffffffffffffffffffff021916908373ffffffffffffffffffffffffffffffffffffffff1602179055506000809054906101000a900473ffffffffffffffffffffffffffffffffffffffff16600c60006101000a81548173ffffffffffffffffffffffffffffffffffffffff021916908373ffffffffffffffffffffffffffffffffffffffff1602179055506001601360036101000a81548160ff02191690831515021790555050565b60126020528060005260406000206000915054906101000a900460ff1681565b6000600582811515611fef57fe5b049050919050565b6000606482840181151561200757fe5b049050929150505600a165627a7a723058206d5565be6e68d17f3af8fc7861736a5013bb3be8dab0630c48b82078efebfdd50029",
  "source": "pragma solidity ^0.4.24;\nimport './MultiSigWallet.sol';\nimport './TokenERC20.sol';\n\ncontract Crowdsale {\n    address public multisigContractAddress; //   \n    address public owner; //  \n    uint public amountTokensForSale; //   \n    uint public amountOfSoldTokens; //   \n    uint public amountTokensForOwners; //     ICO.      ICO\n    uint public countOfFirstBuyers; //   ,     \n    uint public limitOfFirstBuyers; //    ,     \n    uint public deadline; //   ICO\n    uint public startICO; //   ICO\n    uint public startICOPlus2Days; //   ICO + 2 \n    uint public price; //     wei\n    TokenERC20 public tokenReward; // ,    ICO\n    MultiSigWallet public multisigContract; //  Multisig\n    mapping(address => uint256) public balanceOf; //     \n    mapping(address => uint256) public balanceOfBonusFirstBuyers;\n    mapping(address => uint256) public balanceOfTokenBonus; // total balance of bonus tokens\n    mapping(address => uint256) public balanceOfTokenBuyed; // total balance of buyed tokens\n    mapping(address => bool) public owners;\n    mapping(address => bool) public ownerGetTokens;\n    bool isFirstOwnerGetRestTokens; //    ICO        5\n    bool isInit;\n    bool isSetTokenReward;\n    bool isSetMultisig;\n    \n    event FundTransfer(address backer, uint256 amount, bool isContribution);\n    \n    constructor() public {\n        owner = msg.sender;\n        \n        //    ICO\n        owners[0x896ab7b50d7bce2961072fef0a7225376e88ba7e] = true;\n        owners[0x2dbc56b412ef3f70bee2ef3662e850f49c831052] = true;\n        owners[0xf7a67efba2a97f86228a7e36b996b34e0a417763] = true;\n        owners[0x94bb857c3a550130120b5bfc1b7de3d478104705] = true;\n        owners[0x44f8fb0c0425471e23cdcc819827aa32cab607a9] = true;\n    }\n    \n    modifier onlyOwner() {\n        require(msg.sender == owner, \"Only owner of contract can call this\");\n        _;\n    }\n    \n    function setTokenUsedAsReward(address _addressOfTokenUsedAsReward) public onlyOwner {\n        require(!isSetTokenReward, \"Token reward contract has already set\");\n            \n        tokenReward = TokenERC20(_addressOfTokenUsedAsReward);\n        isSetTokenReward = true;\n    }\n    \n    function setMultisig(address _multisigAddress) public onlyOwner {\n        require(!isSetMultisig, \"Multisig contract has already set\");\n            \n        multisigContractAddress = _multisigAddress;\n        multisigContract = MultiSigWallet(multisigContractAddress);\n        isSetMultisig = true;\n    }\n    \n    function init() public onlyOwner {\n        require(!isInit, \"Crowdsale contract already init\");\n        require(isSetTokenReward, \"Token isn't set\");\n        require(isSetMultisig, \"Multisig isn't set\");\n        \n        isInit = true;\n        startICO = now;\n        startICOPlus2Days = startICO + 2 days;\n        deadline = startICO + 7 days;\n        price = 250000000000000000; //   wei = 0.25ETH\n        amountTokensForSale = tokenReward.totalSupply() * 40 / 100; //        crowdsale\n        amountTokensForOwners = tokenReward.totalSupply() - amountTokensForSale; //       ICO   \n        limitOfFirstBuyers = 5; //    \n    }\n    \n    function distributeTokensAmongOwners() public {\n        //        ICO\n        bool isOwnerOfICO = owners[msg.sender];\n        bool isOwnerGetTokens = ownerGetTokens[msg.sender];\n        require(isOwnerOfICO, \"Only owner of ICO can call this\");\n        require(isOwnerGetTokens, \"Owner has already get tokens\");\n        require(isIcoEnd(), \"ICO has already end\");\n        require(!isIcoFail(), \"ICO is failed\");\n\n        ownerGetTokens[msg.sender] = true;\n\n        //      ICO.      5   ICO,   .\n        uint amountForOneOwner = amountTokensForOwners / 5;\n        if (!isFirstOwnerGetRestTokens) {\n            //    ICO       5,     \n            isFirstOwnerGetRestTokens = true;\n            tokenReward.transfer(msg.sender, amountForOneOwner + amountTokensForOwners % 5);\n        } else {\n            tokenReward.transfer(msg.sender, amountForOneOwner);\n        }\n    }\n    \n    function isIcoEnd() public view returns(bool) {\n        return now > deadline || amountOfSoldTokens >= amountTokensForSale;\n    }\n    \n    function isIcoFail() public view returns(bool) {\n        return isIcoEnd() && amountOfSoldTokens < amountTokensForSale;\n    }\n\n    /**\n     *   -       \n     *   :\n     * -payable()    \n     * - js          \n     *\n     * @param  _wei_amount :  wei()  \n     * @param  _pre_calc :    \n     * @return _token_count -      \n     * @return _wei_change -   wei()\n     */\n    function calcTokenAmount(uint256 _wei_amount, bool _pre_calc)\n    public returns (uint256 _token_count, uint256 _wei_change){\n\n        require(isInit, \"Crowdsale contract must be init\");\n\n        uint256 newPrice = price;\n        uint256 token_count_bonus = 0;\n        uint256 token_count_buyed = 0;\n        bool reachedLimit = false;\n        uint256 max_allowed = amountTokensForSale - amountOfSoldTokens;\n        uint256 tokenExistsLeftWithoutBonus;\n        uint256 fixTotal;\n        // for bonus3\n\n        // BONUS 1 //-  ,      2      10%\n        if ((now < startICOPlus2Days) && !_pre_calc) {\n            //          \n            newPrice = newPrice * 9 / 10;\n        }\n\n        token_count_buyed = _wei_amount / newPrice;\n        if (token_count_buyed >  max_allowed) {// if reached limit\n            reachedLimit = true;\n            token_count_buyed = max_allowed;\n        }\n\n        // BONUS 2 //-  5   20%      .\n        uint256 bonus2;\n        if (balanceOf[msg.sender] == 0) {\n            // new buyer\n            if ((countOfFirstBuyers < limitOfFirstBuyers) && !_pre_calc) {\n                bonus2 = calcBonus2(token_count_buyed);\n                if (token_count_buyed + bonus2 > max_allowed) {// recalc\n                    fixTotal = token_count_buyed + bonus2 - max_allowed;\n                    (bonus2, token_count_buyed) = fixBonus2(fixTotal, bonus2, token_count_buyed);\n                }\n                countOfFirstBuyers++;\n            }\n        } else {\n            tokenExistsLeftWithoutBonus = balanceOfTokenBuyed[msg.sender] % 100;\n            //for bonus3\n        }\n\n        // end BONUS 2\n\n        // BONUS 3 //-          100  .\n        //    2       \n        uint256 bonus3 = calcBonus3(tokenExistsLeftWithoutBonus, token_count_buyed);\n        if (token_count_buyed + bonus2 + bonus3 > max_allowed) {\n            // if reached limit\n            fixTotal = token_count_buyed + bonus2 + bonus3 - max_allowed;\n            (bonus2, token_count_buyed) = fixBonus2(fixTotal, bonus2, token_count_buyed);\n            bonus3 = calcBonus3(tokenExistsLeftWithoutBonus, token_count_buyed);\n        }\n        // end BONUS 3\n        token_count_bonus = bonus2 + bonus3;\n\n        if (!_pre_calc) {// save\n            balanceOfTokenBonus[msg.sender] += token_count_bonus;\n            balanceOfTokenBuyed[msg.sender] += token_count_buyed;\n        }\n\n        _wei_change = _wei_amount - (token_count_buyed * newPrice);\n        token_count_buyed += token_count_bonus;\n        return (token_count_buyed, _wei_change);\n    }\n\n    function calcBonus2(uint256 buyed) private returns (uint256){\n        return buyed / 5;\n    }\n\n    function fixBonus2(uint256 fixTotal, uint256 bonus, uint256 buyed) returns (uint256 bonusFixed, uint256 buyedFixed){\n        if (fixTotal > 0) {// recalc\n            uint256 bonusFix = calcBonus2(fixTotal);\n            bonusFixed = bonus - bonusFix;\n            buyedFixed = buyed - fixTotal;\n            return (bonusFixed, buyedFixed);\n        }\n        return (bonus, buyed);\n    }\n\n    function calcBonus3(uint256 buyedWithoutBonus, uint256 buyed) private returns (uint256 bonus3){\n        return (buyedWithoutBonus + buyed) / 100;\n    }\n\n    function() payable public {\n        invest();\n    }\n\n    function invest() payable public {\n        require(!isIcoEnd() && msg.value > 0);  //  ICO   ?\n        uint256 buyer_wei = msg.value;             //    \n        uint256 actually_wei;                      //    \n        uint256 token_count;                    //   \n        uint256 wei_change;                     //         \n        (token_count, wei_change) = calcTokenAmount(buyer_wei, false); //      \n        actually_wei = buyer_wei - wei_change;\n\n        amountOfSoldTokens += token_count;             //    \n        balanceOf[msg.sender] += actually_wei;         //      \n        tokenReward.transfer(msg.sender, token_count); //      \n        emit FundTransfer (msg.sender, actually_wei, true);\n\n        multisigContractAddress.transfer(actually_wei); //     MultiSig\n        msg.sender.transfer(wei_change);    //   \n    }\n\n    function refund() public {\n        require(isIcoFail());\n\n        uint valueToRefund = balanceOf[msg.sender]; //    \n        balanceOf[msg.sender] = 0;\n\n        multisigContract.getCoinsAfterNegativeIco(msg.sender, valueToRefund); //     c multisig-\n        emit FundTransfer(msg.sender, valueToRefund, false);\n    }\n\n}\n\n",
  "sourcePath": "/home/kostiantyn/Projects/hashlottery2/smart_contracts/contracts/Crowdsale.sol",
  "compiler": {
    "name": "solc",
    "version": "0.4.24+commit.e67f0147.Emscripten.clang"
  },
  "schemaVersion": "2.0.1",
  "updatedAt": "2018-10-26T14:14:33.586Z"
}