{
  "contractName": "Crowdsale",
  "abi": [
    {
      "constant": true,
      "inputs": [
        {
          "name": "",
          "type": "address"
        }
      ],
      "name": "owners",
      "outputs": [
        {
          "name": "",
          "type": "bool"
        }
      ],
      "payable": false,
      "stateMutability": "view",
      "type": "function"
    },
    {
      "constant": true,
      "inputs": [],
      "name": "multisigContract",
      "outputs": [
        {
          "name": "",
          "type": "address"
        }
      ],
      "payable": false,
      "stateMutability": "view",
      "type": "function"
    },
    {
      "constant": true,
      "inputs": [
        {
          "name": "",
          "type": "address"
        }
      ],
      "name": "balanceOfTokenBonus",
      "outputs": [
        {
          "name": "",
          "type": "uint256"
        }
      ],
      "payable": false,
      "stateMutability": "view",
      "type": "function"
    },
    {
      "constant": true,
      "inputs": [
        {
          "name": "",
          "type": "address"
        }
      ],
      "name": "balanceOfTokenBuyed",
      "outputs": [
        {
          "name": "",
          "type": "uint256"
        }
      ],
      "payable": false,
      "stateMutability": "view",
      "type": "function"
    },
    {
      "constant": true,
      "inputs": [],
      "name": "deadline",
      "outputs": [
        {
          "name": "",
          "type": "uint256"
        }
      ],
      "payable": false,
      "stateMutability": "view",
      "type": "function"
    },
    {
      "constant": true,
      "inputs": [],
      "name": "amountTokensForOwners",
      "outputs": [
        {
          "name": "",
          "type": "uint256"
        }
      ],
      "payable": false,
      "stateMutability": "view",
      "type": "function"
    },
    {
      "constant": true,
      "inputs": [],
      "name": "limitOfFirstBuyers",
      "outputs": [
        {
          "name": "",
          "type": "uint256"
        }
      ],
      "payable": false,
      "stateMutability": "view",
      "type": "function"
    },
    {
      "constant": true,
      "inputs": [],
      "name": "multisigContractAddress",
      "outputs": [
        {
          "name": "",
          "type": "address"
        }
      ],
      "payable": false,
      "stateMutability": "view",
      "type": "function"
    },
    {
      "constant": true,
      "inputs": [],
      "name": "tokenReward",
      "outputs": [
        {
          "name": "",
          "type": "address"
        }
      ],
      "payable": false,
      "stateMutability": "view",
      "type": "function"
    },
    {
      "constant": true,
      "inputs": [
        {
          "name": "",
          "type": "address"
        }
      ],
      "name": "balanceOf",
      "outputs": [
        {
          "name": "",
          "type": "uint256"
        }
      ],
      "payable": false,
      "stateMutability": "view",
      "type": "function"
    },
    {
      "constant": true,
      "inputs": [],
      "name": "startICO",
      "outputs": [
        {
          "name": "",
          "type": "uint256"
        }
      ],
      "payable": false,
      "stateMutability": "view",
      "type": "function"
    },
    {
      "constant": true,
      "inputs": [],
      "name": "owner",
      "outputs": [
        {
          "name": "",
          "type": "address"
        }
      ],
      "payable": false,
      "stateMutability": "view",
      "type": "function"
    },
    {
      "constant": true,
      "inputs": [],
      "name": "countOfFirstBuyers",
      "outputs": [
        {
          "name": "",
          "type": "uint256"
        }
      ],
      "payable": false,
      "stateMutability": "view",
      "type": "function"
    },
    {
      "constant": true,
      "inputs": [],
      "name": "amountTokensForSale",
      "outputs": [
        {
          "name": "",
          "type": "uint256"
        }
      ],
      "payable": false,
      "stateMutability": "view",
      "type": "function"
    },
    {
      "constant": true,
      "inputs": [],
      "name": "price",
      "outputs": [
        {
          "name": "",
          "type": "uint256"
        }
      ],
      "payable": false,
      "stateMutability": "view",
      "type": "function"
    },
    {
      "constant": true,
      "inputs": [],
      "name": "amountOfSoldTokens",
      "outputs": [
        {
          "name": "",
          "type": "uint256"
        }
      ],
      "payable": false,
      "stateMutability": "view",
      "type": "function"
    },
    {
      "constant": true,
      "inputs": [],
      "name": "isInit",
      "outputs": [
        {
          "name": "",
          "type": "bool"
        }
      ],
      "payable": false,
      "stateMutability": "view",
      "type": "function"
    },
    {
      "constant": true,
      "inputs": [
        {
          "name": "",
          "type": "address"
        }
      ],
      "name": "balanceOfBonusFirstBuyers",
      "outputs": [
        {
          "name": "",
          "type": "uint256"
        }
      ],
      "payable": false,
      "stateMutability": "view",
      "type": "function"
    },
    {
      "constant": true,
      "inputs": [],
      "name": "startICOPlus2Days",
      "outputs": [
        {
          "name": "",
          "type": "uint256"
        }
      ],
      "payable": false,
      "stateMutability": "view",
      "type": "function"
    },
    {
      "constant": true,
      "inputs": [
        {
          "name": "",
          "type": "address"
        }
      ],
      "name": "ownerGetTokens",
      "outputs": [
        {
          "name": "",
          "type": "bool"
        }
      ],
      "payable": false,
      "stateMutability": "view",
      "type": "function"
    },
    {
      "inputs": [],
      "payable": false,
      "stateMutability": "nonpayable",
      "type": "constructor"
    },
    {
      "payable": true,
      "stateMutability": "payable",
      "type": "fallback"
    },
    {
      "anonymous": false,
      "inputs": [
        {
          "indexed": false,
          "name": "backer",
          "type": "address"
        },
        {
          "indexed": false,
          "name": "amount",
          "type": "uint256"
        },
        {
          "indexed": false,
          "name": "isContribution",
          "type": "bool"
        }
      ],
      "name": "FundTransfer",
      "type": "event"
    },
    {
      "constant": false,
      "inputs": [
        {
          "name": "_addressOfTokenUsedAsReward",
          "type": "address"
        }
      ],
      "name": "setTokenUsedAsReward",
      "outputs": [],
      "payable": false,
      "stateMutability": "nonpayable",
      "type": "function"
    },
    {
      "constant": false,
      "inputs": [
        {
          "name": "_multisigAddress",
          "type": "address"
        }
      ],
      "name": "setMultisig",
      "outputs": [],
      "payable": false,
      "stateMutability": "nonpayable",
      "type": "function"
    },
    {
      "constant": false,
      "inputs": [],
      "name": "init",
      "outputs": [],
      "payable": false,
      "stateMutability": "nonpayable",
      "type": "function"
    },
    {
      "constant": false,
      "inputs": [],
      "name": "distributeTokensAmongOwners",
      "outputs": [],
      "payable": false,
      "stateMutability": "nonpayable",
      "type": "function"
    },
    {
      "constant": true,
      "inputs": [],
      "name": "isIcoEnd",
      "outputs": [
        {
          "name": "",
          "type": "bool"
        }
      ],
      "payable": false,
      "stateMutability": "view",
      "type": "function"
    },
    {
      "constant": true,
      "inputs": [],
      "name": "isIcoFail",
      "outputs": [
        {
          "name": "",
          "type": "bool"
        }
      ],
      "payable": false,
      "stateMutability": "view",
      "type": "function"
    },
    {
      "constant": true,
      "inputs": [
        {
          "name": "_wei_amount",
          "type": "uint256"
        },
        {
          "name": "_pre_calc",
          "type": "bool"
        }
      ],
      "name": "calcTokenAmount",
      "outputs": [
        {
          "name": "token_count_buyed",
          "type": "uint256"
        },
        {
          "name": "token_count_bonus",
          "type": "uint256"
        },
        {
          "name": "_wei_change",
          "type": "uint256"
        },
        {
          "name": "bonuses",
          "type": "uint256"
        }
      ],
      "payable": false,
      "stateMutability": "view",
      "type": "function"
    },
    {
      "constant": false,
      "inputs": [],
      "name": "invest",
      "outputs": [],
      "payable": true,
      "stateMutability": "payable",
      "type": "function"
    },
    {
      "constant": false,
      "inputs": [],
      "name": "refund",
      "outputs": [],
      "payable": false,
      "stateMutability": "nonpayable",
      "type": "function"
    }
  ],
  "bytecode": "0x608060405234801561001057600080fd5b5033600160006101000a81548173ffffffffffffffffffffffffffffffffffffffff021916908373ffffffffffffffffffffffffffffffffffffffff16021790555060016011600073896ab7b50d7bce2961072fef0a7225376e88ba7e73ffffffffffffffffffffffffffffffffffffffff16815260200190815260200160002060006101000a81548160ff0219169083151502179055506001601160007394bb857c3a550130120b5bfc1b7de3d47810470573ffffffffffffffffffffffffffffffffffffffff16815260200190815260200160002060006101000a81548160ff0219169083151502179055506001601160007342cf7f102aeb2d387c083548990e3bcc03d33d1273ffffffffffffffffffffffffffffffffffffffff16815260200190815260200160002060006101000a81548160ff02191690831515021790555061234a806101636000396000f300608060405260043610610175576000357c0100000000000000000000000000000000000000000000000000000000900463ffffffff168063022914a71461017f57806304d5232b146101da5780630f8a2fa9146102315780631d9baed31461028857806325bbc352146102df57806329dcb0cf1461032257806330988bcb1461034d578063433357af146103785780634acb7b52146103a7578063590e1ae3146103d257806364b054ec146103e95780636e66f6e91461044057806370a08231146104975780637fa8c158146104ee57806386f0103f146105195780638da5cb5b1461057b5780638ee155a7146105d25780638f11a560146105fd5780639835c63814610628578063a035b1fe14610657578063a6e5178a14610682578063b145a5b8146106ad578063b8966035146106dc578063c530e17414610733578063d308b0e31461074a578063e1c7392a14610775578063e8b5e51f1461078c578063f3283fba14610796578063f93f889c146107d9575b61017d610834565b005b34801561018b57600080fd5b506101c0600480360381019080803573ffffffffffffffffffffffffffffffffffffffff169060200190929190505050610ddb565b604051808215151515815260200191505060405180910390f35b3480156101e657600080fd5b506101ef610dfb565b604051808273ffffffffffffffffffffffffffffffffffffffff1673ffffffffffffffffffffffffffffffffffffffff16815260200191505060405180910390f35b34801561023d57600080fd5b50610272600480360381019080803573ffffffffffffffffffffffffffffffffffffffff169060200190929190505050610e21565b6040518082815260200191505060405180910390f35b34801561029457600080fd5b506102c9600480360381019080803573ffffffffffffffffffffffffffffffffffffffff169060200190929190505050610e39565b6040518082815260200191505060405180910390f35b3480156102eb57600080fd5b50610320600480360381019080803573ffffffffffffffffffffffffffffffffffffffff169060200190929190505050610e51565b005b34801561032e57600080fd5b50610337611046565b6040518082815260200191505060405180910390f35b34801561035957600080fd5b5061036261104c565b6040518082815260200191505060405180910390f35b34801561038457600080fd5b5061038d611052565b604051808215151515815260200191505060405180910390f35b3480156103b357600080fd5b506103bc611070565b6040518082815260200191505060405180910390f35b3480156103de57600080fd5b506103e7611076565b005b3480156103f557600080fd5b506103fe61134c565b604051808273ffffffffffffffffffffffffffffffffffffffff1673ffffffffffffffffffffffffffffffffffffffff16815260200191505060405180910390f35b34801561044c57600080fd5b50610455611371565b604051808273ffffffffffffffffffffffffffffffffffffffff1673ffffffffffffffffffffffffffffffffffffffff16815260200191505060405180910390f35b3480156104a357600080fd5b506104d8600480360381019080803573ffffffffffffffffffffffffffffffffffffffff169060200190929190505050611397565b6040518082815260200191505060405180910390f35b3480156104fa57600080fd5b506105036113af565b6040518082815260200191505060405180910390f35b34801561052557600080fd5b50610550600480360381019080803590602001909291908035151590602001909291905050506113b5565b6040518085815260200184815260200183815260200182815260200194505050505060405180910390f35b34801561058757600080fd5b5061059061162e565b604051808273ffffffffffffffffffffffffffffffffffffffff1673ffffffffffffffffffffffffffffffffffffffff16815260200191505060405180910390f35b3480156105de57600080fd5b506105e7611654565b6040518082815260200191505060405180910390f35b34801561060957600080fd5b5061061261165a565b6040518082815260200191505060405180910390f35b34801561063457600080fd5b5061063d611660565b604051808215151515815260200191505060405180910390f35b34801561066357600080fd5b5061066c611693565b6040518082815260200191505060405180910390f35b34801561068e57600080fd5b50610697611699565b6040518082815260200191505060405180910390f35b3480156106b957600080fd5b506106c261169f565b604051808215151515815260200191505060405180910390f35b3480156106e857600080fd5b5061071d600480360381019080803573ffffffffffffffffffffffffffffffffffffffff1690602001909291905050506116b2565b6040518082815260200191505060405180910390f35b34801561073f57600080fd5b506107486116ca565b005b34801561075657600080fd5b5061075f611c08565b6040518082815260200191505060405180910390f35b34801561078157600080fd5b5061078a611c0e565b005b610794610834565b005b3480156107a257600080fd5b506107d7600480360381019080803573ffffffffffffffffffffffffffffffffffffffff16906020019092919050505061203c565b005b3480156107e557600080fd5b5061081a600480360381019080803573ffffffffffffffffffffffffffffffffffffffff169060200190929190505050612292565b604051808215151515815260200191505060405180910390f35b6000806000806000610844611660565b1515156108df576040517f08c379a00000000000000000000000000000000000000000000000000000000081526004018080602001828103825260258152602001807f596f752063616e277420696e7665737420626563617573652049434f2069732081526020017f656e64656400000000000000000000000000000000000000000000000000000081525060400191505060405180910390fd5b60003411151561097d576040517f08c379a00000000000000000000000000000000000000000000000000000000081526004018080602001828103825260238152602001807f596f752063616e277420696e7665737420626563617573652076616c7565206981526020017f732030000000000000000000000000000000000000000000000000000000000081525060400191505060405180910390fd5b34945061098b8560006113b5565b50809350819450829550505050600083111515610a36576040517f08c379a00000000000000000000000000000000000000000000000000000000081526004018080602001828103825260408152602001807f596f752063616e277420696e766573742062656361757365207765695f616d6f81526020017f756e74206c657373207468616e207072696365206f66206f6e6520746f6b656e81525060400191505060405180910390fd5b81600f60003373ffffffffffffffffffffffffffffffffffffffff1673ffffffffffffffffffffffffffffffffffffffff1681526020019081526020016000206000828254019250508190555082601060003373ffffffffffffffffffffffffffffffffffffffff1673ffffffffffffffffffffffffffffffffffffffff168152602001908152602001600020600082825401925050819055508183019250600654600554108015610b2757506000600d60003373ffffffffffffffffffffffffffffffffffffffff1673ffffffffffffffffffffffffffffffffffffffff16815260200190815260200160002054145b15610b3f576005600081548092919060010191905055505b80850393508260036000828254019250508190555083600d60003373ffffffffffffffffffffffffffffffffffffffff1673ffffffffffffffffffffffffffffffffffffffff16815260200190815260200160002060008282540192505081905550600b60009054906101000a900473ffffffffffffffffffffffffffffffffffffffff1673ffffffffffffffffffffffffffffffffffffffff1663a9059cbb33856040518363ffffffff167c0100000000000000000000000000000000000000000000000000000000028152600401808373ffffffffffffffffffffffffffffffffffffffff1673ffffffffffffffffffffffffffffffffffffffff16815260200182815260200192505050602060405180830381600087803b158015610c6657600080fd5b505af1158015610c7a573d6000803e3d6000fd5b505050506040513d6020811015610c9057600080fd5b8101908080519060200190929190505050507fe842aea7a5f1b01049d752008c53c52890b1a6daf660cf39e8eec506112bbdf633856001604051808473ffffffffffffffffffffffffffffffffffffffff1673ffffffffffffffffffffffffffffffffffffffff16815260200183815260200182151515158152602001935050505060405180910390a16000809054906101000a900473ffffffffffffffffffffffffffffffffffffffff1673ffffffffffffffffffffffffffffffffffffffff166108fc859081150290604051600060405180830381858888f19350505050158015610d81573d6000803e3d6000fd5b50600081141515610dd4573373ffffffffffffffffffffffffffffffffffffffff166108fc829081150290604051600060405180830381858888f19350505050158015610dd2573d6000803e3d6000fd5b505b5050505050565b60116020528060005260406000206000915054906101000a900460ff1681565b600c60009054906101000a900473ffffffffffffffffffffffffffffffffffffffff1681565b600f6020528060005260406000206000915090505481565b60106020528060005260406000206000915090505481565b600160009054906101000a900473ffffffffffffffffffffffffffffffffffffffff1673ffffffffffffffffffffffffffffffffffffffff163373ffffffffffffffffffffffffffffffffffffffff16141515610f3c576040517f08c379a00000000000000000000000000000000000000000000000000000000081526004018080602001828103825260248152602001807f4f6e6c79206f776e6572206f6620636f6e74726163742063616e2063616c6c2081526020017f746869730000000000000000000000000000000000000000000000000000000081525060400191505060405180910390fd5b601360029054906101000a900460ff16151515610fe7576040517f08c379a00000000000000000000000000000000000000000000000000000000081526004018080602001828103825260258152602001807f546f6b656e2072657761726420636f6e74726163742068617320616c7265616481526020017f792073657400000000000000000000000000000000000000000000000000000081525060400191505060405180910390fd5b80600b60006101000a81548173ffffffffffffffffffffffffffffffffffffffff021916908373ffffffffffffffffffffffffffffffffffffffff1602179055506001601360026101000a81548160ff02191690831515021790555050565b60075481565b60045481565b600061105c611660565b801561106b5750600254600354105b905090565b60065481565b6000600d60003373ffffffffffffffffffffffffffffffffffffffff1673ffffffffffffffffffffffffffffffffffffffff1681526020019081526020016000205490506110c2611052565b1515611136576040517f08c379a00000000000000000000000000000000000000000000000000000000081526004018080602001828103825260108152602001807f49434f2069736e2774206661696c65640000000000000000000000000000000081525060200191505060405180910390fd5b600081141515156111af576040517f08c379a000000000000000000000000000000000000000000000000000000000815260040180806020018281038252600c8152602001807f42616c616e63652069732030000000000000000000000000000000000000000081525060200191505060405180910390fd5b6000600d60003373ffffffffffffffffffffffffffffffffffffffff1673ffffffffffffffffffffffffffffffffffffffff16815260200190815260200160002081905550600c60009054906101000a900473ffffffffffffffffffffffffffffffffffffffff1673ffffffffffffffffffffffffffffffffffffffff1663e032223033836040518363ffffffff167c0100000000000000000000000000000000000000000000000000000000028152600401808373ffffffffffffffffffffffffffffffffffffffff1673ffffffffffffffffffffffffffffffffffffffff16815260200182815260200192505050600060405180830381600087803b1580156112b957600080fd5b505af11580156112cd573d6000803e3d6000fd5b505050507fe842aea7a5f1b01049d752008c53c52890b1a6daf660cf39e8eec506112bbdf633826000604051808473ffffffffffffffffffffffffffffffffffffffff1673ffffffffffffffffffffffffffffffffffffffff16815260200183815260200182151515158152602001935050505060405180910390a150565b6000809054906101000a900473ffffffffffffffffffffffffffffffffffffffff1681565b600b60009054906101000a900473ffffffffffffffffffffffffffffffffffffffff1681565b600d6020528060005260406000206000915090505481565b60085481565b6000806000806000806000806000806000601360019054906101000a900460ff16151561144a576040517f08c379a000000000000000000000000000000000000000000000000000000000815260040180806020018281038252601f8152602001807f43726f776473616c6520636f6e7472616374206d75737420626520696e69740081525060200191505060405180910390fd5b600a549650600095506003546002540394506009544210801561146b57508b155b1561148957600a6009880281151561147f57fe5b0496506064880197505b868d10156114ad576000808e60008393508292508090509a509a509a509a5061161e565b868d8115156114b857fe5b049a50848b11156114cb5760019550849a505b6000600d60003373ffffffffffffffffffffffffffffffffffffffff1673ffffffffffffffffffffffffffffffffffffffff1681526020019081526020016000205414156115655760065460055410801561152457508b155b15611560576115328b6122b2565b915084828c0111156115595784828c0103925061155083838d6122c8565b809c5081935050505b6014880197505b6115b4565b6064601060003373ffffffffffffffffffffffffffffffffffffffff1673ffffffffffffffffffffffffffffffffffffffff168152602001908152602001600020548115156115b057fe5b0693505b6115be848c612305565b90508481838d010111156115f5578481838d01010392506115e083838d6122c8565b809c5081935050506115f2848c612305565b90505b6000811115611605576003880197505b8082019950868b028d0398508a8a8a8a9a509a509a509a505b5050505050505092959194509250565b600160009054906101000a900473ffffffffffffffffffffffffffffffffffffffff1681565b60055481565b60025481565b6000601360019054906101000a900460ff16801561168e575060075442118061168d575060025460035410155b5b905090565b600a5481565b60035481565b601360019054906101000a900460ff1681565b600e6020528060005260406000206000915090505481565b6000806000601160003373ffffffffffffffffffffffffffffffffffffffff1673ffffffffffffffffffffffffffffffffffffffff16815260200190815260200160002060009054906101000a900460ff169250601260003373ffffffffffffffffffffffffffffffffffffffff1673ffffffffffffffffffffffffffffffffffffffff16815260200190815260200160002060009054906101000a900460ff1691508215156117e2576040517f08c379a000000000000000000000000000000000000000000000000000000000815260040180806020018281038252601f8152602001807f4f6e6c79206f776e6572206f662049434f2063616e2063616c6c20746869730081525060200191505060405180910390fd5b81151515611858576040517f08c379a000000000000000000000000000000000000000000000000000000000815260040180806020018281038252601c8152602001807f4f776e65722068617320616c72656164792067657420746f6b656e730000000081525060200191505060405180910390fd5b611860611660565b15156118d4576040517f08c379a000000000000000000000000000000000000000000000000000000000815260040180806020018281038252600f8152602001807f49434f2069736e277420656e646564000000000000000000000000000000000081525060200191505060405180910390fd5b6118dc611052565b151515611951576040517f08c379a000000000000000000000000000000000000000000000000000000000815260040180806020018281038252600d8152602001807f49434f206973206661696c65640000000000000000000000000000000000000081525060200191505060405180910390fd5b6001601260003373ffffffffffffffffffffffffffffffffffffffff1673ffffffffffffffffffffffffffffffffffffffff16815260200190815260200160002060006101000a81548160ff02191690831515021790555060036004548115156119b757fe5b049050601360009054906101000a900460ff161515611b01576001601360006101000a81548160ff021916908315150217905550600b60009054906101000a900473ffffffffffffffffffffffffffffffffffffffff1673ffffffffffffffffffffffffffffffffffffffff1663a9059cbb336003600454811515611a3857fe5b0684016040518363ffffffff167c0100000000000000000000000000000000000000000000000000000000028152600401808373ffffffffffffffffffffffffffffffffffffffff1673ffffffffffffffffffffffffffffffffffffffff16815260200182815260200192505050602060405180830381600087803b158015611ac057600080fd5b505af1158015611ad4573d6000803e3d6000fd5b505050506040513d6020811015611aea57600080fd5b810190808051906020019092919050505050611c03565b600b60009054906101000a900473ffffffffffffffffffffffffffffffffffffffff1673ffffffffffffffffffffffffffffffffffffffff1663a9059cbb33836040518363ffffffff167c0100000000000000000000000000000000000000000000000000000000028152600401808373ffffffffffffffffffffffffffffffffffffffff1673ffffffffffffffffffffffffffffffffffffffff16815260200182815260200192505050602060405180830381600087803b158015611bc657600080fd5b505af1158015611bda573d6000803e3d6000fd5b505050506040513d6020811015611bf057600080fd5b8101908080519060200190929190505050505b505050565b60095481565b6000600160009054906101000a900473ffffffffffffffffffffffffffffffffffffffff1673ffffffffffffffffffffffffffffffffffffffff163373ffffffffffffffffffffffffffffffffffffffff16141515611cfb576040517f08c379a00000000000000000000000000000000000000000000000000000000081526004018080602001828103825260248152602001807f4f6e6c79206f776e6572206f6620636f6e74726163742063616e2063616c6c2081526020017f746869730000000000000000000000000000000000000000000000000000000081525060400191505060405180910390fd5b601360019054906101000a900460ff16151515611d80576040517f08c379a000000000000000000000000000000000000000000000000000000000815260040180806020018281038252601f8152602001807f43726f776473616c6520636f6e747261637420616c726561647920696e69740081525060200191505060405180910390fd5b601360029054906101000a900460ff161515611e04576040517f08c379a000000000000000000000000000000000000000000000000000000000815260040180806020018281038252600f8152602001807f546f6b656e2069736e277420736574000000000000000000000000000000000081525060200191505060405180910390fd5b601360039054906101000a900460ff161515611e88576040517f08c379a00000000000000000000000000000000000000000000000000000000081526004018080602001828103825260128152602001807f4d756c74697369672069736e277420736574000000000000000000000000000081525060200191505060405180910390fd5b600b60009054906101000a900473ffffffffffffffffffffffffffffffffffffffff1673ffffffffffffffffffffffffffffffffffffffff166318160ddd6040518163ffffffff167c0100000000000000000000000000000000000000000000000000000000028152600401602060405180830381600087803b158015611f0e57600080fd5b505af1158015611f22573d6000803e3d6000fd5b505050506040513d6020811015611f3857600080fd5b81019080805190602001909291905050509050600081111515611fc3576040517f08c379a000000000000000000000000000000000000000000000000000000000815260040180806020018281038252601d8152602001807f537570706c7920746f6b656e73206973206e6f7420646f6e652079657400000081525060200191505060405180910390fd5b6001601360016101000a81548160ff021916908315150217905550426008819055506202a3006008540160098190555062093a80600854016007819055506703782dace9d90000600a8190555060646028820281151561201f57fe5b046002819055506002548103600481905550600560068190555050565b600160009054906101000a900473ffffffffffffffffffffffffffffffffffffffff1673ffffffffffffffffffffffffffffffffffffffff163373ffffffffffffffffffffffffffffffffffffffff16141515612127576040517f08c379a00000000000000000000000000000000000000000000000000000000081526004018080602001828103825260248152602001807f4f6e6c79206f776e6572206f6620636f6e74726163742063616e2063616c6c2081526020017f746869730000000000000000000000000000000000000000000000000000000081525060400191505060405180910390fd5b601360039054906101000a900460ff161515156121d2576040517f08c379a00000000000000000000000000000000000000000000000000000000081526004018080602001828103825260218152602001807f4d756c746973696720636f6e74726163742068617320616c726561647920736581526020017f740000000000000000000000000000000000000000000000000000000000000081525060400191505060405180910390fd5b806000806101000a81548173ffffffffffffffffffffffffffffffffffffffff021916908373ffffffffffffffffffffffffffffffffffffffff1602179055506000809054906101000a900473ffffffffffffffffffffffffffffffffffffffff16600c60006101000a81548173ffffffffffffffffffffffffffffffffffffffff021916908373ffffffffffffffffffffffffffffffffffffffff1602179055506001601360036101000a81548160ff02191690831515021790555050565b60126020528060005260406000206000915054906101000a900460ff1681565b60006005828115156122c057fe5b049050919050565b6000806000808611156122f5576122de866122b2565b9050808503925085840391508282925092506122fc565b8484925092505b50935093915050565b6000606482840181151561231557fe5b049050929150505600a165627a7a7230582073ca029c60e0f4e5088690483b223e563149ff64b0ceba3f2b2291a2598bbefa0029",
  "source": "pragma solidity ^0.4.24;\nimport './MultiSigWallet.sol';\nimport './TokenERC20.sol';\n\ncontract Crowdsale {\n    address public multisigContractAddress; //   \n    address public owner; //  \n    uint public amountTokensForSale; //   \n    uint public amountOfSoldTokens; //   \n    uint public amountTokensForOwners; //     ICO.      ICO\n    uint public countOfFirstBuyers; //   ,     \n    uint public limitOfFirstBuyers; //    ,     \n    uint public deadline; //   ICO\n    uint public startICO; //   ICO\n    uint public startICOPlus2Days; //   ICO + 2 \n    uint public price; //     wei\n    TokenERC20 public tokenReward; // ,    ICO\n    MultiSigWallet public multisigContract; //  Multisig\n    mapping(address => uint256) public balanceOf; //     \n    mapping(address => uint256) public balanceOfBonusFirstBuyers;\n    mapping(address => uint256) public balanceOfTokenBonus; // total balance of bonus tokens\n    mapping(address => uint256) public balanceOfTokenBuyed; // total balance of buyed tokens\n    mapping(address => bool) public owners;\n    mapping(address => bool) public ownerGetTokens;\n    bool isFirstOwnerGetRestTokens; //    ICO        3\n    bool public isInit;\n    bool isSetTokenReward;\n    bool isSetMultisig;\n    \n    event FundTransfer(address backer, uint256 amount, bool isContribution);\n    \n    constructor() public {\n        owner = msg.sender;\n        \n        //    ICO\n        owners[0x896ab7b50d7bce2961072fef0a7225376e88ba7e] = true; // \n        owners[0x94bb857c3a550130120b5bfc1b7de3d478104705] = true; // \n        owners[0x42cf7f102aeb2d387c083548990e3bcc03d33d12] = true; // \n    }\n    \n    modifier onlyOwner() {\n        require(msg.sender == owner, \"Only owner of contract can call this\");\n        _;\n    }\n    \n    function setTokenUsedAsReward(address _addressOfTokenUsedAsReward) public onlyOwner {\n        require(!isSetTokenReward, \"Token reward contract has already set\");\n            \n        tokenReward = TokenERC20(_addressOfTokenUsedAsReward);\n        isSetTokenReward = true;\n    }\n    \n    function setMultisig(address _multisigAddress) public onlyOwner {\n        require(!isSetMultisig, \"Multisig contract has already set\");\n            \n        multisigContractAddress = _multisigAddress;\n        multisigContract = MultiSigWallet(multisigContractAddress);\n        isSetMultisig = true;\n    }\n    \n    function init() public onlyOwner {\n        require(!isInit, \"Crowdsale contract already init\");\n        require(isSetTokenReward, \"Token isn't set\");\n        require(isSetMultisig, \"Multisig isn't set\");\n        uint256 totalSupply = tokenReward.totalSupply();\n        require(totalSupply > 0, \"Supply tokens is not done yet\");\n        \n        isInit = true;\n        startICO = now;\n        startICOPlus2Days = startICO + 2 days;\n        deadline = startICO + 7 days;\n        price = 250000000000000000; //   wei = 0.25ETH \n        amountTokensForSale = totalSupply * 40 / 100; //        crowdsale\n        amountTokensForOwners = totalSupply - amountTokensForSale; //       ICO   \n        limitOfFirstBuyers = 5; //  -  \n    }\n    \n    function distributeTokensAmongOwners() public {\n        //        ICO\n        bool isOwnerOfICO = owners[msg.sender];\n        bool isOwnerGetTokens = ownerGetTokens[msg.sender];\n        require(isOwnerOfICO, \"Only owner of ICO can call this\");\n        require(!isOwnerGetTokens, \"Owner has already get tokens\");\n        require(isIcoEnd(), \"ICO isn't ended\");\n        require(!isIcoFail(), \"ICO is failed\");\n\n        ownerGetTokens[msg.sender] = true;\n\n        //      ICO.      3   ICO,   .\n        uint amountForOneOwner = amountTokensForOwners / 3;\n        if (!isFirstOwnerGetRestTokens) {\n            //    ICO       3,     \n            isFirstOwnerGetRestTokens = true;\n            tokenReward.transfer(msg.sender, amountForOneOwner + amountTokensForOwners % 3);\n        } else {\n            tokenReward.transfer(msg.sender, amountForOneOwner);\n        }\n    }\n    \n    function isIcoEnd() public view returns(bool) {\n        return isInit && (now > deadline || amountOfSoldTokens >= amountTokensForSale);\n    }\n    \n    function isIcoFail() public view returns(bool) {\n        return isIcoEnd() && amountOfSoldTokens < amountTokensForSale;\n    }\n\n    /**\n     *   -       \n     *   :\n     * -payable()    \n     * - js          \n     *\n     * @param  _wei_amount :  wei()  \n     * @param  _pre_calc :    \n     * @return _token_count -      \n     * @return _wei_change -   wei()\n     */\n    function calcTokenAmount(uint256 _wei_amount, bool _pre_calc)\n    public view returns (uint256 token_count_buyed, uint256 token_count_bonus, uint256 _wei_change, uint256 bonuses){\n\n        require(isInit, \"Crowdsale contract must be init\");\n\n        uint256 newPrice = price;\n        bool reachedLimit = false;\n        uint256 max_allowed = amountTokensForSale - amountOfSoldTokens;\n        uint256 tokenExistsLeftWithoutBonus;\n        uint256 fixTotal;\n        // for bonus3\n\n        // BONUS 1 //-  ,      2      10%\n        if ((now < startICOPlus2Days) && !_pre_calc) {\n            //          \n            newPrice = newPrice * 9 / 10;\n            bonuses += 100;\n        }\n\n        if(_wei_amount < newPrice){ //        \n            return (0, 0, _wei_amount, 0);\n        }\n\n        token_count_buyed = _wei_amount / newPrice;\n        if (token_count_buyed >  max_allowed) {// if reached limit\n            reachedLimit = true;\n            token_count_buyed = max_allowed;\n        }\n\n        // BONUS 2 //-  5   20%      .\n        uint256 bonus2;\n        if (balanceOf[msg.sender] == 0) {\n            // new buyer\n            if ((countOfFirstBuyers < limitOfFirstBuyers) && !_pre_calc) {\n                bonus2 = calcBonus2(token_count_buyed);\n                if (token_count_buyed + bonus2 > max_allowed) {// recalc\n                    fixTotal = token_count_buyed + bonus2 - max_allowed;\n                    (bonus2, token_count_buyed) = fixBonus2(fixTotal, bonus2, token_count_buyed);\n                }\n                bonuses += 20;\n            }\n        } else {\n            tokenExistsLeftWithoutBonus = balanceOfTokenBuyed[msg.sender] % 100;\n            //for bonus3\n        }\n\n        // end BONUS 2\n\n        // BONUS 3 //-          100  .\n        //    2       \n        uint256 bonus3 = calcBonus3(tokenExistsLeftWithoutBonus, token_count_buyed);\n        if (token_count_buyed + bonus2 + bonus3 > max_allowed) {\n            // if reached limit\n            fixTotal = token_count_buyed + bonus2 + bonus3 - max_allowed;\n            (bonus2, token_count_buyed) = fixBonus2(fixTotal, bonus2, token_count_buyed);\n            bonus3 = calcBonus3(tokenExistsLeftWithoutBonus, token_count_buyed);\n        }\n        if (bonus3 > 0) {\n            bonuses += 3;\n        }\n        // end BONUS 3\n        token_count_bonus = bonus2 + bonus3;\n\n        _wei_change = _wei_amount - (token_count_buyed * newPrice);\n        return (token_count_buyed, token_count_bonus, _wei_change, bonuses);\n    }\n\n    function calcBonus2(uint256 buyed) private pure returns (uint256){\n        return buyed / 5;\n    }\n\n    function fixBonus2(uint256 fixTotal, uint256 bonus, uint256 buyed) private pure returns (uint256 bonusFixed, uint256 buyedFixed){\n        if (fixTotal > 0) {// recalc\n            uint256 bonusFix = calcBonus2(fixTotal);\n            bonusFixed = bonus - bonusFix;\n            buyedFixed = buyed - fixTotal;\n            return (bonusFixed, buyedFixed);\n        }\n        return (bonus, buyed);\n    }\n\n    function calcBonus3(uint256 buyedWithoutBonus, uint256 buyed) private pure returns (uint256 bonus3){\n        return (buyedWithoutBonus + buyed) / 100;\n    }\n\n    function() payable public {\n        invest();\n    }\n\n    function invest() payable public {\n        require(!isIcoEnd(), \"You can't invest because ICO is ended\"); //  ICO\n        require(msg.value > 0, \"You can't invest because value is 0\");  //  ?\n        uint256 buyer_wei = msg.value;             //    \n        uint256 actually_wei;                      //    \n        uint256 token_count;                    //   \n        uint256 token_count_bonus;\n        uint256 wei_change;                     //         \n        (token_count, token_count_bonus, wei_change, ) = calcTokenAmount(buyer_wei, false); //      \n\n        require(token_count > 0, \"You can't invest because wei_amount less than price of one token\");\n\n        balanceOfTokenBonus[msg.sender] += token_count_bonus;\n        balanceOfTokenBuyed[msg.sender] += token_count;\n        token_count+=token_count_bonus;\n        if ((countOfFirstBuyers < limitOfFirstBuyers) && (balanceOf[msg.sender] == 0)) {\n            countOfFirstBuyers++;\n        }\n\n        actually_wei = buyer_wei - wei_change;\n\n        amountOfSoldTokens += token_count;             //    \n        balanceOf[msg.sender] += actually_wei;         //      \n        tokenReward.transfer(msg.sender, token_count); //      \n        emit FundTransfer (msg.sender, actually_wei, true);\n\n        multisigContractAddress.transfer(actually_wei); //     MultiSig\n\n        if (wei_change != 0) {\n            msg.sender.transfer(wei_change);    //   \n        }\n    }\n\n    function refund() public {\n        uint valueToRefund = balanceOf[msg.sender]; // Sum for refund to investor\n        require(isIcoFail(), \"ICO isn't failed\");\n        require(valueToRefund != 0, \"Balance is 0\");\n\n        balanceOf[msg.sender] = 0;\n\n        multisigContract.getCoinsAfterNegativeIco(msg.sender, valueToRefund); //     c multisig-\n        emit FundTransfer(msg.sender, valueToRefund, false);\n    }\n\n}\n\n",
  "sourcePath": "/home/kostiantyn/Projects/hashlottery2/smart_contracts/contracts/Crowdsale.sol",
  "compiler": {
    "name": "solc",
    "version": "0.4.24+commit.e67f0147.Emscripten.clang"
  },
  "schemaVersion": "2.0.1",
  "updatedAt": "2018-11-17T11:39:16.598Z"
}