{
  "contractName": "Kassa",
  "abi": [
    {
      "constant": true,
      "inputs": [
        {
          "name": "",
          "type": "uint256"
        }
      ],
      "name": "fullyDistributedPrize",
      "outputs": [
        {
          "name": "",
          "type": "bool"
        }
      ],
      "payable": false,
      "stateMutability": "view",
      "type": "function"
    },
    {
      "constant": true,
      "inputs": [
        {
          "name": "",
          "type": "uint256"
        }
      ],
      "name": "prizeDistributionProgress",
      "outputs": [
        {
          "name": "",
          "type": "uint256"
        }
      ],
      "payable": false,
      "stateMutability": "view",
      "type": "function"
    },
    {
      "constant": true,
      "inputs": [],
      "name": "initComplete",
      "outputs": [
        {
          "name": "",
          "type": "bool"
        }
      ],
      "payable": false,
      "stateMutability": "view",
      "type": "function"
    },
    {
      "constant": true,
      "inputs": [
        {
          "name": "",
          "type": "uint256"
        }
      ],
      "name": "moneyForEachWinner",
      "outputs": [
        {
          "name": "",
          "type": "uint256"
        }
      ],
      "payable": false,
      "stateMutability": "view",
      "type": "function"
    },
    {
      "constant": true,
      "inputs": [
        {
          "name": "",
          "type": "uint256"
        },
        {
          "name": "",
          "type": "address"
        }
      ],
      "name": "winnersListIndex",
      "outputs": [
        {
          "name": "",
          "type": "uint256"
        }
      ],
      "payable": false,
      "stateMutability": "view",
      "type": "function"
    },
    {
      "constant": true,
      "inputs": [
        {
          "name": "",
          "type": "uint256"
        }
      ],
      "name": "winnersCount",
      "outputs": [
        {
          "name": "",
          "type": "uint256"
        }
      ],
      "payable": false,
      "stateMutability": "view",
      "type": "function"
    },
    {
      "constant": true,
      "inputs": [],
      "name": "token712Address",
      "outputs": [
        {
          "name": "",
          "type": "address"
        }
      ],
      "payable": false,
      "stateMutability": "view",
      "type": "function"
    },
    {
      "constant": true,
      "inputs": [],
      "name": "owner",
      "outputs": [
        {
          "name": "",
          "type": "address"
        }
      ],
      "payable": false,
      "stateMutability": "view",
      "type": "function"
    },
    {
      "constant": true,
      "inputs": [
        {
          "name": "",
          "type": "uint256"
        },
        {
          "name": "",
          "type": "uint256"
        }
      ],
      "name": "winnersList",
      "outputs": [
        {
          "name": "",
          "type": "address"
        }
      ],
      "payable": false,
      "stateMutability": "view",
      "type": "function"
    },
    {
      "constant": true,
      "inputs": [
        {
          "name": "",
          "type": "uint256"
        },
        {
          "name": "",
          "type": "address"
        }
      ],
      "name": "winnersListExists",
      "outputs": [
        {
          "name": "",
          "type": "bool"
        }
      ],
      "payable": false,
      "stateMutability": "view",
      "type": "function"
    },
    {
      "constant": true,
      "inputs": [
        {
          "name": "",
          "type": "uint256"
        }
      ],
      "name": "poolSizes",
      "outputs": [
        {
          "name": "",
          "type": "uint256"
        }
      ],
      "payable": false,
      "stateMutability": "view",
      "type": "function"
    },
    {
      "constant": true,
      "inputs": [
        {
          "name": "",
          "type": "uint256"
        },
        {
          "name": "",
          "type": "address"
        }
      ],
      "name": "isGivenShare",
      "outputs": [
        {
          "name": "",
          "type": "bool"
        }
      ],
      "payable": false,
      "stateMutability": "view",
      "type": "function"
    },
    {
      "constant": true,
      "inputs": [
        {
          "name": "",
          "type": "address"
        }
      ],
      "name": "winnersMoney",
      "outputs": [
        {
          "name": "",
          "type": "uint256"
        }
      ],
      "payable": false,
      "stateMutability": "view",
      "type": "function"
    },
    {
      "constant": true,
      "inputs": [],
      "name": "drawAddress",
      "outputs": [
        {
          "name": "",
          "type": "address"
        }
      ],
      "payable": false,
      "stateMutability": "view",
      "type": "function"
    },
    {
      "constant": true,
      "inputs": [],
      "name": "prizePoolAddress",
      "outputs": [
        {
          "name": "",
          "type": "address"
        }
      ],
      "payable": false,
      "stateMutability": "view",
      "type": "function"
    },
    {
      "inputs": [],
      "payable": false,
      "stateMutability": "nonpayable",
      "type": "constructor"
    },
    {
      "anonymous": false,
      "inputs": [
        {
          "indexed": false,
          "name": "ticketNumber",
          "type": "uint256"
        }
      ],
      "name": "RequestApproved",
      "type": "event"
    },
    {
      "anonymous": false,
      "inputs": [
        {
          "indexed": true,
          "name": "currentDrawId",
          "type": "uint256"
        },
        {
          "indexed": false,
          "name": "fromIndex",
          "type": "uint256"
        },
        {
          "indexed": false,
          "name": "count",
          "type": "uint256"
        },
        {
          "indexed": false,
          "name": "needMoreShoot",
          "type": "bool"
        }
      ],
      "name": "DistributionOfWithdraws",
      "type": "event"
    },
    {
      "anonymous": false,
      "inputs": [
        {
          "indexed": true,
          "name": "winner",
          "type": "address"
        },
        {
          "indexed": false,
          "name": "moneyValue",
          "type": "uint256"
        }
      ],
      "name": "TransferredPrize",
      "type": "event"
    },
    {
      "anonymous": false,
      "inputs": [
        {
          "indexed": false,
          "name": "ticketNumber",
          "type": "uint256"
        }
      ],
      "name": "TicketPaid",
      "type": "event"
    },
    {
      "constant": false,
      "inputs": [
        {
          "name": "_address",
          "type": "address"
        }
      ],
      "name": "setPrizePoolAddress",
      "outputs": [],
      "payable": false,
      "stateMutability": "nonpayable",
      "type": "function"
    },
    {
      "constant": false,
      "inputs": [
        {
          "name": "_address",
          "type": "address"
        }
      ],
      "name": "setDrawAddress",
      "outputs": [],
      "payable": false,
      "stateMutability": "nonpayable",
      "type": "function"
    },
    {
      "constant": false,
      "inputs": [
        {
          "name": "_address",
          "type": "address"
        }
      ],
      "name": "setToken712Address",
      "outputs": [],
      "payable": false,
      "stateMutability": "nonpayable",
      "type": "function"
    },
    {
      "constant": false,
      "inputs": [],
      "name": "checkAndSetInitComplete",
      "outputs": [],
      "payable": false,
      "stateMutability": "nonpayable",
      "type": "function"
    },
    {
      "constant": false,
      "inputs": [
        {
          "name": "ticketNumber",
          "type": "uint256"
        },
        {
          "name": "numbers",
          "type": "uint8[]"
        },
        {
          "name": "salt",
          "type": "uint256"
        }
      ],
      "name": "addNewRequest",
      "outputs": [],
      "payable": false,
      "stateMutability": "nonpayable",
      "type": "function"
    },
    {
      "constant": false,
      "inputs": [
        {
          "name": "fromIndex",
          "type": "uint256"
        },
        {
          "name": "count",
          "type": "uint256"
        }
      ],
      "name": "startWithdraws",
      "outputs": [],
      "payable": false,
      "stateMutability": "nonpayable",
      "type": "function"
    },
    {
      "constant": true,
      "inputs": [
        {
          "name": "number",
          "type": "uint256"
        },
        {
          "name": "salt",
          "type": "uint256"
        }
      ],
      "name": "hashVal",
      "outputs": [
        {
          "name": "",
          "type": "bytes32"
        }
      ],
      "payable": false,
      "stateMutability": "pure",
      "type": "function"
    },
    {
      "constant": false,
      "inputs": [
        {
          "name": "ticketNumber",
          "type": "uint256"
        }
      ],
      "name": "withdrawTicketPrice",
      "outputs": [],
      "payable": false,
      "stateMutability": "nonpayable",
      "type": "function"
    }
  ],
  "bytecode": "0x60806040526000600e60006101000a81548160ff02191690831515021790555034801561002b57600080fd5b50336000806101000a81548173ffffffffffffffffffffffffffffffffffffffff021916908373ffffffffffffffffffffffffffffffffffffffff1602179055506139608061007b6000396000f300608060405260043610610133576000357c0100000000000000000000000000000000000000000000000000000000900463ffffffff1680630112c367146101385780631e1cf89f1461017d5780631feb945c146101be5780631ff9c668146101ed578063200efddd146102305780633a0702d8146102715780636c2aa793146102d25780637677d7ec146103135780638da5cb5b1461036a578063985b682b146103c15780639fb23f3314610438578063a3c2d4881461049d578063ac8a86f5146104de578063b8f46a1614610521578063c6f491261461059b578063cc6c1dc7146105b2578063cdc2f97314610617578063dea6e0fe14610644578063e1817a7f14610697578063e97b1c4f146106ee578063eb04c61814610745578063fa6282d314610788578063ff31e930146107bf575b600080fd5b34801561014457600080fd5b5061016360048036038101908080359060200190929190505050610816565b604051808215151515815260200191505060405180910390f35b34801561018957600080fd5b506101a860048036038101908080359060200190929190505050610836565b6040518082815260200191505060405180910390f35b3480156101ca57600080fd5b506101d361084e565b604051808215151515815260200191505060405180910390f35b3480156101f957600080fd5b5061022e600480360381019080803573ffffffffffffffffffffffffffffffffffffffff169060200190929190505050610861565b005b34801561023c57600080fd5b5061025b60048036038101908080359060200190929190505050610a5d565b6040518082815260200191505060405180910390f35b34801561027d57600080fd5b506102bc60048036038101908080359060200190929190803573ffffffffffffffffffffffffffffffffffffffff169060200190929190505050610a75565b6040518082815260200191505060405180910390f35b3480156102de57600080fd5b506102fd60048036038101908080359060200190929190505050610a9a565b6040518082815260200191505060405180910390f35b34801561031f57600080fd5b50610328610ab2565b604051808273ffffffffffffffffffffffffffffffffffffffff1673ffffffffffffffffffffffffffffffffffffffff16815260200191505060405180910390f35b34801561037657600080fd5b5061037f610ad8565b604051808273ffffffffffffffffffffffffffffffffffffffff1673ffffffffffffffffffffffffffffffffffffffff16815260200191505060405180910390f35b3480156103cd57600080fd5b506103f66004803603810190808035906020019092919080359060200190929190505050610afd565b604051808273ffffffffffffffffffffffffffffffffffffffff1673ffffffffffffffffffffffffffffffffffffffff16815260200191505060405180910390f35b34801561044457600080fd5b5061048360048036038101908080359060200190929190803573ffffffffffffffffffffffffffffffffffffffff169060200190929190505050610b4a565b604051808215151515815260200191505060405180910390f35b3480156104a957600080fd5b506104c860048036038101908080359060200190929190505050610b79565b6040518082815260200191505060405180910390f35b3480156104ea57600080fd5b5061051f600480360381019080803573ffffffffffffffffffffffffffffffffffffffff169060200190929190505050610b91565b005b34801561052d57600080fd5b50610599600480360381019080803590602001909291908035906020019082018035906020019080806020026020016040519081016040528093929190818152602001838360200280828437820191505050505050919291929080359060200190929190505050610db3565b005b3480156105a757600080fd5b506105b0611e93565b005b3480156105be57600080fd5b506105fd60048036038101908080359060200190929190803573ffffffffffffffffffffffffffffffffffffffff169060200190929190505050611fbf565b604051808215151515815260200191505060405180910390f35b34801561062357600080fd5b5061064260048036038101908080359060200190929190505050611fee565b005b34801561065057600080fd5b506106796004803603810190808035906020019092919080359060200190929190505050612540565b60405180826000191660001916815260200191505060405180910390f35b3480156106a357600080fd5b506106d8600480360381019080803573ffffffffffffffffffffffffffffffffffffffff169060200190929190505050612568565b6040518082815260200191505060405180910390f35b3480156106fa57600080fd5b50610703612580565b604051808273ffffffffffffffffffffffffffffffffffffffff1673ffffffffffffffffffffffffffffffffffffffff16815260200191505060405180910390f35b34801561075157600080fd5b50610786600480360381019080803573ffffffffffffffffffffffffffffffffffffffff1690602001909291905050506125a6565b005b34801561079457600080fd5b506107bd60048036038101908080359060200190929190803590602001909291905050506127a2565b005b3480156107cb57600080fd5b506107d4612f95565b604051808273ffffffffffffffffffffffffffffffffffffffff1673ffffffffffffffffffffffffffffffffffffffff16815260200191505060405180910390f35b600b6020528060005260406000206000915054906101000a900460ff1681565b600c6020528060005260406000206000915090505481565b600e60009054906101000a900460ff1681565b6000809054906101000a900473ffffffffffffffffffffffffffffffffffffffff1673ffffffffffffffffffffffffffffffffffffffff163373ffffffffffffffffffffffffffffffffffffffff1614151561094b576040517f08c379a00000000000000000000000000000000000000000000000000000000081526004018080602001828103825260248152602001807f4f6e6c79206f776e6572206f6620636f6e74726163742063616e2063616c6c2081526020017f746869730000000000000000000000000000000000000000000000000000000081525060400191505060405180910390fd5b600073ffffffffffffffffffffffffffffffffffffffff16600360009054906101000a900473ffffffffffffffffffffffffffffffffffffffff1673ffffffffffffffffffffffffffffffffffffffff16141515610a11576040517f08c379a000000000000000000000000000000000000000000000000000000000815260040180806020018281038252601f8152602001807f746f6b656e373132416464726573732068617320616c7265616479207365740081525060200191505060405180910390fd5b80600360006101000a81548173ffffffffffffffffffffffffffffffffffffffff021916908373ffffffffffffffffffffffffffffffffffffffff160217905550610a5a611e93565b50565b60066020528060005260406000206000915090505481565b6009602052816000526040600020602052806000526040600020600091509150505481565b60056020528060005260406000206000915090505481565b600360009054906101000a900473ffffffffffffffffffffffffffffffffffffffff1681565b6000809054906101000a900473ffffffffffffffffffffffffffffffffffffffff1681565b600760205281600052604060002081815481101515610b1857fe5b906000526020600020016000915091509054906101000a900473ffffffffffffffffffffffffffffffffffffffff1681565b60086020528160005260406000206020528060005260406000206000915091509054906101000a900460ff1681565b600d6020528060005260406000206000915090505481565b6000809054906101000a900473ffffffffffffffffffffffffffffffffffffffff1673ffffffffffffffffffffffffffffffffffffffff163373ffffffffffffffffffffffffffffffffffffffff16141515610c7b576040517f08c379a00000000000000000000000000000000000000000000000000000000081526004018080602001828103825260248152602001807f4f6e6c79206f776e6572206f6620636f6e74726163742063616e2063616c6c2081526020017f746869730000000000000000000000000000000000000000000000000000000081525060400191505060405180910390fd5b600073ffffffffffffffffffffffffffffffffffffffff16600260009054906101000a900473ffffffffffffffffffffffffffffffffffffffff1673ffffffffffffffffffffffffffffffffffffffff16141515610d67576040517f08c379a00000000000000000000000000000000000000000000000000000000081526004018080602001828103825260248152602001807f4c6f74746572794472617720636f6e74726163742068617320616c726561647981526020017f207365740000000000000000000000000000000000000000000000000000000081525060400191505060405180910390fd5b80600260006101000a81548173ffffffffffffffffffffffffffffffffffffffff021916908373ffffffffffffffffffffffffffffffffffffffff160217905550610db0611e93565b50565b6000610dbd613911565b60008060006060600e60009054906101000a900460ff161515610e6e576040517f08c379a000000000000000000000000000000000000000000000000000000000815260040180806020018281038252602f8152602001807f496e6974206973206e6f7420636f6d706c657465642c20706c6561736520636f81526020017f6e74616374207468652061646d696e000000000000000000000000000000000081525060400191505060405180910390fd5b600260009054906101000a900473ffffffffffffffffffffffffffffffffffffffff1673ffffffffffffffffffffffffffffffffffffffff1663186364ac6040518163ffffffff167c0100000000000000000000000000000000000000000000000000000000028152600401602060405180830381600087803b158015610ef457600080fd5b505af1158015610f08573d6000803e3d6000fd5b505050506040513d6020811015610f1e57600080fd5b81019080805190602001909291905050501515610fc9576040517f08c379a000000000000000000000000000000000000000000000000000000000815260040180806020018281038252602a8152602001807f596f75206164642077696e6e696e67207265717565737420647572696e67207481526020017f68697320706572696f640000000000000000000000000000000000000000000081525060400191505060405180910390fd5b600360009054906101000a900473ffffffffffffffffffffffffffffffffffffffff1673ffffffffffffffffffffffffffffffffffffffff1662923f9e8a6040518263ffffffff167c010000000000000000000000000000000000000000000000000000000002815260040180828152602001915050602060405180830381600087803b15801561105957600080fd5b505af115801561106d573d6000803e3d6000fd5b505050506040513d602081101561108357600080fd5b81019080805190602001909291905050501515611108576040517f08c379a000000000000000000000000000000000000000000000000000000000815260040180806020018281038252601b8152602001807f54686973207469636b657420646f6573206e6f7420657869737473000000000081525060200191505060405180910390fd5b3373ffffffffffffffffffffffffffffffffffffffff16600360009054906101000a900473ffffffffffffffffffffffffffffffffffffffff1673ffffffffffffffffffffffffffffffffffffffff16636352211e8b6040518263ffffffff167c010000000000000000000000000000000000000000000000000000000002815260040180828152602001915050602060405180830381600087803b1580156111b057600080fd5b505af11580156111c4573d6000803e3d6000fd5b505050506040513d60208110156111da57600080fd5b810190808051906020019092919050505073ffffffffffffffffffffffffffffffffffffffff1614151561129c576040517f08c379a00000000000000000000000000000000000000000000000000000000081526004018080602001828103825260248152602001807f596f7520617265206e6f7420746865206f776e6572206f66207468697320746981526020017f636b65740000000000000000000000000000000000000000000000000000000081525060400191505060405180910390fd5b600360009054906101000a900473ffffffffffffffffffffffffffffffffffffffff1673ffffffffffffffffffffffffffffffffffffffff1663c50f5e218a6040518263ffffffff167c010000000000000000000000000000000000000000000000000000000002815260040180828152602001915050602060405180830381600087803b15801561132d57600080fd5b505af1158015611341573d6000803e3d6000fd5b505050506040513d602081101561135757600080fd5b81019080805190602001909291905050509550600360009054906101000a900473ffffffffffffffffffffffffffffffffffffffff1673ffffffffffffffffffffffffffffffffffffffff1663d341eb318a6040518263ffffffff167c010000000000000000000000000000000000000000000000000000000002815260040180828152602001915050606060405180830381600087803b1580156113fb57600080fd5b505af115801561140f573d6000803e3d6000fd5b505050506040513d601f19601f82011682018060405250606081101561143457600080fd5b81019080919050509450600260009054906101000a900473ffffffffffffffffffffffffffffffffffffffff1673ffffffffffffffffffffffffffffffffffffffff1663bca78fab6040518163ffffffff167c0100000000000000000000000000000000000000000000000000000000028152600401602060405180830381600087803b1580156114c457600080fd5b505af11580156114d8573d6000803e3d6000fd5b505050506040513d60208110156114ee57600080fd5b81019080805190602001909291905050508614151561159b576040517f08c379a00000000000000000000000000000000000000000000000000000000081526004018080602001828103825260248152602001807f54686973207469636b6574206973206e6f742066726f6d2063757272656e742081526020017f447261770000000000000000000000000000000000000000000000000000000081525060400191505060405180910390fd5b6003885114151561163a576040517f08c379a00000000000000000000000000000000000000000000000000000000081526004018080602001828103825260228152602001807f436f756e74206f662077696e6e696e67206e756d62657273206d75737420626581526020017f203300000000000000000000000000000000000000000000000000000000000081525060400191505060405180910390fd5b600093505b6001885103841115156117155787600181518110151561165b57fe5b9060200190602002015160ff166001111580156116945750606388600181518110151561168457fe5b9060200190602002015160ff1611155b1515611708576040517f08c379a000000000000000000000000000000000000000000000000000000000815260040180806020018281038252601e8152602001807f4e756d62657273206d75737420626520696e20312e2e39392072616e6765000081525060200191505060405180910390fd5b838060010194505061163f565b87600181518110151561172457fe5b9060200190602002015160ff1688600081518110151561174057fe5b9060200190602002015160ff1610801561178f575087600281518110151561176457fe5b9060200190602002015160ff1688600181518110151561178057fe5b9060200190602002015160ff16105b1515611803576040517f08c379a000000000000000000000000000000000000000000000000000000000815260040180806020018281038252601a8152602001807f4e756d62657273206d75737420626520736f727465642041534300000000000081525060200191505060405180910390fd5b600092505b87518360ff1610156119015761183b888460ff1681518110151561182857fe5b9060200190602002015160ff1688612540565b60001916858460ff1660038110151561185057fe5b6020020151600019161415156118f4576040517f08c379a00000000000000000000000000000000000000000000000000000000081526004018080602001828103825260288152602001807f596f7572206e756d6265727320646f6573206e6f74206d61746368657320736181526020017f766564206861736800000000000000000000000000000000000000000000000081525060400191505060405180910390fd5b8280600101935050611808565b600260009054906101000a900473ffffffffffffffffffffffffffffffffffffffff1673ffffffffffffffffffffffffffffffffffffffff1663bca78fab6040518163ffffffff167c0100000000000000000000000000000000000000000000000000000000028152600401602060405180830381600087803b15801561198757600080fd5b505af115801561199b573d6000803e3d6000fd5b505050506040513d60208110156119b157600080fd5b81019080805190602001909291905050509150600260009054906101000a900473ffffffffffffffffffffffffffffffffffffffff1673ffffffffffffffffffffffffffffffffffffffff1663cd1bb51e836040518263ffffffff167c010000000000000000000000000000000000000000000000000000000002815260040180828152602001915050600060405180830381600087803b158015611a5557600080fd5b505af1158015611a69573d6000803e3d6000fd5b505050506040513d6000823e3d601f19601f820116820180604052506020811015611a9357600080fd5b810190808051640100000000811115611aab57600080fd5b82810190506020810184811115611ac157600080fd5b8151856020820283011164010000000082111715611ade57600080fd5b50509291905050509050876000815181101515611af757fe5b9060200190602002015160ff16816000815181101515611b1357fe5b9060200190602002015160ff16148015611b625750876001815181101515611b3757fe5b9060200190602002015160ff16816001815181101515611b5357fe5b9060200190602002015160ff16145b8015611ba35750876002815181101515611b7857fe5b9060200190602002015160ff16816002815181101515611b9457fe5b9060200190602002015160ff16145b1515611c3d576040517f08c379a000000000000000000000000000000000000000000000000000000000815260040180806020018281038252602d8152602001807f596f7572206e756d6265727320646f6573206e6f74206d61746368657320776981526020017f6e6e696e67206e756d626572730000000000000000000000000000000000000081525060400191505060405180910390fd5b600760008781526020019081526020016000203390806001815401808255809150509060018203906000526020600020016000909192909190916101000a81548173ffffffffffffffffffffffffffffffffffffffff021916908373ffffffffffffffffffffffffffffffffffffffff1602179055505060016008600088815260200190815260200160002060003373ffffffffffffffffffffffffffffffffffffffff1673ffffffffffffffffffffffffffffffffffffffff16815260200190815260200160002060006101000a81548160ff02191690831515021790555060056000878152602001908152602001600020546009600088815260200190815260200160002060003373ffffffffffffffffffffffffffffffffffffffff1673ffffffffffffffffffffffffffffffffffffffff168152602001908152602001600020819055506005600087815260200190815260200160002060008154809291906001019190505550600360009054906101000a900473ffffffffffffffffffffffffffffffffffffffff1673ffffffffffffffffffffffffffffffffffffffff1663558a930b8a6040518263ffffffff167c010000000000000000000000000000000000000000000000000000000002815260040180828152602001915050600060405180830381600087803b158015611e3957600080fd5b505af1158015611e4d573d6000803e3d6000fd5b505050507fbecbbd7543b68baaaf7e9c3fd12e4719f1f506f4253abef4a6573d0adf3a73ed896040518082815260200191505060405180910390a1505050505050505050565b600073ffffffffffffffffffffffffffffffffffffffff16600260009054906101000a900473ffffffffffffffffffffffffffffffffffffffff1673ffffffffffffffffffffffffffffffffffffffff1614158015611f415750600073ffffffffffffffffffffffffffffffffffffffff16600360009054906101000a900473ffffffffffffffffffffffffffffffffffffffff1673ffffffffffffffffffffffffffffffffffffffff1614155b8015611f9c5750600073ffffffffffffffffffffffffffffffffffffffff16600160009054906101000a900473ffffffffffffffffffffffffffffffffffffffff1673ffffffffffffffffffffffffffffffffffffffff1614155b15611fbd576001600e60006101000a81548160ff0219169083151502179055505b565b600a6020528160005260406000206020528060005260406000206000915091509054906101000a900460ff1681565b600080600e60009054906101000a900460ff16151561209b576040517f08c379a000000000000000000000000000000000000000000000000000000000815260040180806020018281038252602f8152602001807f496e6974206973206e6f7420636f6d706c657465642c20706c6561736520636f81526020017f6e74616374207468652061646d696e000000000000000000000000000000000081525060400191505060405180910390fd5b600360009054906101000a900473ffffffffffffffffffffffffffffffffffffffff1673ffffffffffffffffffffffffffffffffffffffff1662923f9e846040518263ffffffff167c010000000000000000000000000000000000000000000000000000000002815260040180828152602001915050602060405180830381600087803b15801561212b57600080fd5b505af115801561213f573d6000803e3d6000fd5b505050506040513d602081101561215557600080fd5b810190808051906020019092919050505015156121da576040517f08c379a000000000000000000000000000000000000000000000000000000000815260040180806020018281038252601b8152602001807f54686973207469636b657420646f6573206e6f7420657869737473000000000081525060200191505060405180910390fd5b3373ffffffffffffffffffffffffffffffffffffffff16600360009054906101000a900473ffffffffffffffffffffffffffffffffffffffff1673ffffffffffffffffffffffffffffffffffffffff16636352211e856040518263ffffffff167c010000000000000000000000000000000000000000000000000000000002815260040180828152602001915050602060405180830381600087803b15801561228257600080fd5b505af1158015612296573d6000803e3d6000fd5b505050506040513d60208110156122ac57600080fd5b810190808051906020019092919050505073ffffffffffffffffffffffffffffffffffffffff1614151561236e576040517f08c379a00000000000000000000000000000000000000000000000000000000081526004018080602001828103825260248152602001807f596f7520617265206e6f7420746865206f776e6572206f66207468697320746981526020017f636b65740000000000000000000000000000000000000000000000000000000081525060400191505060405180910390fd5b600360009054906101000a900473ffffffffffffffffffffffffffffffffffffffff1673ffffffffffffffffffffffffffffffffffffffff16632924d25b846040518263ffffffff167c010000000000000000000000000000000000000000000000000000000002815260040180828152602001915050600060405180830381600087803b1580156123ff57600080fd5b505af1158015612413573d6000803e3d6000fd5b50505050600360009054906101000a900473ffffffffffffffffffffffffffffffffffffffff1673ffffffffffffffffffffffffffffffffffffffff1663c50f5e21846040518263ffffffff167c010000000000000000000000000000000000000000000000000000000002815260040180828152602001915050602060405180830381600087803b1580156124a857600080fd5b505af11580156124bc573d6000803e3d6000fd5b505050506040513d60208110156124d257600080fd5b810190808051906020019092919050505091506006600083815260200190815260200160002054905061250481612fbb565b7f0b72d8277c407d3219937c8a6d106e966510a0949706035c48cfd290d33aed8d836040518082815260200191505060405180910390a1505050565b6000828260405180838152602001828152602001925050506040518091039020905092915050565b60046020528060005260406000206000915090505481565b600260009054906101000a900473ffffffffffffffffffffffffffffffffffffffff1681565b6000809054906101000a900473ffffffffffffffffffffffffffffffffffffffff1673ffffffffffffffffffffffffffffffffffffffff163373ffffffffffffffffffffffffffffffffffffffff16141515612690576040517f08c379a00000000000000000000000000000000000000000000000000000000081526004018080602001828103825260248152602001807f4f6e6c79206f776e6572206f6620636f6e74726163742063616e2063616c6c2081526020017f746869730000000000000000000000000000000000000000000000000000000081525060400191505060405180910390fd5b600073ffffffffffffffffffffffffffffffffffffffff16600160009054906101000a900473ffffffffffffffffffffffffffffffffffffffff1673ffffffffffffffffffffffffffffffffffffffff16141515612756576040517f08c379a000000000000000000000000000000000000000000000000000000000815260040180806020018281038252601f8152602001807f7072697a65506f6f6c4164647265737320697320616c7265616479207365740081525060200191505060405180910390fd5b80600160006101000a81548173ffffffffffffffffffffffffffffffffffffffff021916908373ffffffffffffffffffffffffffffffffffffffff16021790555061279f611e93565b50565b600080600080600080600e60009054906101000a900460ff161515612855576040517f08c379a000000000000000000000000000000000000000000000000000000000815260040180806020018281038252602f8152602001807f496e6974206973206e6f7420636f6d706c657465642c20706c6561736520636f81526020017f6e74616374207468652061646d696e000000000000000000000000000000000081525060400191505060405180910390fd5b600260009054906101000a900473ffffffffffffffffffffffffffffffffffffffff1673ffffffffffffffffffffffffffffffffffffffff163373ffffffffffffffffffffffffffffffffffffffff1614151561291a576040517f08c379a00000000000000000000000000000000000000000000000000000000081526004018080602001828103825260208152602001807f4f6e6c79204472617720436f6e74726163742063616e2063616c6c207468697381525060200191505060405180910390fd5b600260009054906101000a900473ffffffffffffffffffffffffffffffffffffffff1673ffffffffffffffffffffffffffffffffffffffff1663bca78fab6040518163ffffffff167c0100000000000000000000000000000000000000000000000000000000028152600401602060405180830381600087803b1580156129a057600080fd5b505af11580156129b4573d6000803e3d6000fd5b505050506040513d60208110156129ca57600080fd5b81019080805190602001909291905050509550600b600087815260200190815260200160002060009054906101000a900460ff16151515612a99576040517f08c379a00000000000000000000000000000000000000000000000000000000081526004018080602001828103825260388152602001807f546865207072697a6520706f6f6c206f6620746869732064726177206973206181526020017f6c72656164792066756c6c79206469737472696275746564000000000000000081525060400191505060405180910390fd5b60056000878152602001908152602001600020549450600060066000888152602001908152602001600020541415612c8757600160009054906101000a900473ffffffffffffffffffffffffffffffffffffffff1673ffffffffffffffffffffffffffffffffffffffff1663c5929bc7866040518263ffffffff167c010000000000000000000000000000000000000000000000000000000002815260040180828152602001915050602060405180830381600087803b158015612b5c57600080fd5b505af1158015612b70573d6000803e3d6000fd5b505050506040513d6020811015612b8657600080fd5b81019080805190602001909291905050506006600088815260200190815260200160002081905550600160009054906101000a900473ffffffffffffffffffffffffffffffffffffffff1673ffffffffffffffffffffffffffffffffffffffff1663719ce73e6040518163ffffffff167c0100000000000000000000000000000000000000000000000000000000028152600401602060405180830381600087803b158015612c3457600080fd5b505af1158015612c48573d6000803e3d6000fd5b505050506040513d6020811015612c5e57600080fd5b8101908080519060200190929190505050600d6000888152602001908152602001600020819055505b6000851415612d0e576001600b600088815260200190815260200160002060006101000a81548160ff021916908315150217905550857f5a1254787bec464b5f7cad9e8a051e6114bfab87af6349b80d704f459330b0f7898960006040518084815260200183815260200182151515158152602001935050505060405180910390a2612f8b565b868801925060018503831115612d25576001850392505b8791505b8282111515612edd576007600087815260200190815260200160002082815481101515612d5257fe5b9060005260206000200160009054906101000a900473ffffffffffffffffffffffffffffffffffffffff169350600a600087815260200190815260200160002060008573ffffffffffffffffffffffffffffffffffffffff1673ffffffffffffffffffffffffffffffffffffffff16815260200190815260200160002060009054906101000a900460ff161515612ed0576006600087815260200190815260200160002054600460008673ffffffffffffffffffffffffffffffffffffffff1673ffffffffffffffffffffffffffffffffffffffff168152602001908152602001600020600082825401925050819055506001600a600088815260200190815260200160002060008673ffffffffffffffffffffffffffffffffffffffff1673ffffffffffffffffffffffffffffffffffffffff16815260200190815260200160002060006101000a81548160ff021916908315150217905550600c6000878152602001908152602001600020600081548092919060010191905055505b8180600101925050612d29565b84600c6000888152602001908152602001600020541415612f29576001600b600088815260200190815260200160002060006101000a81548160ff021916908315150217905550612f3e565b848789011015612f3c5760019050612f3d565b5b5b857f5a1254787bec464b5f7cad9e8a051e6114bfab87af6349b80d704f459330b0f78989846040518084815260200183815260200182151515158152602001935050505060405180910390a25b5050505050505050565b600160009054906101000a900473ffffffffffffffffffffffffffffffffffffffff1681565b600080600e60009054906101000a900460ff161515613068576040517f08c379a000000000000000000000000000000000000000000000000000000000815260040180806020018281038252602f8152602001807f496e6974206973206e6f7420636f6d706c657465642c20706c6561736520636f81526020017f6e74616374207468652061646d696e000000000000000000000000000000000081525060400191505060405180910390fd5b6000831115156130e0576040517f08c379a00000000000000000000000000000000000000000000000000000000081526004018080602001828103825260118152602001807f56616c7565206d757374206265203e203000000000000000000000000000000081525060200191505060405180910390fd5b82600460003373ffffffffffffffffffffffffffffffffffffffff1673ffffffffffffffffffffffffffffffffffffffff168152602001908152602001600020541015156132a55782600460003373ffffffffffffffffffffffffffffffffffffffff1673ffffffffffffffffffffffffffffffffffffffff16815260200190815260200160002060008282540392505081905550600160009054906101000a900473ffffffffffffffffffffffffffffffffffffffff1673ffffffffffffffffffffffffffffffffffffffff16634aa0236333856040518363ffffffff167c0100000000000000000000000000000000000000000000000000000000028152600401808373ffffffffffffffffffffffffffffffffffffffff1673ffffffffffffffffffffffffffffffffffffffff16815260200182815260200192505050600060405180830381600087803b15801561323a57600080fd5b505af115801561324e573d6000803e3d6000fd5b505050503373ffffffffffffffffffffffffffffffffffffffff167f1365df9f8ad4ebeb429beaf8e9f3dcf98df6d089f732adb3c8147eea6a700aa0846040518082815260200191505060405180910390a261390c565b600260009054906101000a900473ffffffffffffffffffffffffffffffffffffffff1673ffffffffffffffffffffffffffffffffffffffff1663bca78fab6040518163ffffffff167c0100000000000000000000000000000000000000000000000000000000028152600401602060405180830381600087803b15801561332b57600080fd5b505af115801561333f573d6000803e3d6000fd5b505050506040513d602081101561335557600080fd5b810190808051906020019092919050505091506008600083815260200190815260200160002060003373ffffffffffffffffffffffffffffffffffffffff1673ffffffffffffffffffffffffffffffffffffffff16815260200190815260200160002060009054906101000a900460ff16801561342d5750600a600083815260200190815260200160002060003373ffffffffffffffffffffffffffffffffffffffff1673ffffffffffffffffffffffffffffffffffffffff16815260200190815260200160002060009054906101000a900460ff16155b1561360857600260009054906101000a900473ffffffffffffffffffffffffffffffffffffffff1673ffffffffffffffffffffffffffffffffffffffff1663feff1a146040518163ffffffff167c0100000000000000000000000000000000000000000000000000000000028152600401602060405180830381600087803b1580156134b857600080fd5b505af11580156134cc573d6000803e3d6000fd5b505050506040513d60208110156134e257600080fd5b810190808051906020019092919050505015613607576009600083815260200190815260200160002060003373ffffffffffffffffffffffffffffffffffffffff1673ffffffffffffffffffffffffffffffffffffffff168152602001908152602001600020549050600260009054906101000a900473ffffffffffffffffffffffffffffffffffffffff1673ffffffffffffffffffffffffffffffffffffffff1663aec3dbdd826001600a6040518463ffffffff167c0100000000000000000000000000000000000000000000000000000000028152600401808481526020018381526020018281526020019350505050600060405180830381600087803b1580156135ee57600080fd5b505af1158015613602573d6000803e3d6000fd5b505050505b5b6000600460003373ffffffffffffffffffffffffffffffffffffffff1673ffffffffffffffffffffffffffffffffffffffff168152602001908152602001600020541115156136bf576040517f08c379a000000000000000000000000000000000000000000000000000000000815260040180806020018281038252601f8152602001807f596f7520646f6e2774206861766520616e79206d6f6e657920616d6f756e740081525060200191505060405180910390fd5b82600460003373ffffffffffffffffffffffffffffffffffffffff1673ffffffffffffffffffffffffffffffffffffffff16815260200190815260200160002054101561379257600460003373ffffffffffffffffffffffffffffffffffffffff1673ffffffffffffffffffffffffffffffffffffffff1681526020019081526020016000205492506000600460003373ffffffffffffffffffffffffffffffffffffffff1673ffffffffffffffffffffffffffffffffffffffff168152602001908152602001600020819055506137e0565b82600460003373ffffffffffffffffffffffffffffffffffffffff1673ffffffffffffffffffffffffffffffffffffffff168152602001908152602001600020600082825403925050819055505b600160009054906101000a900473ffffffffffffffffffffffffffffffffffffffff1673ffffffffffffffffffffffffffffffffffffffff16634aa0236333856040518363ffffffff167c0100000000000000000000000000000000000000000000000000000000028152600401808373ffffffffffffffffffffffffffffffffffffffff1673ffffffffffffffffffffffffffffffffffffffff16815260200182815260200192505050600060405180830381600087803b1580156138a557600080fd5b505af11580156138b9573d6000803e3d6000fd5b505050503373ffffffffffffffffffffffffffffffffffffffff167f1365df9f8ad4ebeb429beaf8e9f3dcf98df6d089f732adb3c8147eea6a700aa0846040518082815260200191505060405180910390a25b505050565b6060604051908101604052806003906020820280388339808201915050905050905600a165627a7a72305820c37b19945d83b2ab12e1e9e3bd3f9ee3c343e420dbadf21943df884fea0cafd40029",
  "source": "pragma solidity ^0.4.24;\n\nimport './Draw.sol';\nimport './PrizePool.sol';\nimport './TokenERC721.sol';\n\n\ncontract Kassa {\n\n    address public owner; //  \n\n    address public prizePoolAddress;\n    address public drawAddress;\n    address public token712Address;\n\n    mapping(address => uint) public winnersMoney;  // winnerAddress => money amount\n    mapping(uint => uint) public winnersCount; // drawId => countOfwinners\n    mapping(uint => uint) public moneyForEachWinner; // drawId => moneyForEachWinner\n    mapping(uint => address[]) public winnersList; // drawId => approvedWinners array        \n    mapping(uint => mapping(address => bool)) public winnersListExists; // drawId => [ winner address => bool]       \n    mapping(uint => mapping(address => uint)) public winnersListIndex; // drawId => [ winner address => uint] index of winner in the array\n    mapping(uint => mapping(address => bool)) public isGivenShare; // drawId => [ winner address => bool]      \n    mapping(uint => bool) public fullyDistributedPrize; // draw Id => completed prize distribution\n    mapping(uint => uint) public prizeDistributionProgress; // draw Id => count of winners with gives share\n\n    mapping(uint => uint) public poolSizes; // drawId => poolsize  -     \n   \n    bool public initComplete = false; //   \n\n    event RequestApproved(uint ticketNumber); //  \n    event DistributionOfWithdraws(uint indexed currentDrawId, uint fromIndex, uint count, bool needMoreShoot); //   \n    event TransferredPrize(address indexed winner, uint moneyValue); //  \n    event TicketPaid(uint ticketNumber); //     \n\n    constructor() public {\n        owner = msg.sender;\n    }\n\n    modifier onlyOwner() {\n        require(msg.sender == owner\n        , \"Only owner of contract can call this\"\n        );\n        _;\n    }\n\n    modifier onlyDraw() {\n        require(msg.sender == drawAddress\n        , \"Only Draw Contract can call this\"\n        );\n        _;\n    }\n\n    modifier inited() {\n        require(initComplete\n        , \"Init is not completed, please contact the admin\"\n        );\n        _;\n    }\n\n    function setPrizePoolAddress(address _address) public onlyOwner {\n        require(prizePoolAddress == address(0)\n        , \"prizePoolAddress is already set\"\n        );\n        prizePoolAddress = _address;\n\n        checkAndSetInitComplete();\n    }\n\n    function setDrawAddress(address _address) public onlyOwner {\n        require(drawAddress == address(0)\n        , \"LotteryDraw contract has already set\"\n        );\n        drawAddress = _address;\n\n        checkAndSetInitComplete();\n    }\n\n    function setToken712Address(address _address) public onlyOwner {\n        require(token712Address == address(0)\n        , \"token712Address has already set\"\n        );\n        token712Address = _address;\n\n        checkAndSetInitComplete();\n    }\n\n    function checkAndSetInitComplete() public {\n        if (drawAddress != address(0)\n        && token712Address != address(0)\n        && prizePoolAddress != address(0)\n        ) {\n            initComplete = true;\n        }\n    }\n\n    function addNewRequest(uint ticketNumber, uint8[] numbers, uint256 salt) public inited {\n        require(Draw(drawAddress).isAcceptRequestPeriod()\n        , \"You add winning request during this period\"\n        );\n        require(TokenERC721(token712Address).tokenExists(ticketNumber)\n        , 'This ticket does not exists'\n        );\n        require(TokenERC721(token712Address).ownerOf(ticketNumber) == msg.sender\n        , 'You are not the owner of this ticket'\n        );\n\n\n        uint ticketDrawId = TokenERC721(token712Address).getTicketDrawId(ticketNumber);\n        bytes32[3] memory combinationOfTicket = TokenERC721(token712Address).getTicketCombination(ticketNumber);\n\n        require(ticketDrawId == Draw(drawAddress).currentDrawId()\n        , 'This ticket is not from current Draw'\n        );\n\n        require(numbers.length == 3\n        , 'Count of winning numbers must be 3'\n        );\n\n        for (uint i = 0; i <= numbers.length - 1; i++) {\n            require(1 <= numbers[1] && numbers[1] <= 99\n            , 'Numbers must be in 1..99 range'\n            );\n        }\n\n        require(numbers[0] < numbers[1] && numbers[1] < numbers[2]\n        , 'Numbers must be sorted ASC'\n        );\n\n        for (uint8 index = 0; index < numbers.length; index++) {\n            require(combinationOfTicket[index] == hashVal(numbers[index], salt)\n            , 'Your numbers does not matches saved hash'\n            );\n        }\n\n        uint currentDrawId = Draw(drawAddress).currentDrawId();\n        uint8[] memory winning = Draw(drawAddress).getWinnersNumbers(currentDrawId);\n        require(winning[0] == numbers[0] && winning[1] == numbers[1] && winning[2] == numbers[2]\n        , 'Your numbers does not matches winning numbers'\n        );\n\n        winnersList[ticketDrawId].push(msg.sender);\n        winnersListExists[ticketDrawId][msg.sender] = true;\n        winnersListIndex[ticketDrawId][msg.sender] = winnersCount[ticketDrawId];\n        winnersCount[ticketDrawId]++;\n\n        TokenERC721(token712Address).setTicketStatusWinning(ticketNumber);\n\n        emit RequestApproved(ticketNumber);\n    }\n\n    //      // cron > draw > kassa\n    function startWithdraws(uint fromIndex, uint count) public inited onlyDraw {\n        uint currentDrawId = Draw(drawAddress).currentDrawId();\n        require(!fullyDistributedPrize[currentDrawId]\n        , 'The prize pool of this draw is already fully distributed'\n        );\n\n        uint countOfWinners = winnersCount[currentDrawId];\n        if (moneyForEachWinner[currentDrawId] == 0) {\n            //     \n            moneyForEachWinner[currentDrawId] = PrizePool(prizePoolAddress).determineWinners(countOfWinners);\n            poolSizes[currentDrawId] = PrizePool(prizePoolAddress).prizePool();\n        }\n        if (countOfWinners == 0) {\n            //  \n            fullyDistributedPrize[currentDrawId] = true;\n            emit DistributionOfWithdraws(currentDrawId, fromIndex, count, false);\n\n            return;\n        }\n\n        address winnerAddress;\n\n        uint lastIndex = fromIndex + count;\n        //   \n        if (lastIndex > countOfWinners - 1) {\n            lastIndex = countOfWinners - 1;\n        }\n        for (uint index = fromIndex; index <= lastIndex; index++) {\n            winnerAddress = winnersList[currentDrawId][index];\n            if (!isGivenShare[currentDrawId][winnerAddress]) {\n                winnersMoney[winnerAddress] += moneyForEachWinner[currentDrawId];\n                isGivenShare[currentDrawId][winnerAddress] = true;\n                prizeDistributionProgress[currentDrawId]++;\n            }\n        }\n\n        bool needMoreShoot;\n        if (prizeDistributionProgress[currentDrawId] == countOfWinners) {\n            fullyDistributedPrize[currentDrawId] = true;\n\n        } else if (fromIndex + count < countOfWinners) {\n            needMoreShoot = true;\n\n        } else {\n            //please check all periods, you missed some data\n        }\n\n        emit DistributionOfWithdraws(currentDrawId, fromIndex, count, needMoreShoot);\n    }\n\n    //    \n    function withdrawPrize(uint value) private inited {\n        require(value > 0\n        , \"Value must be > 0\"\n        );\n\n        if (winnersMoney[msg.sender] >= value) {\n            //        \n            winnersMoney[msg.sender] -= value;\n            PrizePool(prizePoolAddress).sendToWinner(msg.sender, value);\n\n            emit TransferredPrize(msg.sender, value);\n            return;\n        }\n\n        uint currentDrawId = Draw(drawAddress).currentDrawId();\n        //         \n        //      \n        if (winnersListExists[currentDrawId][msg.sender] && !isGivenShare[currentDrawId][msg.sender]) {\n\n            if (Draw(drawAddress).isWaitingWithdrawsPeriod()) {\n                uint currentIndex = winnersListIndex[currentDrawId][msg.sender];\n                Draw(drawAddress).startWithdraws(currentIndex, 1, 10);\n            }\n        }\n\n        require(winnersMoney[msg.sender] > 0\n        , \"You don't have any money amount\"\n        );\n\n        if (winnersMoney[msg.sender] < value) {\n            //        \n            value = winnersMoney[msg.sender];\n            winnersMoney[msg.sender] = 0;\n        } else {\n            winnersMoney[msg.sender] -= value;\n        }\n\n        PrizePool(prizePoolAddress).sendToWinner(msg.sender, value);\n\n        emit TransferredPrize(msg.sender, value);\n        return;\n    }\n\n    function hashVal(uint number, uint salt) public pure returns (bytes32) {\n        return keccak256(number, salt);\n    }\n\n    function withdrawTicketPrice(uint256 ticketNumber) inited public {\n\n        require(TokenERC721(token712Address).tokenExists(ticketNumber)\n        , 'This ticket does not exists'\n        );\n        require(TokenERC721(token712Address).ownerOf(ticketNumber) == msg.sender\n        , 'You are not the owner of this ticket'\n        );\n\n        TokenERC721(token712Address).setTicketStatusPayed(ticketNumber);\n\n        uint ticketDrawId = TokenERC721(token712Address).getTicketDrawId(ticketNumber);\n        uint value = moneyForEachWinner[ticketDrawId];\n        withdrawPrize(value);\n\n        emit TicketPaid(ticketNumber);\n    }\n\n}\n",
  "sourcePath": "/home/smartit-4/projects/hashlottery2/smart_contracts/contracts/lottery/Kassa.sol",
  "compiler": {
    "name": "solc",
    "version": "0.4.24+commit.e67f0147.Emscripten.clang"
  },
  "schemaVersion": "2.0.1",
  "updatedAt": "2018-12-12T13:11:54.921Z"
}