{
  "contractName": "LotteryDraw",
  "abi": [
    {
      "constant": false,
      "inputs": [],
      "name": "isAcceptanceOfApplicationsEnd",
      "outputs": [
        {
          "name": "",
          "type": "bool"
        }
      ],
      "payable": false,
      "stateMutability": "nonpayable",
      "type": "function"
    }
  ],
  "bytecode": "0x6080604052348015600f57600080fd5b5060a18061001e6000396000f300608060405260043610603f576000357c0100000000000000000000000000000000000000000000000000000000900463ffffffff168063aa537c6d146044575b600080fd5b348015604f57600080fd5b5060566070565b604051808215151515815260200191505060405180910390f35b6000905600a165627a7a72305820ea20cdb4e615d1eac9bb9439cfc0c51978fc6fbe74d4b2d2a49086f90ca2d3310029",
  "source": "pragma solidity ^0.4.24;\n\ncontract LotteryDraw {\n    function isAcceptanceOfApplicationsEnd() public returns (bool){}\n}\n\ncontract Kassa {\n}\n\ncontract PrizePool {\n\n    address public kassaContractAddress; // контракт кассы\n    address public lotteryDrawContractAddress; //контракт розыгрыша\n\n    uint256 public reservedMoney = 0; // зарезервированная часть средств\n\n    address public owner; // владелец контракта\n    bool public initComplete = false;\n\n    constructor() public {\n        owner = msg.sender;\n    }\n\n    modifier onlyOwner() {\n        require(msg.sender == owner\n        , \"Only owner of contract can call this\"\n        );\n        _;\n    }\n\n    modifier isAcceptanceOfApplicationsEnd() {\n        require(initComplete\n        , \"init not complete\"\n        );\n        require(LotteryDraw(lotteryDrawContractAddress).isAcceptanceOfApplicationsEnd()\n        , \"Acceptance of applications period isn't end\"\n        );\n        _;\n    }\n\n    modifier isKassaContract() {\n        require(initComplete\n        , \"init not complete\"\n        );\n        require(msg.sender == kassaContractAddress\n        , \"only kassaContract is allowed\"\n        );\n        _;\n    }\n\n    modifier isLotteryDrawContract() {\n        require(initComplete\n        , \"init not complete\"\n        );\n        require(msg.sender == lotteryDrawContractAddress\n        , \"only lotteryDrawContract is allowed\"\n        );\n        _;\n    }\n\n    function getPrizePoolBalance() public view returns (uint){\n        uint balance = address(this).balance;\n        require(balance >= reservedMoney\n        , \"Prize pool balance is incorrect, please contact the admin\"\n        );\n\n        return balance - reservedMoney;\n    }\n\n    function determineWinners(uint winnersCount) public isKassaContract isAcceptanceOfApplicationsEnd returns (uint){\n        if (winnersCount == 0) {\n            return 0;\n        }\n\n        uint prizePool = this.getPrizePoolBalance();\n        reservedMoney += prizePool;\n        return prizePool / winnersCount;\n    }\n\n    function sendToWinner(address winner, uint value) public isKassaContract {\n        require(value > 0\n        , \"Value must be > 0\"\n        );\n        require(reservedMoney >= value\n        , \"Reserved money amount is not enough\"\n        );\n        reservedMoney -= value;\n        address(winner).transfer(value);\n    }\n\n    function setKassaContractAddressAddress(address _address) public onlyOwner {\n        require(kassaContractAddress == address(0)\n        , \"kassaContractAddress is already set\"\n        );\n        kassaContractAddress = _address;\n        if (this.isInitComplete()) {\n            initComplete = true;\n        }\n    }\n\n    function setLotteryDrawContractAddress(address _address) public onlyOwner {\n        require(lotteryDrawContractAddress == address(0)\n        , \"lotteryDrawContractAddress is already set\"\n        );\n        lotteryDrawContractAddress = _address;\n        if (this.isInitComplete()) {\n            initComplete = true;\n        }\n    }\n\n    function isInitComplete() public view returns (bool) {\n        if (initComplete) {\n            return true;\n        }\n        return (lotteryDrawContractAddress != address(0))\n        && (kassaContractAddress != address(0));\n    }\n\n    function() payable public {\n\n    }\n}\n\n",
  "sourcePath": "/home/kostiantyn/Projects/hashlottery2/smart_contracts/contracts/lottery/PrizePool.sol",
  "compiler": {
    "name": "solc",
    "version": "0.4.24+commit.e67f0147.Emscripten.clang"
  },
  "schemaVersion": "2.0.1",
  "updatedAt": "2018-11-17T12:25:56.277Z"
}