{
  "contractName": "MigrationAgent",
  "abi": [
    {
      "inputs": [],
      "payable": false,
      "stateMutability": "nonpayable",
      "type": "constructor"
    },
    {
      "constant": false,
      "inputs": [
        {
          "name": "_oldToken",
          "type": "address"
        },
        {
          "name": "_newToken",
          "type": "address"
        }
      ],
      "name": "startMigrationFrom",
      "outputs": [],
      "payable": false,
      "stateMutability": "nonpayable",
      "type": "function"
    },
    {
      "constant": false,
      "inputs": [
        {
          "name": "_from",
          "type": "address"
        },
        {
          "name": "_value",
          "type": "uint256"
        }
      ],
      "name": "migrateFrom",
      "outputs": [],
      "payable": false,
      "stateMutability": "nonpayable",
      "type": "function"
    },
    {
      "constant": false,
      "inputs": [],
      "name": "finalizeMigration",
      "outputs": [],
      "payable": false,
      "stateMutability": "nonpayable",
      "type": "function"
    }
  ],
  "bytecode": "0x60806040526000600460006101000a81548160ff02191690831515021790555034801561002b57600080fd5b50336000806101000a81548173ffffffffffffffffffffffffffffffffffffffff021916908373ffffffffffffffffffffffffffffffffffffffff160217905550610e668061007b6000396000f300608060405260043610610057576000357c0100000000000000000000000000000000000000000000000000000000900463ffffffff168063326846841461005c5780637a3130e3146100bf578063b78b60871461010c575b600080fd5b34801561006857600080fd5b506100bd600480360381019080803573ffffffffffffffffffffffffffffffffffffffff169060200190929190803573ffffffffffffffffffffffffffffffffffffffff169060200190929190505050610123565b005b3480156100cb57600080fd5b5061010a600480360381019080803573ffffffffffffffffffffffffffffffffffffffff169060200190929190803590602001909291905050506105cc565b005b34801561011857600080fd5b506101216109a1565b005b6000809054906101000a900473ffffffffffffffffffffffffffffffffffffffff1673ffffffffffffffffffffffffffffffffffffffff163373ffffffffffffffffffffffffffffffffffffffff1614151561020d576040517f08c379a00000000000000000000000000000000000000000000000000000000081526004018080602001828103825260248152602001807f4f6e6c79206f776e6572206f6620636f6e74726163742063616e2063616c6c2081526020017f746869730000000000000000000000000000000000000000000000000000000081525060400191505060405180910390fd5b600073ffffffffffffffffffffffffffffffffffffffff16600160009054906101000a900473ffffffffffffffffffffffffffffffffffffffff1673ffffffffffffffffffffffffffffffffffffffff161415156102d3576040517f08c379a00000000000000000000000000000000000000000000000000000000081526004018080602001828103825260118152602001807f4f6c6420746f6b656e207761732073657400000000000000000000000000000081525060200191505060405180910390fd5b600073ffffffffffffffffffffffffffffffffffffffff16600260009054906101000a900473ffffffffffffffffffffffffffffffffffffffff1673ffffffffffffffffffffffffffffffffffffffff16141515610399576040517f08c379a00000000000000000000000000000000000000000000000000000000081526004018080602001828103825260148152602001807f4e657720746f6b656e207761736e27742073657400000000000000000000000081525060200191505060405180910390fd5b60011515600460009054906101000a900460ff16151514151515610425576040517f08c379a00000000000000000000000000000000000000000000000000000000081526004018080602001828103825260168152602001807f4d6967726174696f6e207761732066696e616c697a650000000000000000000081525060200191505060405180910390fd5b81600160006101000a81548173ffffffffffffffffffffffffffffffffffffffff021916908373ffffffffffffffffffffffffffffffffffffffff1602179055508173ffffffffffffffffffffffffffffffffffffffff166318160ddd6040518163ffffffff167c0100000000000000000000000000000000000000000000000000000000028152600401602060405180830381600087803b1580156104ca57600080fd5b505af11580156104de573d6000803e3d6000fd5b505050506040513d60208110156104f457600080fd5b810190808051906020019092919050505060038190555080600260006101000a81548173ffffffffffffffffffffffffffffffffffffffff021916908373ffffffffffffffffffffffffffffffffffffffff1602179055508173ffffffffffffffffffffffffffffffffffffffff166371fee0ef6040518163ffffffff167c0100000000000000000000000000000000000000000000000000000000028152600401600060405180830381600087803b1580156105b057600080fd5b505af11580156105c4573d6000803e3d6000fd5b505050505050565b60011515600460009054906101000a900460ff16151514151515610658576040517f08c379a00000000000000000000000000000000000000000000000000000000081526004018080602001828103825260168152602001807f4d6967726174696f6e207761732066696e616c697a650000000000000000000081525060200191505060405180910390fd5b338073ffffffffffffffffffffffffffffffffffffffff16600160009054906101000a900473ffffffffffffffffffffffffffffffffffffffff1673ffffffffffffffffffffffffffffffffffffffff1614151561071e576040517f08c379a00000000000000000000000000000000000000000000000000000000081526004018080602001828103825260198152602001807f43616c6c2066726f6d206e6f7420616c6c6f7720746f6b656e0000000000000081525060200191505060405180910390fd5b600073ffffffffffffffffffffffffffffffffffffffff16600160009054906101000a900473ffffffffffffffffffffffffffffffffffffffff1673ffffffffffffffffffffffffffffffffffffffff16141515156107e5576040517f08c379a00000000000000000000000000000000000000000000000000000000081526004018080602001828103825260148152602001807f4f6c6420746f6b656e207761736e27742073657400000000000000000000000081525060200191505060405180910390fd5b600073ffffffffffffffffffffffffffffffffffffffff16600260009054906101000a900473ffffffffffffffffffffffffffffffffffffffff1673ffffffffffffffffffffffffffffffffffffffff16141515156108ac576040517f08c379a00000000000000000000000000000000000000000000000000000000081526004018080602001828103825260148152602001807f4e657720746f6b656e207761736e27742073657400000000000000000000000081525060200191505060405180910390fd5b6108b582610c5e565b600260009054906101000a900473ffffffffffffffffffffffffffffffffffffffff1673ffffffffffffffffffffffffffffffffffffffff1663a69e894e84846040518363ffffffff167c0100000000000000000000000000000000000000000000000000000000028152600401808373ffffffffffffffffffffffffffffffffffffffff1673ffffffffffffffffffffffffffffffffffffffff16815260200182815260200192505050600060405180830381600087803b15801561097a57600080fd5b505af115801561098e573d6000803e3d6000fd5b5050505061099c6000610c5e565b505050565b6000809054906101000a900473ffffffffffffffffffffffffffffffffffffffff1673ffffffffffffffffffffffffffffffffffffffff163373ffffffffffffffffffffffffffffffffffffffff16141515610a8b576040517f08c379a00000000000000000000000000000000000000000000000000000000081526004018080602001828103825260248152602001807f4f6e6c79206f776e6572206f6620636f6e74726163742063616e2063616c6c2081526020017f746869730000000000000000000000000000000000000000000000000000000081525060400191505060405180910390fd5b60011515600460009054906101000a900460ff16151514151515610b17576040517f08c379a00000000000000000000000000000000000000000000000000000000081526004018080602001828103825260168152602001807f4d6967726174696f6e207761732066696e616c697a650000000000000000000081525060200191505060405180910390fd5b600260009054906101000a900473ffffffffffffffffffffffffffffffffffffffff1673ffffffffffffffffffffffffffffffffffffffff1663b78b60876040518163ffffffff167c0100000000000000000000000000000000000000000000000000000000028152600401600060405180830381600087803b158015610b9d57600080fd5b505af1158015610bb1573d6000803e3d6000fd5b505050506001600460006101000a81548160ff0219169083151502179055506000600160006101000a81548173ffffffffffffffffffffffffffffffffffffffff021916908373ffffffffffffffffffffffffffffffffffffffff1602179055506000600260006101000a81548173ffffffffffffffffffffffffffffffffffffffff021916908373ffffffffffffffffffffffffffffffffffffffff1602179055506000600381905550565b8060035403600260009054906101000a900473ffffffffffffffffffffffffffffffffffffffff1673ffffffffffffffffffffffffffffffffffffffff166318160ddd6040518163ffffffff167c0100000000000000000000000000000000000000000000000000000000028152600401602060405180830381600087803b158015610ce957600080fd5b505af1158015610cfd573d6000803e3d6000fd5b505050506040513d6020811015610d1357600080fd5b8101908080519060200190929190505050600160009054906101000a900473ffffffffffffffffffffffffffffffffffffffff1673ffffffffffffffffffffffffffffffffffffffff166318160ddd6040518163ffffffff167c0100000000000000000000000000000000000000000000000000000000028152600401602060405180830381600087803b158015610daa57600080fd5b505af1158015610dbe573d6000803e3d6000fd5b505050506040513d6020811015610dd457600080fd5b81019080805190602001909291905050500114151515610e37576040517f08c379a0000000000000000000000000000000000000000000000000000000008152600401808060200182810382526000815260200160200191505060405180910390fd5b505600a165627a7a723058202e71a634985d9c5f75f5dca9b06cc0e3bca747cb678e1c40ecb5f05054c995fc0029",
  "source": "pragma solidity ^0.4.24;\nimport \"./TokenERC20.sol\";\nimport \"./newTokenERC20.sol\";\n\ncontract MigrationAgent {\n    address owner;\n    address oldToken;\n    address newToken;\n    uint totalSupply;\n    bool finalizeMigrationStatus = false;\n\n    modifier onlyOwner() {\n        require(msg.sender == owner, \"Only owner of contract can call this\");\n        _;\n    }\n\n    modifier isNotSetNewToken(){\n        require(newToken == address(0), \"New token wasn't set\");\n        _;\n    }\n\n    modifier isSetOldToken(){\n        require(oldToken != address(0), \"Old token wasn't set\");\n        _;\n    }\n\n    modifier isNotSetOldToken(){\n        require(oldToken == address(0), \"Old token was set\");\n        _;\n    }\n\n    modifier isSetNewToken(){\n        require(newToken != address(0), \"New token wasn't set\");\n        _;\n    }\n\n    modifier isCallFromOldToken(address _sender){\n        require(oldToken == _sender, \"Call from not allow token\");\n        _;\n    }\n\n    modifier isNotFinalizeMigration(){\n        require(finalizeMigrationStatus != true, \"Migration was finalize\");\n        _;\n    }\n\n    constructor() public {\n        owner = msg.sender;\n    }\n\n    function startMigrationFrom(address _oldToken, address _newToken) public \n    onlyOwner() \n    isNotSetOldToken() \n    isNotSetNewToken() \n    isNotFinalizeMigration(){\n        oldToken = _oldToken;\n        totalSupply = TokenERC20(_oldToken).totalSupply();\n\n        newToken = _newToken;\n\n        TokenERC20(_oldToken).setMigrationStatus();\n    }\n\n    function isTotalSumValid(uint _value) private view{\n        require(TokenERC20(oldToken).totalSupply() + newTokenERC20(newToken).totalSupply() != totalSupply - _value, \"\");\n    }\n\n    function migrateFrom(address _from, uint256 _value) public \n        isNotFinalizeMigration()\n        isCallFromOldToken(msg.sender)\n        isSetOldToken()\n        isSetNewToken(){\n\n        isTotalSumValid(_value);\n        newTokenERC20(newToken).createTokens(_from, _value);\n        isTotalSumValid(0);\n    }\n\n    function finalizeMigration() public onlyOwner() isNotFinalizeMigration() {\n        newTokenERC20(newToken).finalizeMigration();\n        finalizeMigrationStatus = true;\n        oldToken = address(0);\n        newToken = address(0);\n        totalSupply = 0;\n    }\n}",
  "sourcePath": "/home/kostiantyn/Projects/hashlottery2/smart_contracts/contracts/MigrationAgent.sol",
  "compiler": {
    "name": "solc",
    "version": "0.4.24+commit.e67f0147.Emscripten.clang"
  },
  "schemaVersion": "2.0.1",
  "updatedAt": "2018-10-26T14:14:31.706Z"
}