{
  "contractName": "MultiSigWallet",
  "abi": [
    {
      "constant": true,
      "inputs": [
        {
          "name": "",
          "type": "address"
        }
      ],
      "name": "owners",
      "outputs": [
        {
          "name": "",
          "type": "bool"
        }
      ],
      "payable": false,
      "stateMutability": "view",
      "type": "function"
    },
    {
      "constant": true,
      "inputs": [
        {
          "name": "",
          "type": "address"
        }
      ],
      "name": "ownersGetCoins",
      "outputs": [
        {
          "name": "",
          "type": "bool"
        }
      ],
      "payable": false,
      "stateMutability": "view",
      "type": "function"
    },
    {
      "inputs": [],
      "payable": false,
      "stateMutability": "nonpayable",
      "type": "constructor"
    },
    {
      "constant": false,
      "inputs": [
        {
          "name": "_investor",
          "type": "address"
        },
        {
          "name": "value",
          "type": "uint256"
        }
      ],
      "name": "getCoinsAfterNegativeIco",
      "outputs": [],
      "payable": false,
      "stateMutability": "nonpayable",
      "type": "function"
    },
    {
      "constant": false,
      "inputs": [],
      "name": "getCoinsByOwners",
      "outputs": [],
      "payable": false,
      "stateMutability": "nonpayable",
      "type": "function"
    },
    {
      "constant": false,
      "inputs": [
        {
          "name": "_crowdSaleContract",
          "type": "address"
        }
      ],
      "name": "setCrowdSaleContractAddress",
      "outputs": [],
      "payable": false,
      "stateMutability": "nonpayable",
      "type": "function"
    }
  ],
  "bytecode": "0x60806040526000600560006101000a81548160ff02191690831515021790555034801561002b57600080fd5b50600160008073896ab7b50d7bce2961072fef0a7225376e88ba7e73ffffffffffffffffffffffffffffffffffffffff16815260200190815260200160002060006101000a81548160ff0219169083151502179055506001600080732dbc56b412ef3f70bee2ef3662e850f49c83105273ffffffffffffffffffffffffffffffffffffffff16815260200190815260200160002060006101000a81548160ff021916908315150217905550600160008073f7a67efba2a97f86228a7e36b996b34e0a41776373ffffffffffffffffffffffffffffffffffffffff16815260200190815260200160002060006101000a81548160ff02191690831515021790555060016000807394bb857c3a550130120b5bfc1b7de3d47810470573ffffffffffffffffffffffffffffffffffffffff16815260200190815260200160002060006101000a81548160ff02191690831515021790555060016000807344f8fb0c0425471e23cdcc819827aa32cab607a973ffffffffffffffffffffffffffffffffffffffff16815260200190815260200160002060006101000a81548160ff02191690831515021790555060006001600073896ab7b50d7bce2961072fef0a7225376e88ba7e73ffffffffffffffffffffffffffffffffffffffff16815260200190815260200160002060006101000a81548160ff021916908315150217905550600060016000732dbc56b412ef3f70bee2ef3662e850f49c83105273ffffffffffffffffffffffffffffffffffffffff16815260200190815260200160002060006101000a81548160ff02191690831515021790555060006001600073f7a67efba2a97f86228a7e36b996b34e0a41776373ffffffffffffffffffffffffffffffffffffffff16815260200190815260200160002060006101000a81548160ff0219169083151502179055506000600160007394bb857c3a550130120b5bfc1b7de3d47810470573ffffffffffffffffffffffffffffffffffffffff16815260200190815260200160002060006101000a81548160ff0219169083151502179055506000600160007344f8fb0c0425471e23cdcc819827aa32cab607a973ffffffffffffffffffffffffffffffffffffffff16815260200190815260200160002060006101000a81548160ff02191690831515021790555033600360006101000a81548173ffffffffffffffffffffffffffffffffffffffff021916908373ffffffffffffffffffffffffffffffffffffffff160217905550610c00806103d36000396000f30060806040526004361061006d576000357c0100000000000000000000000000000000000000000000000000000000900463ffffffff168063022914a714610072578063ab2396ce146100cd578063cb26d4b2146100e4578063d175ba4a1461013f578063e032223014610182575b600080fd5b34801561007e57600080fd5b506100b3600480360381019080803573ffffffffffffffffffffffffffffffffffffffff1690602001909291905050506101cf565b604051808215151515815260200191505060405180910390f35b3480156100d957600080fd5b506100e26101ef565b005b3480156100f057600080fd5b50610125600480360381019080803573ffffffffffffffffffffffffffffffffffffffff1690602001909291905050506105e0565b604051808215151515815260200191505060405180910390f35b34801561014b57600080fd5b50610180600480360381019080803573ffffffffffffffffffffffffffffffffffffffff169060200190929190505050610600565b005b34801561018e57600080fd5b506101cd600480360381019080803573ffffffffffffffffffffffffffffffffffffffff16906020019092919080359060200190929190505050610788565b005b60006020528060005260406000206000915054906101000a900460ff1681565b6001801515600260009054906101000a900473ffffffffffffffffffffffffffffffffffffffff1673ffffffffffffffffffffffffffffffffffffffff16639835c6386040518163ffffffff167c0100000000000000000000000000000000000000000000000000000000028152600401602060405180830381600087803b15801561027a57600080fd5b505af115801561028e573d6000803e3d6000fd5b505050506040513d60208110156102a457600080fd5b8101908080519060200190929190505050151514151561032c576040517f08c379a000000000000000000000000000000000000000000000000000000000815260040180806020018281038252600d8152602001807f49434f2069736e277420656e640000000000000000000000000000000000000081525060200191505060405180910390fd5b6000801515600260009054906101000a900473ffffffffffffffffffffffffffffffffffffffff1673ffffffffffffffffffffffffffffffffffffffff1663433357af6040518163ffffffff167c0100000000000000000000000000000000000000000000000000000000028152600401602060405180830381600087803b1580156103b757600080fd5b505af11580156103cb573d6000803e3d6000fd5b505050506040513d60208110156103e157600080fd5b81019080805190602001909291905050501515141515610469576040517f08c379a000000000000000000000000000000000000000000000000000000000815260040180806020018281038252600e8152602001807f49434f2069736e2774206661696c00000000000000000000000000000000000081525060200191505060405180910390fd5b600115156000803373ffffffffffffffffffffffffffffffffffffffff1673ffffffffffffffffffffffffffffffffffffffff16815260200190815260200160002060009054906101000a900460ff161515148015610518575060001515600160003373ffffffffffffffffffffffffffffffffffffffff1673ffffffffffffffffffffffffffffffffffffffff16815260200190815260200160002060009054906101000a900460ff161515145b156105dc5760001515600560009054906101000a900460ff161515141561054257610541610a4f565b5b3373ffffffffffffffffffffffffffffffffffffffff166108fc6004549081150290604051600060405180830381858888f1935050505015801561058a573d6000803e3d6000fd5b5060011515600160003373ffffffffffffffffffffffffffffffffffffffff1673ffffffffffffffffffffffffffffffffffffffff16815260200190815260200160002060009054906101000a905050505b5050565b60016020528060005260406000206000915054906101000a900460ff1681565b600360009054906101000a900473ffffffffffffffffffffffffffffffffffffffff1673ffffffffffffffffffffffffffffffffffffffff163373ffffffffffffffffffffffffffffffffffffffff161415156106eb576040517f08c379a00000000000000000000000000000000000000000000000000000000081526004018080602001828103825260248152602001807f4f6e6c79206f776e6572206f6620636f6e74726163742063616e2063616c6c2081526020017f746869730000000000000000000000000000000000000000000000000000000081525060400191505060405180910390fd5b600073ffffffffffffffffffffffffffffffffffffffff16600260009054906101000a900473ffffffffffffffffffffffffffffffffffffffff1673ffffffffffffffffffffffffffffffffffffffff161415156107855780600260006101000a81548173ffffffffffffffffffffffffffffffffffffffff021916908373ffffffffffffffffffffffffffffffffffffffff1602179055505b50565b6001801515600260009054906101000a900473ffffffffffffffffffffffffffffffffffffffff1673ffffffffffffffffffffffffffffffffffffffff16639835c6386040518163ffffffff167c0100000000000000000000000000000000000000000000000000000000028152600401602060405180830381600087803b15801561081357600080fd5b505af1158015610827573d6000803e3d6000fd5b505050506040513d602081101561083d57600080fd5b810190808051906020019092919050505015151415156108c5576040517f08c379a000000000000000000000000000000000000000000000000000000000815260040180806020018281038252600d8152602001807f49434f2069736e277420656e640000000000000000000000000000000000000081525060200191505060405180910390fd5b6001801515600260009054906101000a900473ffffffffffffffffffffffffffffffffffffffff1673ffffffffffffffffffffffffffffffffffffffff1663433357af6040518163ffffffff167c0100000000000000000000000000000000000000000000000000000000028152600401602060405180830381600087803b15801561095057600080fd5b505af1158015610964573d6000803e3d6000fd5b505050506040513d602081101561097a57600080fd5b81019080805190602001909291905050501515141515610a02576040517f08c379a000000000000000000000000000000000000000000000000000000000815260040180806020018281038252600e8152602001807f49434f2069736e2774206661696c00000000000000000000000000000000000081525060200191505060405180910390fd5b8373ffffffffffffffffffffffffffffffffffffffff166108fc849081150290604051600060405180830381858888f19350505050158015610a48573d6000803e3d6000fd5b5050505050565b6001801515600260009054906101000a900473ffffffffffffffffffffffffffffffffffffffff1673ffffffffffffffffffffffffffffffffffffffff16639835c6386040518163ffffffff167c0100000000000000000000000000000000000000000000000000000000028152600401602060405180830381600087803b158015610ada57600080fd5b505af1158015610aee573d6000803e3d6000fd5b505050506040513d6020811015610b0457600080fd5b81019080805190602001909291905050501515141515610b8c576040517f08c379a000000000000000000000000000000000000000000000000000000000815260040180806020018281038252600d8152602001807f49434f2069736e277420656e640000000000000000000000000000000000000081525060200191505060405180910390fd5b60053073ffffffffffffffffffffffffffffffffffffffff1631811515610baf57fe5b046004819055506001600560006101000a81548160ff021916908315150217905550505600a165627a7a7230582040cc680d2b1bed69e4ff8fcfdb8a6c3ad1585de66d5ed78460a4c139e290ec600029",
  "source": "pragma solidity ^0.4.24;\nimport \"./Crowdsale.sol\";\n\ncontract MultiSigWallet {\n    \n    mapping(address => bool) public owners;\n    mapping(address => bool) public ownersGetCoins;\n    address crowdSaleContract;\n    address owner;\n    uint ownerPart;\n    bool setOwnerCoinsPartStatus  = false;\n    \n    constructor() public {\n        owners[0x896ab7b50d7bce2961072fef0a7225376e88ba7e] = true;\n        owners[0x2dbc56b412ef3f70bee2ef3662e850f49c831052] = true;\n        owners[0xf7a67efba2a97f86228a7e36b996b34e0a417763] = true;\n        owners[0x94bb857c3a550130120b5bfc1b7de3d478104705] = true;\n        owners[0x44f8fb0c0425471e23cdcc819827aa32cab607a9] = true;\n        \n        ownersGetCoins[0x896ab7b50d7bce2961072fef0a7225376e88ba7e] = false;\n        ownersGetCoins[0x2dbc56b412ef3f70bee2ef3662e850f49c831052] = false;\n        ownersGetCoins[0xf7a67efba2a97f86228a7e36b996b34e0a417763] = false;\n        ownersGetCoins[0x94bb857c3a550130120b5bfc1b7de3d478104705] = false;\n        ownersGetCoins[0x44f8fb0c0425471e23cdcc819827aa32cab607a9] = false;\n        \n        owner = msg.sender;\n    }\n    \n    modifier onlyOwner() {\n        require(msg.sender == owner, \"Only owner of contract can call this\");\n        _;\n    }\n\n    modifier isIcoEnd(bool status) {\n        require(Crowdsale(crowdSaleContract).isIcoEnd() == status, \"ICO isn't end\");\n        _;\n    }\n    \n    modifier isIcoFail(bool status) {\n        require(Crowdsale(crowdSaleContract).isIcoFail() == status, \"ICO isn't fail\");\n        _;\n    }\n    \n    // Must isIcoEnd => true && isIcoFail => true\n    // Call from Crowdsale.sol\n    function getCoinsAfterNegativeIco(address _investor, uint value) public isIcoEnd(true) isIcoFail(true) {\n        address(_investor).transfer(value);\n    }\n    \n    // Must isIcoEnd => true && isIcoFail => false\n    // Call from terminal\n    function getCoinsByOwners() isIcoEnd(true) public isIcoFail(false) {\n        if(owners[msg.sender] == true && ownersGetCoins[msg.sender] == false){\n            // Pay dividends for owner\n            if(setOwnerCoinsPartStatus == false){\n                setOwnerCoinsPart();\n            }\n            msg.sender.transfer(ownerPart);\n            ownersGetCoins[msg.sender] == true;\n        }\n    }\n    \n    // Call from terminal\n    function setCrowdSaleContractAddress(address _crowdSaleContract) public onlyOwner() {\n        if(crowdSaleContract != address(0)){\n            crowdSaleContract = _crowdSaleContract;\n        }\n    }\n    \n    function setOwnerCoinsPart() private isIcoEnd(true) {\n        ownerPart = this.balance/5;\n        setOwnerCoinsPartStatus = true;\n    }\n}",
  "sourcePath": "/home/kostiantyn/Projects/hashlottery2/smart_contracts/contracts/MultiSigWallet.sol",
  "compiler": {
    "name": "solc",
    "version": "0.4.24+commit.e67f0147.Emscripten.clang"
  },
  "schemaVersion": "2.0.1",
  "updatedAt": "2018-10-26T14:14:33.610Z"
}