{
  "contractName": "MultiSigWallet",
  "abi": [
    {
      "constant": true,
      "inputs": [
        {
          "name": "",
          "type": "address"
        }
      ],
      "name": "owners",
      "outputs": [
        {
          "name": "",
          "type": "bool"
        }
      ],
      "payable": false,
      "stateMutability": "view",
      "type": "function"
    },
    {
      "constant": true,
      "inputs": [],
      "name": "crowdSaleContract",
      "outputs": [
        {
          "name": "",
          "type": "address"
        }
      ],
      "payable": false,
      "stateMutability": "view",
      "type": "function"
    },
    {
      "constant": true,
      "inputs": [],
      "name": "owner",
      "outputs": [
        {
          "name": "",
          "type": "address"
        }
      ],
      "payable": false,
      "stateMutability": "view",
      "type": "function"
    },
    {
      "constant": true,
      "inputs": [
        {
          "name": "",
          "type": "address"
        }
      ],
      "name": "ownersGetCoins",
      "outputs": [
        {
          "name": "",
          "type": "bool"
        }
      ],
      "payable": false,
      "stateMutability": "view",
      "type": "function"
    },
    {
      "inputs": [],
      "payable": false,
      "stateMutability": "nonpayable",
      "type": "constructor"
    },
    {
      "payable": true,
      "stateMutability": "payable",
      "type": "fallback"
    },
    {
      "constant": false,
      "inputs": [
        {
          "name": "_investor",
          "type": "address"
        },
        {
          "name": "value",
          "type": "uint256"
        }
      ],
      "name": "getCoinsAfterNegativeIco",
      "outputs": [],
      "payable": false,
      "stateMutability": "nonpayable",
      "type": "function"
    },
    {
      "constant": false,
      "inputs": [],
      "name": "getCoinsByOwners",
      "outputs": [],
      "payable": false,
      "stateMutability": "nonpayable",
      "type": "function"
    },
    {
      "constant": false,
      "inputs": [
        {
          "name": "_crowdSaleContract",
          "type": "address"
        }
      ],
      "name": "setCrowdSaleContractAddress",
      "outputs": [],
      "payable": false,
      "stateMutability": "nonpayable",
      "type": "function"
    }
  ],
  "bytecode": "0x60806040526000600560006101000a81548160ff02191690831515021790555034801561002b57600080fd5b50600160008073896ab7b50d7bce2961072fef0a7225376e88ba7e73ffffffffffffffffffffffffffffffffffffffff16815260200190815260200160002060006101000a81548160ff02191690831515021790555060016000807394bb857c3a550130120b5bfc1b7de3d47810470573ffffffffffffffffffffffffffffffffffffffff16815260200190815260200160002060006101000a81548160ff02191690831515021790555060016000807342cf7f102aeb2d387c083548990e3bcc03d33d1273ffffffffffffffffffffffffffffffffffffffff16815260200190815260200160002060006101000a81548160ff02191690831515021790555060006001600073896ab7b50d7bce2961072fef0a7225376e88ba7e73ffffffffffffffffffffffffffffffffffffffff16815260200190815260200160002060006101000a81548160ff0219169083151502179055506000600160007394bb857c3a550130120b5bfc1b7de3d47810470573ffffffffffffffffffffffffffffffffffffffff16815260200190815260200160002060006101000a81548160ff0219169083151502179055506000600160007342cf7f102aeb2d387c083548990e3bcc03d33d1273ffffffffffffffffffffffffffffffffffffffff16815260200190815260200160002060006101000a81548160ff02191690831515021790555033600360006101000a81548173ffffffffffffffffffffffffffffffffffffffff021916908373ffffffffffffffffffffffffffffffffffffffff160217905550610d138061027d6000396000f300608060405260043610610083576000357c0100000000000000000000000000000000000000000000000000000000900463ffffffff168063022914a71461008557806351aadcdf146100e05780638da5cb5b14610137578063ab2396ce1461018e578063cb26d4b2146101a5578063d175ba4a14610200578063e032223014610243575b005b34801561009157600080fd5b506100c6600480360381019080803573ffffffffffffffffffffffffffffffffffffffff169060200190929190505050610290565b604051808215151515815260200191505060405180910390f35b3480156100ec57600080fd5b506100f56102b0565b604051808273ffffffffffffffffffffffffffffffffffffffff1673ffffffffffffffffffffffffffffffffffffffff16815260200191505060405180910390f35b34801561014357600080fd5b5061014c6102d6565b604051808273ffffffffffffffffffffffffffffffffffffffff1673ffffffffffffffffffffffffffffffffffffffff16815260200191505060405180910390f35b34801561019a57600080fd5b506101a36102fc565b005b3480156101b157600080fd5b506101e6600480360381019080803573ffffffffffffffffffffffffffffffffffffffff1690602001909291905050506106f4565b604051808215151515815260200191505060405180910390f35b34801561020c57600080fd5b50610241600480360381019080803573ffffffffffffffffffffffffffffffffffffffff169060200190929190505050610714565b005b34801561024f57600080fd5b5061028e600480360381019080803573ffffffffffffffffffffffffffffffffffffffff1690602001909291908035906020019092919050505061089b565b005b60006020528060005260406000206000915054906101000a900460ff1681565b600260009054906101000a900473ffffffffffffffffffffffffffffffffffffffff1681565b600360009054906101000a900473ffffffffffffffffffffffffffffffffffffffff1681565b6001801515600260009054906101000a900473ffffffffffffffffffffffffffffffffffffffff1673ffffffffffffffffffffffffffffffffffffffff16639835c6386040518163ffffffff167c0100000000000000000000000000000000000000000000000000000000028152600401602060405180830381600087803b15801561038757600080fd5b505af115801561039b573d6000803e3d6000fd5b505050506040513d60208110156103b157600080fd5b81019080805190602001909291905050501515141515610439576040517f08c379a000000000000000000000000000000000000000000000000000000000815260040180806020018281038252600d8152602001807f49434f2069736e277420656e640000000000000000000000000000000000000081525060200191505060405180910390fd5b6000801515600260009054906101000a900473ffffffffffffffffffffffffffffffffffffffff1673ffffffffffffffffffffffffffffffffffffffff1663433357af6040518163ffffffff167c0100000000000000000000000000000000000000000000000000000000028152600401602060405180830381600087803b1580156104c457600080fd5b505af11580156104d8573d6000803e3d6000fd5b505050506040513d60208110156104ee57600080fd5b81019080805190602001909291905050501515141515610576576040517f08c379a000000000000000000000000000000000000000000000000000000000815260040180806020018281038252600e8152602001807f49434f2069736e2774206661696c00000000000000000000000000000000000081525060200191505060405180910390fd5b600115156000803373ffffffffffffffffffffffffffffffffffffffff1673ffffffffffffffffffffffffffffffffffffffff16815260200190815260200160002060009054906101000a900460ff161515148015610625575060001515600160003373ffffffffffffffffffffffffffffffffffffffff1673ffffffffffffffffffffffffffffffffffffffff16815260200190815260200160002060009054906101000a900460ff161515145b156106f05760001515600560009054906101000a900460ff161515141561064f5761064e610b62565b5b3373ffffffffffffffffffffffffffffffffffffffff166108fc6004549081150290604051600060405180830381858888f19350505050158015610697573d6000803e3d6000fd5b5060018060003373ffffffffffffffffffffffffffffffffffffffff1673ffffffffffffffffffffffffffffffffffffffff16815260200190815260200160002060006101000a81548160ff0219169083151502179055505b5050565b60016020528060005260406000206000915054906101000a900460ff1681565b600360009054906101000a900473ffffffffffffffffffffffffffffffffffffffff1673ffffffffffffffffffffffffffffffffffffffff163373ffffffffffffffffffffffffffffffffffffffff161415156107ff576040517f08c379a00000000000000000000000000000000000000000000000000000000081526004018080602001828103825260248152602001807f4f6e6c79206f776e6572206f6620636f6e74726163742063616e2063616c6c2081526020017f746869730000000000000000000000000000000000000000000000000000000081525060400191505060405180910390fd5b600073ffffffffffffffffffffffffffffffffffffffff16600260009054906101000a900473ffffffffffffffffffffffffffffffffffffffff1673ffffffffffffffffffffffffffffffffffffffff1614156108985780600260006101000a81548173ffffffffffffffffffffffffffffffffffffffff021916908373ffffffffffffffffffffffffffffffffffffffff1602179055505b50565b6001801515600260009054906101000a900473ffffffffffffffffffffffffffffffffffffffff1673ffffffffffffffffffffffffffffffffffffffff16639835c6386040518163ffffffff167c0100000000000000000000000000000000000000000000000000000000028152600401602060405180830381600087803b15801561092657600080fd5b505af115801561093a573d6000803e3d6000fd5b505050506040513d602081101561095057600080fd5b810190808051906020019092919050505015151415156109d8576040517f08c379a000000000000000000000000000000000000000000000000000000000815260040180806020018281038252600d8152602001807f49434f2069736e277420656e640000000000000000000000000000000000000081525060200191505060405180910390fd5b6001801515600260009054906101000a900473ffffffffffffffffffffffffffffffffffffffff1673ffffffffffffffffffffffffffffffffffffffff1663433357af6040518163ffffffff167c0100000000000000000000000000000000000000000000000000000000028152600401602060405180830381600087803b158015610a6357600080fd5b505af1158015610a77573d6000803e3d6000fd5b505050506040513d6020811015610a8d57600080fd5b81019080805190602001909291905050501515141515610b15576040517f08c379a000000000000000000000000000000000000000000000000000000000815260040180806020018281038252600e8152602001807f49434f2069736e2774206661696c00000000000000000000000000000000000081525060200191505060405180910390fd5b8373ffffffffffffffffffffffffffffffffffffffff166108fc849081150290604051600060405180830381858888f19350505050158015610b5b573d6000803e3d6000fd5b5050505050565b6001801515600260009054906101000a900473ffffffffffffffffffffffffffffffffffffffff1673ffffffffffffffffffffffffffffffffffffffff16639835c6386040518163ffffffff167c0100000000000000000000000000000000000000000000000000000000028152600401602060405180830381600087803b158015610bed57600080fd5b505af1158015610c01573d6000803e3d6000fd5b505050506040513d6020811015610c1757600080fd5b81019080805190602001909291905050501515141515610c9f576040517f08c379a000000000000000000000000000000000000000000000000000000000815260040180806020018281038252600d8152602001807f49434f2069736e277420656e640000000000000000000000000000000000000081525060200191505060405180910390fd5b60033073ffffffffffffffffffffffffffffffffffffffff1631811515610cc257fe5b046004819055506001600560006101000a81548160ff021916908315150217905550505600a165627a7a723058203024673e75a884d1a44f50ea732570ddba215f25ea9fd36e45e19ee1b172062b0029",
  "source": "pragma solidity ^0.4.24;\n\nimport './Crowdsale.sol';\n\ncontract MultiSigWallet {\n    \n    mapping(address => bool) public owners;\n    mapping(address => bool) public ownersGetCoins;\n    address public crowdSaleContract;\n    address public owner;\n    uint ownerPart;\n    bool setOwnerCoinsPartStatus  = false;\n    \n    constructor() public {\n        owners[0x896ab7b50d7bce2961072fef0a7225376e88ba7e] = true; // Игорь\n        owners[0x94bb857c3a550130120b5bfc1b7de3d478104705] = true; // Маша\n        owners[0x42cf7f102aeb2d387c083548990e3bcc03d33d12] = true; // Костя\n\n        ownersGetCoins[0x896ab7b50d7bce2961072fef0a7225376e88ba7e] = false;\n        ownersGetCoins[0x94bb857c3a550130120b5bfc1b7de3d478104705] = false;\n        ownersGetCoins[0x42cf7f102aeb2d387c083548990e3bcc03d33d12] = false;\n        \n        owner = msg.sender;\n    }\n    \n    modifier onlyOwner() {\n        require(msg.sender == owner, \"Only owner of contract can call this\");\n        _;\n    }\n\n    modifier isIcoEnd(bool status) {\n        require(Crowdsale(crowdSaleContract).isIcoEnd() == status, \"ICO isn't end\");\n        _;\n    }\n    \n    modifier isIcoFail(bool status) {\n        require(Crowdsale(crowdSaleContract).isIcoFail() == status, \"ICO isn't fail\");\n        _;\n    }\n    \n    // Must isIcoEnd => true && isIcoFail => true\n    // Call from Crowdsale.sol\n    function getCoinsAfterNegativeIco(address _investor, uint value) public isIcoEnd(true) isIcoFail(true) {\n        address(_investor).transfer(value);\n    }\n    \n    // Must isIcoEnd => true && isIcoFail => false\n    // Call from terminal\n    function getCoinsByOwners() isIcoEnd(true) public isIcoFail(false) {\n        if(owners[msg.sender] == true && ownersGetCoins[msg.sender] == false){\n            // Pay dividends for owner\n            if(setOwnerCoinsPartStatus == false){\n                setOwnerCoinsPart();\n            }\n            msg.sender.transfer(ownerPart);\n            ownersGetCoins[msg.sender] = true;\n        }\n    }\n    \n    // Call from terminal\n    function setCrowdSaleContractAddress(address _crowdSaleContract) public onlyOwner() {\n        if(crowdSaleContract == address(0)){\n            crowdSaleContract = _crowdSaleContract;\n        }\n    }\n    \n    function setOwnerCoinsPart() private isIcoEnd(true) {\n        ownerPart = this.balance/3;\n        setOwnerCoinsPartStatus = true;\n    }\n\n    function() payable public {\n\n    }\n}",
  "sourcePath": "/home/kostiantyn/Projects/hashlottery2/smart_contracts/contracts/MultiSigWallet.sol",
  "compiler": {
    "name": "solc",
    "version": "0.4.24+commit.e67f0147.Emscripten.clang"
  },
  "schemaVersion": "2.0.1",
  "updatedAt": "2018-11-17T11:39:16.613Z"
}