{
  "contractName": "newTokenERC20",
  "abi": [
    {
      "constant": true,
      "inputs": [],
      "name": "totalSupply",
      "outputs": [
        {
          "name": "",
          "type": "uint256"
        }
      ],
      "payable": false,
      "stateMutability": "view",
      "type": "function"
    },
    {
      "constant": true,
      "inputs": [
        {
          "name": "",
          "type": "address"
        }
      ],
      "name": "balanceOf",
      "outputs": [
        {
          "name": "",
          "type": "uint256"
        }
      ],
      "payable": false,
      "stateMutability": "view",
      "type": "function"
    },
    {
      "constant": true,
      "inputs": [],
      "name": "migrationAgent",
      "outputs": [
        {
          "name": "",
          "type": "address"
        }
      ],
      "payable": false,
      "stateMutability": "view",
      "type": "function"
    },
    {
      "anonymous": false,
      "inputs": [
        {
          "indexed": true,
          "name": "from",
          "type": "address"
        },
        {
          "indexed": true,
          "name": "to",
          "type": "address"
        },
        {
          "indexed": false,
          "name": "value",
          "type": "uint256"
        }
      ],
      "name": "Transfer",
      "type": "event"
    },
    {
      "constant": false,
      "inputs": [
        {
          "name": "_to",
          "type": "address"
        },
        {
          "name": "_value",
          "type": "uint256"
        }
      ],
      "name": "createTokens",
      "outputs": [],
      "payable": false,
      "stateMutability": "nonpayable",
      "type": "function"
    },
    {
      "constant": false,
      "inputs": [],
      "name": "finalizeMigration",
      "outputs": [],
      "payable": false,
      "stateMutability": "nonpayable",
      "type": "function"
    }
  ],
  "bytecode": "0x608060405260008060146101000a81548160ff02191690831515021790555034801561002a57600080fd5b506106d38061003a6000396000f30060806040526004361061006d576000357c0100000000000000000000000000000000000000000000000000000000900463ffffffff16806318160ddd1461007257806370a082311461009d5780638328dbcd146100f4578063a69e894e1461014b578063b78b608714610198575b600080fd5b34801561007e57600080fd5b506100876101af565b6040518082815260200191505060405180910390f35b3480156100a957600080fd5b506100de600480360381019080803573ffffffffffffffffffffffffffffffffffffffff1690602001909291905050506101b5565b6040518082815260200191505060405180910390f35b34801561010057600080fd5b506101096101cd565b604051808273ffffffffffffffffffffffffffffffffffffffff1673ffffffffffffffffffffffffffffffffffffffff16815260200191505060405180910390f35b34801561015757600080fd5b50610196600480360381019080803573ffffffffffffffffffffffffffffffffffffffff169060200190929190803590602001909291905050506101f2565b005b3480156101a457600080fd5b506101ad610560565b005b60015481565b60026020528060005260406000206000915090505481565b6000809054906101000a900473ffffffffffffffffffffffffffffffffffffffff1681565b60011515600060149054906101000a900460ff1615151415156102a3576040517f08c379a00000000000000000000000000000000000000000000000000000000081526004018080602001828103825260308152602001807f536f7272792c20627574207765206e6f7420646574656374206d69677261746981526020017f6f6e20746f206e657720746f6b656e2e0000000000000000000000000000000081525060400191505060405180910390fd5b600073ffffffffffffffffffffffffffffffffffffffff166000809054906101000a900473ffffffffffffffffffffffffffffffffffffffff1673ffffffffffffffffffffffffffffffffffffffff161415151561038f576040517f08c379a00000000000000000000000000000000000000000000000000000000081526004018080602001828103825260218152602001807f4d6967726174696f6e204167656e74207761736e277420736574206561726c6c81526020017f790000000000000000000000000000000000000000000000000000000000000081525060400191505060405180910390fd5b6000809054906101000a900473ffffffffffffffffffffffffffffffffffffffff1673ffffffffffffffffffffffffffffffffffffffff163373ffffffffffffffffffffffffffffffffffffffff16141515610479576040517f08c379a00000000000000000000000000000000000000000000000000000000081526004018080602001828103825260298152602001807f536f7272792c206974732063616c6c73206f6e6c792066726f6d206d6967726181526020017f74696f6e4167656e74000000000000000000000000000000000000000000000081525060400191505060405180910390fd5b80600260008473ffffffffffffffffffffffffffffffffffffffff1673ffffffffffffffffffffffffffffffffffffffff16815260200190815260200160002060008282540192505081905550806001600082825401925050819055508173ffffffffffffffffffffffffffffffffffffffff166000809054906101000a900473ffffffffffffffffffffffffffffffffffffffff1673ffffffffffffffffffffffffffffffffffffffff167fddf252ad1be2c89b69c2b068fc378daa952ba7f163c4a11628f55a4df523b3ef836040518082815260200191505060405180910390a35050565b6000809054906101000a900473ffffffffffffffffffffffffffffffffffffffff1673ffffffffffffffffffffffffffffffffffffffff163373ffffffffffffffffffffffffffffffffffffffff1614151561064a576040517f08c379a00000000000000000000000000000000000000000000000000000000081526004018080602001828103825260258152602001807f43616c6c2066726f6d204e4f54204d6967726174696f6e4167656e7420436f6e81526020017f747261637400000000000000000000000000000000000000000000000000000081525060400191505060405180910390fd5b60008060006101000a81548173ffffffffffffffffffffffffffffffffffffffff021916908373ffffffffffffffffffffffffffffffffffffffff16021790555060008060146101000a81548160ff0219169083151502179055505600a165627a7a72305820d8732fe3b740e8550e0596b27001f89964259028e75abb7c987105291e2c201d0029",
  "source": "pragma solidity ^0.4.24;\nimport \"./TokenERC20.sol\";\n\ncontract newTokenERC20 {\n\n    /******* EXTEND **************/\n\n    address public migrationAgent;\n    bool migrationStatus = false;\n    uint256 public totalSupply; // Migrate\n    mapping(address => uint256) public balanceOf; // Migrate\n\n    event Transfer(address indexed from, address indexed to, uint256 value);\n\n    modifier isSetMigrationAgent(){\n        require(migrationAgent != address(0), \"Migration Agent wasn't set earlly\");\n        _;\n    }\n\n    modifier isItCallFormMigrationAgent(){\n        require(msg.sender == migrationAgent, \"Sorry, its calls only from migrationAgent\");\n        _;\n    }\n\n    /******* EXTEND **************/\n\n    modifier isMigrationRun(){\n        require(migrationStatus == true, \"Sorry, but we not detect migration to new token.\");\n        _;\n    }\n\n    modifier isCallFromMigrationAgent(){\n        require(msg.sender == migrationAgent, \"Call from NOT MigrationAgent Contract\");\n        _;\n    }\n\n    function createTokens(address _to, uint _value) public isMigrationRun() isSetMigrationAgent() isItCallFormMigrationAgent(){\n        balanceOf[_to] += _value;\n        totalSupply += _value;\n        emit Transfer(migrationAgent, _to, _value);\n    }\n\n    // Set contract from here we get tokens and check it!\n\n    function finalizeMigration() public isCallFromMigrationAgent() {\n        migrationAgent = address(0);\n        migrationStatus = false;\n    }\n}",
  "sourcePath": "/home/kostiantyn/Projects/hashlottery2/smart_contracts/contracts/newTokenERC20.sol",
  "compiler": {
    "name": "solc",
    "version": "0.4.24+commit.e67f0147.Emscripten.clang"
  },
  "schemaVersion": "2.0.1",
  "updatedAt": "2018-10-26T14:14:31.665Z"
}