{
  "contractName": "newTokenERC20",
  "abi": [
    {
      "constant": true,
      "inputs": [],
      "name": "totalSupply",
      "outputs": [
        {
          "name": "",
          "type": "uint256"
        }
      ],
      "payable": false,
      "stateMutability": "view",
      "type": "function"
    },
    {
      "constant": true,
      "inputs": [
        {
          "name": "",
          "type": "address"
        }
      ],
      "name": "balanceOf",
      "outputs": [
        {
          "name": "",
          "type": "uint256"
        }
      ],
      "payable": false,
      "stateMutability": "view",
      "type": "function"
    },
    {
      "constant": true,
      "inputs": [],
      "name": "migrationAgent",
      "outputs": [
        {
          "name": "",
          "type": "address"
        }
      ],
      "payable": false,
      "stateMutability": "view",
      "type": "function"
    },
    {
      "inputs": [],
      "payable": false,
      "stateMutability": "nonpayable",
      "type": "constructor"
    },
    {
      "anonymous": false,
      "inputs": [
        {
          "indexed": true,
          "name": "from",
          "type": "address"
        },
        {
          "indexed": true,
          "name": "to",
          "type": "address"
        },
        {
          "indexed": false,
          "name": "value",
          "type": "uint256"
        }
      ],
      "name": "Transfer",
      "type": "event"
    },
    {
      "constant": false,
      "inputs": [
        {
          "name": "_agent",
          "type": "address"
        }
      ],
      "name": "setMigrationAgent",
      "outputs": [],
      "payable": false,
      "stateMutability": "nonpayable",
      "type": "function"
    },
    {
      "constant": false,
      "inputs": [
        {
          "name": "_to",
          "type": "address"
        },
        {
          "name": "_value",
          "type": "uint256"
        }
      ],
      "name": "createTokens",
      "outputs": [],
      "payable": false,
      "stateMutability": "nonpayable",
      "type": "function"
    },
    {
      "constant": false,
      "inputs": [],
      "name": "finalizeMigration",
      "outputs": [],
      "payable": false,
      "stateMutability": "nonpayable",
      "type": "function"
    }
  ],
  "bytecode": "0x608060405260008060006101000a81548173ffffffffffffffffffffffffffffffffffffffff021916908373ffffffffffffffffffffffffffffffffffffffff16021790555060018060146101000a81548160ff02191690831515021790555034801561006b57600080fd5b5033600160006101000a81548173ffffffffffffffffffffffffffffffffffffffff021916908373ffffffffffffffffffffffffffffffffffffffff160217905550610915806100bc6000396000f300608060405260043610610078576000357c0100000000000000000000000000000000000000000000000000000000900463ffffffff16806318160ddd1461007d57806370a08231146100a857806375e2ff65146100ff5780638328dbcd14610142578063a69e894e14610199578063b78b6087146101e6575b600080fd5b34801561008957600080fd5b506100926101fd565b6040518082815260200191505060405180910390f35b3480156100b457600080fd5b506100e9600480360381019080803573ffffffffffffffffffffffffffffffffffffffff169060200190929190505050610203565b6040518082815260200191505060405180910390f35b34801561010b57600080fd5b50610140600480360381019080803573ffffffffffffffffffffffffffffffffffffffff16906020019092919050505061021b565b005b34801561014e57600080fd5b5061015761040e565b604051808273ffffffffffffffffffffffffffffffffffffffff1673ffffffffffffffffffffffffffffffffffffffff16815260200191505060405180910390f35b3480156101a557600080fd5b506101e4600480360381019080803573ffffffffffffffffffffffffffffffffffffffff16906020019092919080359060200190929190505050610433565b005b3480156101f257600080fd5b506101fb6107a1565b005b60025481565b60036020528060005260406000206000915090505481565b600073ffffffffffffffffffffffffffffffffffffffff166000809054906101000a900473ffffffffffffffffffffffffffffffffffffffff1673ffffffffffffffffffffffffffffffffffffffff161415156102e0576040517f08c379a000000000000000000000000000000000000000000000000000000000815260040180806020018281038252601e8152602001807f4d6967726174696f6e204167656e742077617320736574206561726c6c79000081525060200191505060405180910390fd5b600160009054906101000a900473ffffffffffffffffffffffffffffffffffffffff1673ffffffffffffffffffffffffffffffffffffffff163373ffffffffffffffffffffffffffffffffffffffff161415156103cb576040517f08c379a00000000000000000000000000000000000000000000000000000000081526004018080602001828103825260248152602001807f4f6e6c79206f776e6572206f6620636f6e74726163742063616e2063616c6c2081526020017f746869730000000000000000000000000000000000000000000000000000000081525060400191505060405180910390fd5b806000806101000a81548173ffffffffffffffffffffffffffffffffffffffff021916908373ffffffffffffffffffffffffffffffffffffffff16021790555050565b6000809054906101000a900473ffffffffffffffffffffffffffffffffffffffff1681565b60011515600160149054906101000a900460ff1615151415156104e4576040517f08c379a00000000000000000000000000000000000000000000000000000000081526004018080602001828103825260308152602001807f536f7272792c20627574207765206e6f7420646574656374206d69677261746981526020017f6f6e20746f206e657720746f6b656e2e0000000000000000000000000000000081525060400191505060405180910390fd5b600073ffffffffffffffffffffffffffffffffffffffff166000809054906101000a900473ffffffffffffffffffffffffffffffffffffffff1673ffffffffffffffffffffffffffffffffffffffff16141515156105d0576040517f08c379a00000000000000000000000000000000000000000000000000000000081526004018080602001828103825260218152602001807f4d6967726174696f6e204167656e74207761736e277420736574206561726c6c81526020017f790000000000000000000000000000000000000000000000000000000000000081525060400191505060405180910390fd5b6000809054906101000a900473ffffffffffffffffffffffffffffffffffffffff1673ffffffffffffffffffffffffffffffffffffffff163373ffffffffffffffffffffffffffffffffffffffff161415156106ba576040517f08c379a00000000000000000000000000000000000000000000000000000000081526004018080602001828103825260298152602001807f536f7272792c206974732063616c6c73206f6e6c792066726f6d206d6967726181526020017f74696f6e4167656e74000000000000000000000000000000000000000000000081525060400191505060405180910390fd5b80600360008473ffffffffffffffffffffffffffffffffffffffff1673ffffffffffffffffffffffffffffffffffffffff16815260200190815260200160002060008282540192505081905550806002600082825401925050819055508173ffffffffffffffffffffffffffffffffffffffff166000809054906101000a900473ffffffffffffffffffffffffffffffffffffffff1673ffffffffffffffffffffffffffffffffffffffff167fddf252ad1be2c89b69c2b068fc378daa952ba7f163c4a11628f55a4df523b3ef836040518082815260200191505060405180910390a35050565b6000809054906101000a900473ffffffffffffffffffffffffffffffffffffffff1673ffffffffffffffffffffffffffffffffffffffff163373ffffffffffffffffffffffffffffffffffffffff1614151561088b576040517f08c379a00000000000000000000000000000000000000000000000000000000081526004018080602001828103825260258152602001807f43616c6c2066726f6d204e4f54204d6967726174696f6e4167656e7420436f6e81526020017f747261637400000000000000000000000000000000000000000000000000000081525060400191505060405180910390fd5b60008060006101000a81548173ffffffffffffffffffffffffffffffffffffffff021916908373ffffffffffffffffffffffffffffffffffffffff1602179055506000600160146101000a81548160ff0219169083151502179055505600a165627a7a7230582021a113376328032514b73a9372110ffe03ce4ba4b65af07a8f60e0cea82a9a400029",
  "source": "pragma solidity ^0.4.24;\nimport \"./TokenERC20.sol\";\ncontract newTokenERC20 {\n    /******* EXTEND **************/\n    address public migrationAgent = address(0);\n    address owner;\n    bool migrationStatus = true;\n    uint256 public totalSupply; // Migrate\n    mapping(address => uint256) public balanceOf; // Migrate\n    event Transfer(address indexed from, address indexed to, uint256 value);\n\n    constructor() public {\n        owner = msg.sender;\n    }\n\n\n    modifier isSetMigrationAgent(){\n        require(migrationAgent != address(0), \"Migration Agent wasn't set earlly\");\n        _;\n    }\n    modifier isItCallFormMigrationAgent(){\n        require(msg.sender == migrationAgent, \"Sorry, its calls only from migrationAgent\");\n        _;\n    }\n    /******* EXTEND **************/\n\n    modifier onlyOwner() {\n        require(msg.sender == owner, \"Only owner of contract can call this\");\n        _;\n    }\n\n    function setMigrationAgent(address _agent) external isNotSetMigrationAgent() onlyOwner() {\n        migrationAgent = _agent;\n    }\n\n    modifier isNotSetMigrationAgent(){\n        require(migrationAgent == address(0), \"Migration Agent was set earlly\");\n        _;\n    }\n\n    modifier isMigrationRun(){\n        require(migrationStatus == true, \"Sorry, but we not detect migration to new token.\");\n        _;\n    }\n    modifier isCallFromMigrationAgent(){\n        require(msg.sender == migrationAgent, \"Call from NOT MigrationAgent Contract\");\n        _;\n    }\n    function createTokens(address _to, uint _value) public isMigrationRun() isSetMigrationAgent() isItCallFormMigrationAgent(){\n        balanceOf[_to] += _value;\n        totalSupply += _value;\n        emit Transfer(migrationAgent, _to, _value);\n    }\n    // Set contract from here we get tokens and check it!\n    function finalizeMigration() public isCallFromMigrationAgent() {\n        migrationAgent = address(0);\n        migrationStatus = false;\n    }\n}",
  "sourcePath": "/home/kostiantyn/Projects/hashlottery2/smart_contracts/contracts/newTokenERC20.sol",
  "compiler": {
    "name": "solc",
    "version": "0.4.24+commit.e67f0147.Emscripten.clang"
  },
  "schemaVersion": "2.0.1",
  "updatedAt": "2018-11-17T12:25:56.286Z"
}