{
  "contractName": "PrizePool",
  "abi": [
    {
      "constant": true,
      "inputs": [],
      "name": "initComplete",
      "outputs": [
        {
          "name": "",
          "type": "bool"
        }
      ],
      "payable": false,
      "stateMutability": "view",
      "type": "function"
    },
    {
      "constant": true,
      "inputs": [],
      "name": "kassaContractAddress",
      "outputs": [
        {
          "name": "",
          "type": "address"
        }
      ],
      "payable": false,
      "stateMutability": "view",
      "type": "function"
    },
    {
      "constant": true,
      "inputs": [],
      "name": "prizePool",
      "outputs": [
        {
          "name": "",
          "type": "uint256"
        }
      ],
      "payable": false,
      "stateMutability": "view",
      "type": "function"
    },
    {
      "constant": true,
      "inputs": [],
      "name": "owner",
      "outputs": [
        {
          "name": "",
          "type": "address"
        }
      ],
      "payable": false,
      "stateMutability": "view",
      "type": "function"
    },
    {
      "constant": true,
      "inputs": [],
      "name": "lotteryDrawContractAddress",
      "outputs": [
        {
          "name": "",
          "type": "address"
        }
      ],
      "payable": false,
      "stateMutability": "view",
      "type": "function"
    },
    {
      "constant": true,
      "inputs": [],
      "name": "reservedMoney",
      "outputs": [
        {
          "name": "",
          "type": "uint256"
        }
      ],
      "payable": false,
      "stateMutability": "view",
      "type": "function"
    },
    {
      "inputs": [],
      "payable": false,
      "stateMutability": "nonpayable",
      "type": "constructor"
    },
    {
      "payable": true,
      "stateMutability": "payable",
      "type": "fallback"
    },
    {
      "constant": true,
      "inputs": [],
      "name": "getPrizePoolBalance",
      "outputs": [
        {
          "name": "",
          "type": "uint256"
        }
      ],
      "payable": false,
      "stateMutability": "view",
      "type": "function"
    },
    {
      "constant": false,
      "inputs": [
        {
          "name": "winnersCount",
          "type": "uint256"
        }
      ],
      "name": "determineWinners",
      "outputs": [
        {
          "name": "",
          "type": "uint256"
        }
      ],
      "payable": false,
      "stateMutability": "nonpayable",
      "type": "function"
    },
    {
      "constant": false,
      "inputs": [
        {
          "name": "winner",
          "type": "address"
        },
        {
          "name": "value",
          "type": "uint256"
        }
      ],
      "name": "sendToWinner",
      "outputs": [],
      "payable": false,
      "stateMutability": "nonpayable",
      "type": "function"
    },
    {
      "constant": false,
      "inputs": [
        {
          "name": "_address",
          "type": "address"
        }
      ],
      "name": "setKassaContractAddress",
      "outputs": [],
      "payable": false,
      "stateMutability": "nonpayable",
      "type": "function"
    },
    {
      "constant": false,
      "inputs": [
        {
          "name": "_address",
          "type": "address"
        }
      ],
      "name": "setLotteryDrawContractAddress",
      "outputs": [],
      "payable": false,
      "stateMutability": "nonpayable",
      "type": "function"
    },
    {
      "constant": true,
      "inputs": [],
      "name": "isInitComplete",
      "outputs": [
        {
          "name": "",
          "type": "bool"
        }
      ],
      "payable": false,
      "stateMutability": "view",
      "type": "function"
    }
  ],
  "bytecode": "0x608060405260006002556000600360146101000a81548160ff02191690831515021790555034801561003057600080fd5b5033600360006101000a81548173ffffffffffffffffffffffffffffffffffffffff021916908373ffffffffffffffffffffffffffffffffffffffff160217905550611282806100816000396000f3006080604052600436106100ba576000357c0100000000000000000000000000000000000000000000000000000000900463ffffffff168063041626a2146100bc57806307a14ff9146100eb5780631feb945c1461012e5780634aa023631461015d5780635f1e62ba146101aa578063719ce73e146102015780638da5cb5b1461022c578063932562f114610283578063a1f4abed146102c6578063c2ccb6da1461031d578063c5929bc714610348578063f24f069d14610389575b005b3480156100c857600080fd5b506100d16103b4565b604051808215151515815260200191505060405180910390f35b3480156100f757600080fd5b5061012c600480360381019080803573ffffffffffffffffffffffffffffffffffffffff169060200190929190505050610487565b005b34801561013a57600080fd5b50610143610762565b604051808215151515815260200191505060405180910390f35b34801561016957600080fd5b506101a8600480360381019080803573ffffffffffffffffffffffffffffffffffffffff16906020019092919080359060200190929190505050610775565b005b3480156101b657600080fd5b506101bf610a30565b604051808273ffffffffffffffffffffffffffffffffffffffff1673ffffffffffffffffffffffffffffffffffffffff16815260200191505060405180910390f35b34801561020d57600080fd5b50610216610a55565b6040518082815260200191505060405180910390f35b34801561023857600080fd5b50610241610a5b565b604051808273ffffffffffffffffffffffffffffffffffffffff1673ffffffffffffffffffffffffffffffffffffffff16815260200191505060405180910390f35b34801561028f57600080fd5b506102c4600480360381019080803573ffffffffffffffffffffffffffffffffffffffff169060200190929190505050610a81565b005b3480156102d257600080fd5b506102db610d5a565b604051808273ffffffffffffffffffffffffffffffffffffffff1673ffffffffffffffffffffffffffffffffffffffff16815260200191505060405180910390f35b34801561032957600080fd5b50610332610d80565b6040518082815260200191505060405180910390f35b34801561035457600080fd5b5061037360048036038101908080359060200190929190505050610d86565b6040518082815260200191505060405180910390f35b34801561039557600080fd5b5061039e61118e565b6040518082815260200191505060405180910390f35b6000600360149054906101000a900460ff16156103d45760019050610484565b600073ffffffffffffffffffffffffffffffffffffffff16600160009054906101000a900473ffffffffffffffffffffffffffffffffffffffff1673ffffffffffffffffffffffffffffffffffffffff16141580156104815750600073ffffffffffffffffffffffffffffffffffffffff166000809054906101000a900473ffffffffffffffffffffffffffffffffffffffff1673ffffffffffffffffffffffffffffffffffffffff1614155b90505b90565b600360009054906101000a900473ffffffffffffffffffffffffffffffffffffffff1673ffffffffffffffffffffffffffffffffffffffff163373ffffffffffffffffffffffffffffffffffffffff16141515610572576040517f08c379a00000000000000000000000000000000000000000000000000000000081526004018080602001828103825260248152602001807f4f6e6c79206f776e6572206f6620636f6e74726163742063616e2063616c6c2081526020017f746869730000000000000000000000000000000000000000000000000000000081525060400191505060405180910390fd5b600073ffffffffffffffffffffffffffffffffffffffff16600160009054906101000a900473ffffffffffffffffffffffffffffffffffffffff1673ffffffffffffffffffffffffffffffffffffffff1614151561065e576040517f08c379a00000000000000000000000000000000000000000000000000000000081526004018080602001828103825260298152602001807f6c6f747465727944726177436f6e74726163744164647265737320697320616c81526020017f726561647920736574000000000000000000000000000000000000000000000081525060400191505060405180910390fd5b80600160006101000a81548173ffffffffffffffffffffffffffffffffffffffff021916908373ffffffffffffffffffffffffffffffffffffffff1602179055503073ffffffffffffffffffffffffffffffffffffffff1663041626a26040518163ffffffff167c0100000000000000000000000000000000000000000000000000000000028152600401602060405180830381600087803b15801561070357600080fd5b505af1158015610717573d6000803e3d6000fd5b505050506040513d602081101561072d57600080fd5b81019080805190602001909291905050501561075f576001600360146101000a81548160ff0219169083151502179055505b50565b600360149054906101000a900460ff1681565b600360149054906101000a900460ff1615156107f9576040517f08c379a00000000000000000000000000000000000000000000000000000000081526004018080602001828103825260118152602001807f696e6974206e6f7420636f6d706c65746500000000000000000000000000000081525060200191505060405180910390fd5b6000809054906101000a900473ffffffffffffffffffffffffffffffffffffffff1673ffffffffffffffffffffffffffffffffffffffff163373ffffffffffffffffffffffffffffffffffffffff161415156108bd576040517f08c379a000000000000000000000000000000000000000000000000000000000815260040180806020018281038252601d8152602001807f6f6e6c79206b61737361436f6e747261637420697320616c6c6f77656400000081525060200191505060405180910390fd5b600081111515610935576040517f08c379a00000000000000000000000000000000000000000000000000000000081526004018080602001828103825260118152602001807f56616c7565206d757374206265203e203000000000000000000000000000000081525060200191505060405180910390fd5b80600254101515156109d5576040517f08c379a00000000000000000000000000000000000000000000000000000000081526004018080602001828103825260238152602001807f5265736572766564206d6f6e657920616d6f756e74206973206e6f7420656e6f81526020017f756768000000000000000000000000000000000000000000000000000000000081525060400191505060405180910390fd5b806002600082825403925050819055508173ffffffffffffffffffffffffffffffffffffffff166108fc829081150290604051600060405180830381858888f19350505050158015610a2b573d6000803e3d6000fd5b505050565b6000809054906101000a900473ffffffffffffffffffffffffffffffffffffffff1681565b60045481565b600360009054906101000a900473ffffffffffffffffffffffffffffffffffffffff1681565b600360009054906101000a900473ffffffffffffffffffffffffffffffffffffffff1673ffffffffffffffffffffffffffffffffffffffff163373ffffffffffffffffffffffffffffffffffffffff16141515610b6c576040517f08c379a00000000000000000000000000000000000000000000000000000000081526004018080602001828103825260248152602001807f4f6e6c79206f776e6572206f6620636f6e74726163742063616e2063616c6c2081526020017f746869730000000000000000000000000000000000000000000000000000000081525060400191505060405180910390fd5b600073ffffffffffffffffffffffffffffffffffffffff166000809054906101000a900473ffffffffffffffffffffffffffffffffffffffff1673ffffffffffffffffffffffffffffffffffffffff16141515610c57576040517f08c379a00000000000000000000000000000000000000000000000000000000081526004018080602001828103825260238152602001807f6b61737361436f6e74726163744164647265737320697320616c72656164792081526020017f736574000000000000000000000000000000000000000000000000000000000081525060400191505060405180910390fd5b806000806101000a81548173ffffffffffffffffffffffffffffffffffffffff021916908373ffffffffffffffffffffffffffffffffffffffff1602179055503073ffffffffffffffffffffffffffffffffffffffff1663041626a26040518163ffffffff167c0100000000000000000000000000000000000000000000000000000000028152600401602060405180830381600087803b158015610cfb57600080fd5b505af1158015610d0f573d6000803e3d6000fd5b505050506040513d6020811015610d2557600080fd5b810190808051906020019092919050505015610d57576001600360146101000a81548160ff0219169083151502179055505b50565b600160009054906101000a900473ffffffffffffffffffffffffffffffffffffffff1681565b60025481565b6000600360149054906101000a900460ff161515610e0c576040517f08c379a00000000000000000000000000000000000000000000000000000000081526004018080602001828103825260118152602001807f696e6974206e6f7420636f6d706c65746500000000000000000000000000000081525060200191505060405180910390fd5b6000809054906101000a900473ffffffffffffffffffffffffffffffffffffffff1673ffffffffffffffffffffffffffffffffffffffff163373ffffffffffffffffffffffffffffffffffffffff16141515610ed0576040517f08c379a000000000000000000000000000000000000000000000000000000000815260040180806020018281038252601d8152602001807f6f6e6c79206b61737361436f6e747261637420697320616c6c6f77656400000081525060200191505060405180910390fd5b600360149054906101000a900460ff161515610f54576040517f08c379a00000000000000000000000000000000000000000000000000000000081526004018080602001828103825260118152602001807f696e6974206e6f7420636f6d706c65746500000000000000000000000000000081525060200191505060405180910390fd5b600160009054906101000a900473ffffffffffffffffffffffffffffffffffffffff1673ffffffffffffffffffffffffffffffffffffffff1663feff1a146040518163ffffffff167c0100000000000000000000000000000000000000000000000000000000028152600401602060405180830381600087803b158015610fda57600080fd5b505af1158015610fee573d6000803e3d6000fd5b505050506040513d602081101561100457600080fd5b810190808051906020019092919050505015156110af576040517f08c379a000000000000000000000000000000000000000000000000000000000815260040180806020018281038252602b8152602001807f416363657074616e6365206f66206170706c69636174696f6e7320706572696f81526020017f642069736e277420656e6400000000000000000000000000000000000000000081525060400191505060405180910390fd5b3073ffffffffffffffffffffffffffffffffffffffff1663f24f069d6040518163ffffffff167c0100000000000000000000000000000000000000000000000000000000028152600401602060405180830381600087803b15801561111357600080fd5b505af1158015611127573d6000803e3d6000fd5b505050506040513d602081101561113d57600080fd5b810190808051906020019092919050505060048190555060008214156111665760009050611189565b6004546002600082825401925050819055508160045481151561118557fe5b0490505b919050565b6000803073ffffffffffffffffffffffffffffffffffffffff16319050600254811015151561124b576040517f08c379a00000000000000000000000000000000000000000000000000000000081526004018080602001828103825260398152602001807f5072697a6520706f6f6c2062616c616e636520697320696e636f72726563742c81526020017f20706c6561736520636f6e74616374207468652061646d696e0000000000000081525060400191505060405180910390fd5b6002548103915050905600a165627a7a723058207a6170738a0ade606373c49eca068452659c3c00afa834b9fcdd3ac1655f65910029",
  "source": "pragma solidity ^0.4.24;\n\nimport './TokenERC721.sol';\nimport './Draw.sol';\nimport './Kassa.sol';\n\n\ncontract PrizePool {\n\n    address public kassaContractAddress; // контракт кассы\n    address public lotteryDrawContractAddress; //контракт розыгрыша\n\n    uint256 public reservedMoney = 0; // зарезервированная часть средств\n\n    address public owner; // владелец контракта\n    bool public initComplete = false;\n\n    uint public prizePool; // размер призового фонда на текущий момент\n    \n    constructor() public {\n        owner = msg.sender;\n    }\n\n    modifier onlyOwner() {\n        require(msg.sender == owner\n        , \"Only owner of contract can call this\"\n        );\n        _;\n    }\n\n    modifier isAcceptanceOfApplicationsEnd() {\n        require(initComplete\n        , \"init not complete\"\n        );\n\n        require(Draw(lotteryDrawContractAddress).isWaitingWithdrawsPeriod()\n        , \"Acceptance of applications period isn't end\"\n        );\n        _;\n    }\n\n    modifier isKassaContract() {\n        require(initComplete\n        , \"init not complete\"\n        );\n        require(msg.sender == kassaContractAddress\n        , \"only kassaContract is allowed\"\n        );\n        _;\n    }\n\n    modifier isLotteryDrawContract() {\n        require(initComplete\n        , \"init not complete\"\n        );\n        require(msg.sender == lotteryDrawContractAddress\n        , \"only lotteryDrawContract is allowed\"\n        );\n        _;\n    }\n\n    function getPrizePoolBalance() public view returns (uint){\n        uint balance = address(this).balance;\n        require(balance >= reservedMoney\n        , \"Prize pool balance is incorrect, please contact the admin\"\n        );\n\n        return balance - reservedMoney;\n    }\n\n    function determineWinners(uint winnersCount) public isKassaContract isAcceptanceOfApplicationsEnd returns (uint){\n        prizePool = this.getPrizePoolBalance();\n        if (winnersCount == 0) {\n            return 0;\n        }\n        \n        reservedMoney += prizePool;\n        return prizePool / winnersCount;\n    }\n\n    function sendToWinner(address winner, uint value) public isKassaContract {\n        require(value > 0\n        , \"Value must be > 0\"\n        );\n        require(reservedMoney >= value\n        , \"Reserved money amount is not enough\"\n        );\n        reservedMoney -= value;\n        address(winner).transfer(value);\n    }\n\n    function setKassaContractAddress(address _address) public onlyOwner {\n        require(kassaContractAddress == address(0)\n        , \"kassaContractAddress is already set\"\n        );\n        kassaContractAddress = _address;\n        if (this.isInitComplete()) {\n            initComplete = true;\n        }\n    }\n\n    function setLotteryDrawContractAddress(address _address) public onlyOwner {\n        require(lotteryDrawContractAddress == address(0)\n        , \"lotteryDrawContractAddress is already set\"\n        );\n        lotteryDrawContractAddress = _address;\n        if (this.isInitComplete()) {\n            initComplete = true;\n        }\n    }\n\n    function isInitComplete() public view returns (bool) {\n        if (initComplete) {\n            return true;\n        }\n        return (lotteryDrawContractAddress != address(0))\n        && (kassaContractAddress != address(0));\n    }\n\n    function() payable public {\n\n    }\n}\n",
  "sourcePath": "/home/smartit-4/projects/hashlottery2/smart_contracts/contracts/lottery/PrizePool.sol",
  "compiler": {
    "name": "solc",
    "version": "0.4.24+commit.e67f0147.Emscripten.clang"
  },
  "schemaVersion": "2.0.1",
  "updatedAt": "2018-12-11T10:02:39.129Z"
}