{
  "contractName": "PrizePool",
  "abi": [
    {
      "constant": true,
      "inputs": [],
      "name": "initComplete",
      "outputs": [
        {
          "name": "",
          "type": "bool"
        }
      ],
      "payable": false,
      "stateMutability": "view",
      "type": "function"
    },
    {
      "constant": true,
      "inputs": [],
      "name": "kassaContractAddress",
      "outputs": [
        {
          "name": "",
          "type": "address"
        }
      ],
      "payable": false,
      "stateMutability": "view",
      "type": "function"
    },
    {
      "constant": true,
      "inputs": [],
      "name": "owner",
      "outputs": [
        {
          "name": "",
          "type": "address"
        }
      ],
      "payable": false,
      "stateMutability": "view",
      "type": "function"
    },
    {
      "constant": true,
      "inputs": [],
      "name": "lotteryDrawContractAddress",
      "outputs": [
        {
          "name": "",
          "type": "address"
        }
      ],
      "payable": false,
      "stateMutability": "view",
      "type": "function"
    },
    {
      "constant": true,
      "inputs": [],
      "name": "reservedMoney",
      "outputs": [
        {
          "name": "",
          "type": "uint256"
        }
      ],
      "payable": false,
      "stateMutability": "view",
      "type": "function"
    },
    {
      "inputs": [],
      "payable": false,
      "stateMutability": "nonpayable",
      "type": "constructor"
    },
    {
      "payable": true,
      "stateMutability": "payable",
      "type": "fallback"
    },
    {
      "constant": true,
      "inputs": [],
      "name": "getPrizePoolBalance",
      "outputs": [
        {
          "name": "",
          "type": "uint256"
        }
      ],
      "payable": false,
      "stateMutability": "view",
      "type": "function"
    },
    {
      "constant": false,
      "inputs": [
        {
          "name": "winnersCount",
          "type": "uint256"
        }
      ],
      "name": "determineWinners",
      "outputs": [
        {
          "name": "",
          "type": "uint256"
        }
      ],
      "payable": false,
      "stateMutability": "nonpayable",
      "type": "function"
    },
    {
      "constant": false,
      "inputs": [
        {
          "name": "winner",
          "type": "address"
        },
        {
          "name": "value",
          "type": "uint256"
        }
      ],
      "name": "sendToWinner",
      "outputs": [],
      "payable": false,
      "stateMutability": "nonpayable",
      "type": "function"
    },
    {
      "constant": false,
      "inputs": [
        {
          "name": "_address",
          "type": "address"
        }
      ],
      "name": "setKassaContractAddressAddress",
      "outputs": [],
      "payable": false,
      "stateMutability": "nonpayable",
      "type": "function"
    },
    {
      "constant": false,
      "inputs": [
        {
          "name": "_address",
          "type": "address"
        }
      ],
      "name": "setLotteryDrawContractAddress",
      "outputs": [],
      "payable": false,
      "stateMutability": "nonpayable",
      "type": "function"
    },
    {
      "constant": true,
      "inputs": [],
      "name": "isInitComplete",
      "outputs": [
        {
          "name": "",
          "type": "bool"
        }
      ],
      "payable": false,
      "stateMutability": "view",
      "type": "function"
    }
  ],
  "bytecode": "0x608060405260006002556000600360146101000a81548160ff02191690831515021790555034801561003057600080fd5b5033600360006101000a81548173ffffffffffffffffffffffffffffffffffffffff021916908373ffffffffffffffffffffffffffffffffffffffff160217905550611240806100816000396000f3006080604052600436106100af576000357c0100000000000000000000000000000000000000000000000000000000900463ffffffff168063041626a2146100b157806307a14ff9146100e05780631feb945c146101235780634aa02363146101525780635f1e62ba1461019f5780637fda314e146101f65780638da5cb5b14610239578063a1f4abed14610290578063c2ccb6da146102e7578063c5929bc714610312578063f24f069d14610353575b005b3480156100bd57600080fd5b506100c661037e565b604051808215151515815260200191505060405180910390f35b3480156100ec57600080fd5b50610121600480360381019080803573ffffffffffffffffffffffffffffffffffffffff169060200190929190505050610451565b005b34801561012f57600080fd5b5061013861072c565b604051808215151515815260200191505060405180910390f35b34801561015e57600080fd5b5061019d600480360381019080803573ffffffffffffffffffffffffffffffffffffffff1690602001909291908035906020019092919050505061073f565b005b3480156101ab57600080fd5b506101b46109fa565b604051808273ffffffffffffffffffffffffffffffffffffffff1673ffffffffffffffffffffffffffffffffffffffff16815260200191505060405180910390f35b34801561020257600080fd5b50610237600480360381019080803573ffffffffffffffffffffffffffffffffffffffff169060200190929190505050610a1f565b005b34801561024557600080fd5b5061024e610cf8565b604051808273ffffffffffffffffffffffffffffffffffffffff1673ffffffffffffffffffffffffffffffffffffffff16815260200191505060405180910390f35b34801561029c57600080fd5b506102a5610d1e565b604051808273ffffffffffffffffffffffffffffffffffffffff1673ffffffffffffffffffffffffffffffffffffffff16815260200191505060405180910390f35b3480156102f357600080fd5b506102fc610d44565b6040518082815260200191505060405180910390f35b34801561031e57600080fd5b5061033d60048036038101908080359060200190929190505050610d4a565b6040518082815260200191505060405180910390f35b34801561035f57600080fd5b5061036861114c565b6040518082815260200191505060405180910390f35b6000600360149054906101000a900460ff161561039e576001905061044e565b600073ffffffffffffffffffffffffffffffffffffffff16600160009054906101000a900473ffffffffffffffffffffffffffffffffffffffff1673ffffffffffffffffffffffffffffffffffffffff161415801561044b5750600073ffffffffffffffffffffffffffffffffffffffff166000809054906101000a900473ffffffffffffffffffffffffffffffffffffffff1673ffffffffffffffffffffffffffffffffffffffff1614155b90505b90565b600360009054906101000a900473ffffffffffffffffffffffffffffffffffffffff1673ffffffffffffffffffffffffffffffffffffffff163373ffffffffffffffffffffffffffffffffffffffff1614151561053c576040517f08c379a00000000000000000000000000000000000000000000000000000000081526004018080602001828103825260248152602001807f4f6e6c79206f776e6572206f6620636f6e74726163742063616e2063616c6c2081526020017f746869730000000000000000000000000000000000000000000000000000000081525060400191505060405180910390fd5b600073ffffffffffffffffffffffffffffffffffffffff16600160009054906101000a900473ffffffffffffffffffffffffffffffffffffffff1673ffffffffffffffffffffffffffffffffffffffff16141515610628576040517f08c379a00000000000000000000000000000000000000000000000000000000081526004018080602001828103825260298152602001807f6c6f747465727944726177436f6e74726163744164647265737320697320616c81526020017f726561647920736574000000000000000000000000000000000000000000000081525060400191505060405180910390fd5b80600160006101000a81548173ffffffffffffffffffffffffffffffffffffffff021916908373ffffffffffffffffffffffffffffffffffffffff1602179055503073ffffffffffffffffffffffffffffffffffffffff1663041626a26040518163ffffffff167c0100000000000000000000000000000000000000000000000000000000028152600401602060405180830381600087803b1580156106cd57600080fd5b505af11580156106e1573d6000803e3d6000fd5b505050506040513d60208110156106f757600080fd5b810190808051906020019092919050505015610729576001600360146101000a81548160ff0219169083151502179055505b50565b600360149054906101000a900460ff1681565b600360149054906101000a900460ff1615156107c3576040517f08c379a00000000000000000000000000000000000000000000000000000000081526004018080602001828103825260118152602001807f696e6974206e6f7420636f6d706c65746500000000000000000000000000000081525060200191505060405180910390fd5b6000809054906101000a900473ffffffffffffffffffffffffffffffffffffffff1673ffffffffffffffffffffffffffffffffffffffff163373ffffffffffffffffffffffffffffffffffffffff16141515610887576040517f08c379a000000000000000000000000000000000000000000000000000000000815260040180806020018281038252601d8152602001807f6f6e6c79206b61737361436f6e747261637420697320616c6c6f77656400000081525060200191505060405180910390fd5b6000811115156108ff576040517f08c379a00000000000000000000000000000000000000000000000000000000081526004018080602001828103825260118152602001807f56616c7565206d757374206265203e203000000000000000000000000000000081525060200191505060405180910390fd5b806002541015151561099f576040517f08c379a00000000000000000000000000000000000000000000000000000000081526004018080602001828103825260238152602001807f5265736572766564206d6f6e657920616d6f756e74206973206e6f7420656e6f81526020017f756768000000000000000000000000000000000000000000000000000000000081525060400191505060405180910390fd5b806002600082825403925050819055508173ffffffffffffffffffffffffffffffffffffffff166108fc829081150290604051600060405180830381858888f193505050501580156109f5573d6000803e3d6000fd5b505050565b6000809054906101000a900473ffffffffffffffffffffffffffffffffffffffff1681565b600360009054906101000a900473ffffffffffffffffffffffffffffffffffffffff1673ffffffffffffffffffffffffffffffffffffffff163373ffffffffffffffffffffffffffffffffffffffff16141515610b0a576040517f08c379a00000000000000000000000000000000000000000000000000000000081526004018080602001828103825260248152602001807f4f6e6c79206f776e6572206f6620636f6e74726163742063616e2063616c6c2081526020017f746869730000000000000000000000000000000000000000000000000000000081525060400191505060405180910390fd5b600073ffffffffffffffffffffffffffffffffffffffff166000809054906101000a900473ffffffffffffffffffffffffffffffffffffffff1673ffffffffffffffffffffffffffffffffffffffff16141515610bf5576040517f08c379a00000000000000000000000000000000000000000000000000000000081526004018080602001828103825260238152602001807f6b61737361436f6e74726163744164647265737320697320616c72656164792081526020017f736574000000000000000000000000000000000000000000000000000000000081525060400191505060405180910390fd5b806000806101000a81548173ffffffffffffffffffffffffffffffffffffffff021916908373ffffffffffffffffffffffffffffffffffffffff1602179055503073ffffffffffffffffffffffffffffffffffffffff1663041626a26040518163ffffffff167c0100000000000000000000000000000000000000000000000000000000028152600401602060405180830381600087803b158015610c9957600080fd5b505af1158015610cad573d6000803e3d6000fd5b505050506040513d6020811015610cc357600080fd5b810190808051906020019092919050505015610cf5576001600360146101000a81548160ff0219169083151502179055505b50565b600360009054906101000a900473ffffffffffffffffffffffffffffffffffffffff1681565b600160009054906101000a900473ffffffffffffffffffffffffffffffffffffffff1681565b60025481565b600080600360149054906101000a900460ff161515610dd1576040517f08c379a00000000000000000000000000000000000000000000000000000000081526004018080602001828103825260118152602001807f696e6974206e6f7420636f6d706c65746500000000000000000000000000000081525060200191505060405180910390fd5b6000809054906101000a900473ffffffffffffffffffffffffffffffffffffffff1673ffffffffffffffffffffffffffffffffffffffff163373ffffffffffffffffffffffffffffffffffffffff16141515610e95576040517f08c379a000000000000000000000000000000000000000000000000000000000815260040180806020018281038252601d8152602001807f6f6e6c79206b61737361436f6e747261637420697320616c6c6f77656400000081525060200191505060405180910390fd5b600360149054906101000a900460ff161515610f19576040517f08c379a00000000000000000000000000000000000000000000000000000000081526004018080602001828103825260118152602001807f696e6974206e6f7420636f6d706c65746500000000000000000000000000000081525060200191505060405180910390fd5b600160009054906101000a900473ffffffffffffffffffffffffffffffffffffffff1673ffffffffffffffffffffffffffffffffffffffff1663aa537c6d6040518163ffffffff167c0100000000000000000000000000000000000000000000000000000000028152600401602060405180830381600087803b158015610f9f57600080fd5b505af1158015610fb3573d6000803e3d6000fd5b505050506040513d6020811015610fc957600080fd5b81019080805190602001909291905050501515611074576040517f08c379a000000000000000000000000000000000000000000000000000000000815260040180806020018281038252602b8152602001807f416363657074616e6365206f66206170706c69636174696f6e7320706572696f81526020017f642069736e277420656e6400000000000000000000000000000000000000000081525060400191505060405180910390fd5b60008314156110865760009150611146565b3073ffffffffffffffffffffffffffffffffffffffff1663f24f069d6040518163ffffffff167c0100000000000000000000000000000000000000000000000000000000028152600401602060405180830381600087803b1580156110ea57600080fd5b505af11580156110fe573d6000803e3d6000fd5b505050506040513d602081101561111457600080fd5b8101908080519060200190929190505050905080600260008282540192505081905550828181151561114257fe5b0491505b50919050565b6000803073ffffffffffffffffffffffffffffffffffffffff163190506002548110151515611209576040517f08c379a00000000000000000000000000000000000000000000000000000000081526004018080602001828103825260398152602001807f5072697a6520706f6f6c2062616c616e636520697320696e636f72726563742c81526020017f20706c6561736520636f6e74616374207468652061646d696e0000000000000081525060400191505060405180910390fd5b6002548103915050905600a165627a7a723058201c69e552c7b47460c645236a3ebce35aea2736d95391139a3092cca24de879fa0029",
  "source": "pragma solidity ^0.4.24;\n\ncontract LotteryDraw {\n    function isAcceptanceOfApplicationsEnd() public returns (bool){}\n}\n\ncontract Kassa {\n}\n\ncontract PrizePool {\n\n    address public kassaContractAddress; // контракт кассы\n    address public lotteryDrawContractAddress; //контракт розыгрыша\n\n    uint256 public reservedMoney = 0; // зарезервированная часть средств\n\n    address public owner; // владелец контракта\n    bool public initComplete = false;\n\n    constructor() public {\n        owner = msg.sender;\n    }\n\n    modifier onlyOwner() {\n        require(msg.sender == owner\n        , \"Only owner of contract can call this\"\n        );\n        _;\n    }\n\n    modifier isAcceptanceOfApplicationsEnd() {\n        require(initComplete\n        , \"init not complete\"\n        );\n        require(LotteryDraw(lotteryDrawContractAddress).isAcceptanceOfApplicationsEnd()\n        , \"Acceptance of applications period isn't end\"\n        );\n        _;\n    }\n\n    modifier isKassaContract() {\n        require(initComplete\n        , \"init not complete\"\n        );\n        require(msg.sender == kassaContractAddress\n        , \"only kassaContract is allowed\"\n        );\n        _;\n    }\n\n    modifier isLotteryDrawContract() {\n        require(initComplete\n        , \"init not complete\"\n        );\n        require(msg.sender == lotteryDrawContractAddress\n        , \"only lotteryDrawContract is allowed\"\n        );\n        _;\n    }\n\n    function getPrizePoolBalance() public view returns (uint){\n        uint balance = address(this).balance;\n        require(balance >= reservedMoney\n        , \"Prize pool balance is incorrect, please contact the admin\"\n        );\n\n        return balance - reservedMoney;\n    }\n\n    function determineWinners(uint winnersCount) public isKassaContract isAcceptanceOfApplicationsEnd returns (uint){\n        if (winnersCount == 0) {\n            return 0;\n        }\n\n        uint prizePool = this.getPrizePoolBalance();\n        reservedMoney += prizePool;\n        return prizePool / winnersCount;\n    }\n\n    function sendToWinner(address winner, uint value) public isKassaContract {\n        require(value > 0\n        , \"Value must be > 0\"\n        );\n        require(reservedMoney >= value\n        , \"Reserved money amount is not enough\"\n        );\n        reservedMoney -= value;\n        address(winner).transfer(value);\n    }\n\n    function setKassaContractAddressAddress(address _address) public onlyOwner {\n        require(kassaContractAddress == address(0)\n        , \"kassaContractAddress is already set\"\n        );\n        kassaContractAddress = _address;\n        if (this.isInitComplete()) {\n            initComplete = true;\n        }\n    }\n\n    function setLotteryDrawContractAddress(address _address) public onlyOwner {\n        require(lotteryDrawContractAddress == address(0)\n        , \"lotteryDrawContractAddress is already set\"\n        );\n        lotteryDrawContractAddress = _address;\n        if (this.isInitComplete()) {\n            initComplete = true;\n        }\n    }\n\n    function isInitComplete() public view returns (bool) {\n        if (initComplete) {\n            return true;\n        }\n        return (lotteryDrawContractAddress != address(0))\n        && (kassaContractAddress != address(0));\n    }\n\n    function() payable public {\n\n    }\n}\n\n",
  "sourcePath": "/home/kostiantyn/Projects/hashlottery2/smart_contracts/contracts/lottery/PrizePool.sol",
  "compiler": {
    "name": "solc",
    "version": "0.4.24+commit.e67f0147.Emscripten.clang"
  },
  "schemaVersion": "2.0.1",
  "updatedAt": "2018-11-17T12:25:56.279Z"
}