{
  "contractName": "TokenERC721",
  "abi": [
    {
      "constant": true,
      "inputs": [
        {
          "name": "",
          "type": "uint256"
        }
      ],
      "name": "tokenExists",
      "outputs": [
        {
          "name": "",
          "type": "bool"
        }
      ],
      "payable": false,
      "stateMutability": "view",
      "type": "function"
    },
    {
      "constant": true,
      "inputs": [],
      "name": "name",
      "outputs": [
        {
          "name": "",
          "type": "string"
        }
      ],
      "payable": false,
      "stateMutability": "view",
      "type": "function"
    },
    {
      "constant": true,
      "inputs": [
        {
          "name": "",
          "type": "uint256"
        }
      ],
      "name": "dataOfTicket",
      "outputs": [
        {
          "name": "drawId",
          "type": "uint256"
        },
        {
          "name": "status",
          "type": "uint8"
        }
      ],
      "payable": false,
      "stateMutability": "view",
      "type": "function"
    },
    {
      "constant": true,
      "inputs": [],
      "name": "totalSupply",
      "outputs": [
        {
          "name": "",
          "type": "uint256"
        }
      ],
      "payable": false,
      "stateMutability": "view",
      "type": "function"
    },
    {
      "constant": true,
      "inputs": [
        {
          "name": "",
          "type": "address"
        },
        {
          "name": "",
          "type": "uint256"
        }
      ],
      "name": "tokenOfOwnerByIndex",
      "outputs": [
        {
          "name": "",
          "type": "uint256"
        }
      ],
      "payable": false,
      "stateMutability": "view",
      "type": "function"
    },
    {
      "constant": true,
      "inputs": [],
      "name": "allowedToMintInOneTransaction",
      "outputs": [
        {
          "name": "",
          "type": "uint8"
        }
      ],
      "payable": false,
      "stateMutability": "view",
      "type": "function"
    },
    {
      "constant": true,
      "inputs": [],
      "name": "lastIdOfToken",
      "outputs": [
        {
          "name": "",
          "type": "uint256"
        }
      ],
      "payable": false,
      "stateMutability": "view",
      "type": "function"
    },
    {
      "constant": true,
      "inputs": [],
      "name": "addressOfContractTicketsSale",
      "outputs": [
        {
          "name": "",
          "type": "address"
        }
      ],
      "payable": false,
      "stateMutability": "view",
      "type": "function"
    },
    {
      "constant": true,
      "inputs": [
        {
          "name": "",
          "type": "uint256"
        }
      ],
      "name": "ownerOf",
      "outputs": [
        {
          "name": "",
          "type": "address"
        }
      ],
      "payable": false,
      "stateMutability": "view",
      "type": "function"
    },
    {
      "constant": true,
      "inputs": [
        {
          "name": "",
          "type": "uint256"
        }
      ],
      "name": "totalTicketsInDraw",
      "outputs": [
        {
          "name": "",
          "type": "uint256"
        }
      ],
      "payable": false,
      "stateMutability": "view",
      "type": "function"
    },
    {
      "constant": true,
      "inputs": [
        {
          "name": "",
          "type": "address"
        }
      ],
      "name": "balanceOf",
      "outputs": [
        {
          "name": "",
          "type": "uint256"
        }
      ],
      "payable": false,
      "stateMutability": "view",
      "type": "function"
    },
    {
      "constant": true,
      "inputs": [],
      "name": "contractDraw",
      "outputs": [
        {
          "name": "",
          "type": "address"
        }
      ],
      "payable": false,
      "stateMutability": "view",
      "type": "function"
    },
    {
      "constant": true,
      "inputs": [],
      "name": "addressOfContractDraw",
      "outputs": [
        {
          "name": "",
          "type": "address"
        }
      ],
      "payable": false,
      "stateMutability": "view",
      "type": "function"
    },
    {
      "constant": true,
      "inputs": [],
      "name": "addressOfContractKassa",
      "outputs": [
        {
          "name": "",
          "type": "address"
        }
      ],
      "payable": false,
      "stateMutability": "view",
      "type": "function"
    },
    {
      "constant": true,
      "inputs": [],
      "name": "addressOfMigrationAgent",
      "outputs": [
        {
          "name": "",
          "type": "address"
        }
      ],
      "payable": false,
      "stateMutability": "view",
      "type": "function"
    },
    {
      "constant": true,
      "inputs": [],
      "name": "symbol",
      "outputs": [
        {
          "name": "",
          "type": "string"
        }
      ],
      "payable": false,
      "stateMutability": "view",
      "type": "function"
    },
    {
      "constant": true,
      "inputs": [
        {
          "name": "",
          "type": "uint256"
        }
      ],
      "name": "indexOfTokenForOwner",
      "outputs": [
        {
          "name": "",
          "type": "uint256"
        }
      ],
      "payable": false,
      "stateMutability": "view",
      "type": "function"
    },
    {
      "constant": true,
      "inputs": [],
      "name": "allowedToMigrateInOneTransaction",
      "outputs": [
        {
          "name": "",
          "type": "uint8"
        }
      ],
      "payable": false,
      "stateMutability": "view",
      "type": "function"
    },
    {
      "constant": true,
      "inputs": [],
      "name": "isSetAddressOfContractDraw",
      "outputs": [
        {
          "name": "",
          "type": "bool"
        }
      ],
      "payable": false,
      "stateMutability": "view",
      "type": "function"
    },
    {
      "constant": true,
      "inputs": [],
      "name": "isSetAddressOfContractTicketsSale",
      "outputs": [
        {
          "name": "",
          "type": "bool"
        }
      ],
      "payable": false,
      "stateMutability": "view",
      "type": "function"
    },
    {
      "constant": true,
      "inputs": [
        {
          "name": "",
          "type": "address"
        },
        {
          "name": "",
          "type": "uint256"
        }
      ],
      "name": "allowance",
      "outputs": [
        {
          "name": "",
          "type": "address"
        }
      ],
      "payable": false,
      "stateMutability": "view",
      "type": "function"
    },
    {
      "constant": true,
      "inputs": [],
      "name": "admin",
      "outputs": [
        {
          "name": "",
          "type": "address"
        }
      ],
      "payable": false,
      "stateMutability": "view",
      "type": "function"
    },
    {
      "inputs": [],
      "payable": false,
      "stateMutability": "nonpayable",
      "type": "constructor"
    },
    {
      "anonymous": false,
      "inputs": [
        {
          "indexed": true,
          "name": "_from",
          "type": "address"
        },
        {
          "indexed": true,
          "name": "_to",
          "type": "address"
        },
        {
          "indexed": false,
          "name": "_tokenId",
          "type": "uint256"
        }
      ],
      "name": "Transfer",
      "type": "event"
    },
    {
      "anonymous": false,
      "inputs": [
        {
          "indexed": true,
          "name": "_owner",
          "type": "address"
        },
        {
          "indexed": true,
          "name": "_approved",
          "type": "address"
        },
        {
          "indexed": false,
          "name": "_tokenId",
          "type": "uint256"
        }
      ],
      "name": "Approval",
      "type": "event"
    },
    {
      "anonymous": false,
      "inputs": [
        {
          "indexed": true,
          "name": "_owner",
          "type": "address"
        },
        {
          "indexed": false,
          "name": "_amountOfTokens",
          "type": "uint256"
        }
      ],
      "name": "Mint",
      "type": "event"
    },
    {
      "anonymous": false,
      "inputs": [
        {
          "indexed": false,
          "name": "_tokenId",
          "type": "uint256"
        }
      ],
      "name": "FillingTicket",
      "type": "event"
    },
    {
      "anonymous": false,
      "inputs": [
        {
          "indexed": false,
          "name": "_tokenId",
          "type": "uint256"
        }
      ],
      "name": "MigrateOneToken",
      "type": "event"
    },
    {
      "anonymous": false,
      "inputs": [
        {
          "indexed": false,
          "name": "_indexOfFirstTokenFromTheEnd",
          "type": "uint256"
        },
        {
          "indexed": false,
          "name": "_sizeOfChunk",
          "type": "uint8"
        },
        {
          "indexed": false,
          "name": "_needContinue",
          "type": "bool"
        }
      ],
      "name": "MigrateChunkOfTokens",
      "type": "event"
    },
    {
      "constant": false,
      "inputs": [
        {
          "name": "_address",
          "type": "address"
        }
      ],
      "name": "setAddressOfContractTicketsSale",
      "outputs": [],
      "payable": false,
      "stateMutability": "nonpayable",
      "type": "function"
    },
    {
      "constant": false,
      "inputs": [
        {
          "name": "_address",
          "type": "address"
        }
      ],
      "name": "setAddressOfContractDraw",
      "outputs": [],
      "payable": false,
      "stateMutability": "nonpayable",
      "type": "function"
    },
    {
      "constant": false,
      "inputs": [
        {
          "name": "_address",
          "type": "address"
        }
      ],
      "name": "setAddressOfContractKassa",
      "outputs": [],
      "payable": false,
      "stateMutability": "nonpayable",
      "type": "function"
    },
    {
      "constant": false,
      "inputs": [
        {
          "name": "_tokenId",
          "type": "uint256"
        }
      ],
      "name": "setTicketStatusWinning",
      "outputs": [],
      "payable": false,
      "stateMutability": "nonpayable",
      "type": "function"
    },
    {
      "constant": false,
      "inputs": [
        {
          "name": "_tokenId",
          "type": "uint256"
        }
      ],
      "name": "setTicketStatusPayed",
      "outputs": [],
      "payable": false,
      "stateMutability": "nonpayable",
      "type": "function"
    },
    {
      "constant": true,
      "inputs": [
        {
          "name": "_tokenId",
          "type": "uint256"
        }
      ],
      "name": "getDataOfTicket",
      "outputs": [
        {
          "name": "_drawId",
          "type": "uint256"
        },
        {
          "name": "_combinationOfTicket",
          "type": "bytes32[3]"
        },
        {
          "name": "_status",
          "type": "uint8"
        }
      ],
      "payable": false,
      "stateMutability": "view",
      "type": "function"
    },
    {
      "constant": false,
      "inputs": [
        {
          "name": "_owner",
          "type": "address"
        },
        {
          "name": "_amountOfTokens",
          "type": "uint256"
        }
      ],
      "name": "mint",
      "outputs": [],
      "payable": false,
      "stateMutability": "nonpayable",
      "type": "function"
    },
    {
      "constant": false,
      "inputs": [
        {
          "name": "_to",
          "type": "address"
        },
        {
          "name": "_tokenId",
          "type": "uint256"
        }
      ],
      "name": "transfer",
      "outputs": [],
      "payable": false,
      "stateMutability": "nonpayable",
      "type": "function"
    },
    {
      "constant": false,
      "inputs": [
        {
          "name": "_to",
          "type": "address"
        },
        {
          "name": "_tokenId",
          "type": "uint256"
        }
      ],
      "name": "approve",
      "outputs": [],
      "payable": false,
      "stateMutability": "nonpayable",
      "type": "function"
    },
    {
      "constant": false,
      "inputs": [
        {
          "name": "_tokenId",
          "type": "uint256"
        }
      ],
      "name": "takeOwnership",
      "outputs": [],
      "payable": false,
      "stateMutability": "nonpayable",
      "type": "function"
    },
    {
      "constant": false,
      "inputs": [
        {
          "name": "_tokenId",
          "type": "uint256"
        },
        {
          "name": "_numbers",
          "type": "bytes32[3]"
        }
      ],
      "name": "fillCombinationOfTicket",
      "outputs": [],
      "payable": false,
      "stateMutability": "nonpayable",
      "type": "function"
    },
    {
      "constant": false,
      "inputs": [
        {
          "name": "_addressOfMigrationAgent",
          "type": "address"
        }
      ],
      "name": "startOutcomingMigration",
      "outputs": [],
      "payable": false,
      "stateMutability": "nonpayable",
      "type": "function"
    },
    {
      "constant": false,
      "inputs": [
        {
          "name": "_tokenId",
          "type": "uint256"
        }
      ],
      "name": "migrateOneToken",
      "outputs": [],
      "payable": false,
      "stateMutability": "nonpayable",
      "type": "function"
    },
    {
      "constant": false,
      "inputs": [
        {
          "name": "_indexOfFirstTokenFromTheEnd",
          "type": "uint256"
        },
        {
          "name": "_sizeOfChunk",
          "type": "uint8"
        }
      ],
      "name": "migrateChunkOfTokens",
      "outputs": [],
      "payable": false,
      "stateMutability": "nonpayable",
      "type": "function"
    },
    {
      "constant": true,
      "inputs": [
        {
          "name": "ticketId",
          "type": "uint256"
        }
      ],
      "name": "getTicketCombination",
      "outputs": [
        {
          "name": "",
          "type": "bytes32[3]"
        }
      ],
      "payable": false,
      "stateMutability": "view",
      "type": "function"
    },
    {
      "constant": true,
      "inputs": [
        {
          "name": "ticketId",
          "type": "uint256"
        }
      ],
      "name": "getTicketDrawId",
      "outputs": [
        {
          "name": "",
          "type": "uint256"
        }
      ],
      "payable": false,
      "stateMutability": "view",
      "type": "function"
    },
    {
      "constant": true,
      "inputs": [
        {
          "name": "ticketId",
          "type": "uint256"
        }
      ],
      "name": "getTicketStatus",
      "outputs": [
        {
          "name": "",
          "type": "uint8"
        }
      ],
      "payable": false,
      "stateMutability": "view",
      "type": "function"
    }
  ],
  "bytecode": "0x60806040526014600460006101000a81548160ff021916908360ff160217905550600a600460016101000a81548160ff021916908360ff1602179055503480156200004957600080fd5b506040805190810160405280600c81526020017f686173686c6f747465727932000000000000000000000000000000000000000081525060009080519060200190620000979291906200012d565b506040805190810160405280600381526020017f484c32000000000000000000000000000000000000000000000000000000000081525060019080519060200190620000e59291906200012d565b5033600d60006101000a81548173ffffffffffffffffffffffffffffffffffffffff021916908373ffffffffffffffffffffffffffffffffffffffff160217905550620001dc565b828054600181600116156101000203166002900490600052602060002090601f016020900481019282601f106200017057805160ff1916838001178555620001a1565b82800160010185558215620001a1579182015b82811115620001a057825182559160200191906001019062000183565b5b509050620001b09190620001b4565b5090565b620001d991905b80821115620001d5576000816000905550600101620001bb565b5090565b90565b614d4680620001ec6000396000f3006080604052600436106101e2576000357c0100000000000000000000000000000000000000000000000000000000900463ffffffff168062923f9e146101e757806306fdde031461022c578063089acc9d146102bc578063095ea7b3146102ff5780630a35ffd11461034c57806318160ddd146103a25780631f63449e146103cd5780632924d25b146104105780632f745c591461043d578063313d5db91461049e57806340c10f19146104e157806346e47f751461052e5780634b85a4791461055f578063558a930b1461058a5780635bdd1bed146105b75780636146f9f2146105e457806363318df61461063b5780636352211e1461067e5780636c3ba671146106eb57806370a082311461072c57806376c6d84e1461078357806377d06100146107da5780637a87f011146108365780637c8e8b571461088d5780637e5c138d146108e45780638993dfa01461093b57806395d89b4114610975578063a9059cbb14610a05578063aa7e306014610a52578063b2e6ceeb14610a93578063b4e9ce5c14610ac0578063ba94019214610b45578063c50f5e2114610b76578063d341eb3114610bb7578063d76f69d114610c20578063d9032ff514610c4f578063ddc6a17114610c7e578063f851a44014610d0b578063fb87774c14610d62575b600080fd5b3480156101f357600080fd5b5061021260048036038101908080359060200190929190505050610db1565b604051808215151515815260200191505060405180910390f35b34801561023857600080fd5b50610241610dd1565b6040518080602001828103825283818151815260200191508051906020019080838360005b83811015610281578082015181840152602081019050610266565b50505050905090810190601f1680156102ae5780820380516001836020036101000a031916815260200191505b509250505060405180910390f35b3480156102c857600080fd5b506102fd600480360381019080803573ffffffffffffffffffffffffffffffffffffffff169060200190929190505050610e6f565b005b34801561030b57600080fd5b5061034a600480360381019080803573ffffffffffffffffffffffffffffffffffffffff1690602001909291908035906020019092919050505061108a565b005b34801561035857600080fd5b506103776004803603810190808035906020019092919050505061149a565b6040518083815260200182600381111561038d57fe5b60ff1681526020019250505060405180910390f35b3480156103ae57600080fd5b506103b76114cb565b6040518082815260200191505060405180910390f35b3480156103d957600080fd5b5061040e600480360381019080803573ffffffffffffffffffffffffffffffffffffffff1690602001909291905050506114d1565b005b34801561041c57600080fd5b5061043b600480360381019080803590602001909291905050506116c6565b005b34801561044957600080fd5b50610488600480360381019080803573ffffffffffffffffffffffffffffffffffffffff169060200190929190803590602001909291905050506118c5565b6040518082815260200191505060405180910390f35b3480156104aa57600080fd5b506104df600480360381019080803573ffffffffffffffffffffffffffffffffffffffff1690602001909291905050506118ea565b005b3480156104ed57600080fd5b5061052c600480360381019080803573ffffffffffffffffffffffffffffffffffffffff16906020019092919080359060200190929190505050611adf565b005b34801561053a57600080fd5b5061054361230e565b604051808260ff1660ff16815260200191505060405180910390f35b34801561056b57600080fd5b50610574612321565b6040518082815260200191505060405180910390f35b34801561059657600080fd5b506105b560048036038101908080359060200190929190505050612327565b005b3480156105c357600080fd5b506105e26004803603810190808035906020019092919050505061272b565b005b3480156105f057600080fd5b506105f9612c6d565b604051808273ffffffffffffffffffffffffffffffffffffffff1673ffffffffffffffffffffffffffffffffffffffff16815260200191505060405180910390f35b34801561064757600080fd5b5061067c600480360381019080803573ffffffffffffffffffffffffffffffffffffffff169060200190929190505050612c93565b005b34801561068a57600080fd5b506106a960048036038101908080359060200190929190505050612ec9565b604051808273ffffffffffffffffffffffffffffffffffffffff1673ffffffffffffffffffffffffffffffffffffffff16815260200191505060405180910390f35b3480156106f757600080fd5b5061071660048036038101908080359060200190929190505050612efc565b6040518082815260200191505060405180910390f35b34801561073857600080fd5b5061076d600480360381019080803573ffffffffffffffffffffffffffffffffffffffff169060200190929190505050612f14565b6040518082815260200191505060405180910390f35b34801561078f57600080fd5b50610798612f2c565b604051808273ffffffffffffffffffffffffffffffffffffffff1673ffffffffffffffffffffffffffffffffffffffff16815260200191505060405180910390f35b3480156107e657600080fd5b50610834600480360381019080803590602001909291908060600190600380602002604051908101604052809291908260036020028082843782019150505050509192919290505050612f52565b005b34801561084257600080fd5b5061084b613717565b604051808273ffffffffffffffffffffffffffffffffffffffff1673ffffffffffffffffffffffffffffffffffffffff16815260200191505060405180910390f35b34801561089957600080fd5b506108a261373d565b604051808273ffffffffffffffffffffffffffffffffffffffff1673ffffffffffffffffffffffffffffffffffffffff16815260200191505060405180910390f35b3480156108f057600080fd5b506108f9613763565b604051808273ffffffffffffffffffffffffffffffffffffffff1673ffffffffffffffffffffffffffffffffffffffff16815260200191505060405180910390f35b34801561094757600080fd5b5061097360048036038101908080359060200190929190803560ff169060200190929190505050613789565b005b34801561098157600080fd5b5061098a613c90565b6040518080602001828103825283818151815260200191508051906020019080838360005b838110156109ca5780820151818401526020810190506109af565b50505050905090810190601f1680156109f75780820380516001836020036101000a031916815260200191505b509250505060405180910390f35b348015610a1157600080fd5b50610a50600480360381019080803573ffffffffffffffffffffffffffffffffffffffff16906020019092919080359060200190929190505050613d2e565b005b348015610a5e57600080fd5b50610a7d60048036038101908080359060200190929190505050613d3d565b6040518082815260200191505060405180910390f35b348015610a9f57600080fd5b50610abe60048036038101908080359060200190929190505050613d55565b005b348015610acc57600080fd5b50610aeb60048036038101908080359060200190929190505050613ed5565b6040518084815260200183600360200280838360005b83811015610b1c578082015181840152602081019050610b01565b50505050905001826003811115610b2f57fe5b60ff168152602001935050505060405180910390f35b348015610b5157600080fd5b50610b5a613faa565b604051808260ff1660ff16815260200191505060405180910390f35b348015610b8257600080fd5b50610ba160048036038101908080359060200190929190505050613fbd565b6040518082815260200191505060405180910390f35b348015610bc357600080fd5b50610be260048036038101908080359060200190929190505050613fdd565b6040518082600360200280838360005b83811015610c0d578082015181840152602081019050610bf2565b5050505090500191505060405180910390f35b348015610c2c57600080fd5b50610c35614042565b604051808215151515815260200191505060405180910390f35b348015610c5b57600080fd5b50610c64614055565b604051808215151515815260200191505060405180910390f35b348015610c8a57600080fd5b50610cc9600480360381019080803573ffffffffffffffffffffffffffffffffffffffff16906020019092919080359060200190929190505050614068565b604051808273ffffffffffffffffffffffffffffffffffffffff1673ffffffffffffffffffffffffffffffffffffffff16815260200191505060405180910390f35b348015610d1757600080fd5b50610d206140aa565b604051808273ffffffffffffffffffffffffffffffffffffffff1673ffffffffffffffffffffffffffffffffffffffff16815260200191505060405180910390f35b348015610d6e57600080fd5b50610d8d600480360381019080803590602001909291905050506140d0565b60405180826003811115610d9d57fe5b60ff16815260200191505060405180910390f35b600b6020528060005260406000206000915054906101000a900460ff1681565b60008054600181600116156101000203166002900480601f016020809104026020016040519081016040528092919081815260200182805460018160011615610100020316600290048015610e675780601f10610e3c57610100808354040283529160200191610e67565b820191906000526020600020905b815481529060010190602001808311610e4a57829003601f168201915b505050505081565b600d60009054906101000a900473ffffffffffffffffffffffffffffffffffffffff1673ffffffffffffffffffffffffffffffffffffffff163373ffffffffffffffffffffffffffffffffffffffff16141515610f5a576040517f08c379a00000000000000000000000000000000000000000000000000000000081526004018080602001828103825260258152602001807f4f6e6c792061646d696e206f6620636f6e74726163742063616e2063616c6c2081526020017f746869732e00000000000000000000000000000000000000000000000000000081525060400191505060405180910390fd5b600073ffffffffffffffffffffffffffffffffffffffff16601160009054906101000a900473ffffffffffffffffffffffffffffffffffffffff1673ffffffffffffffffffffffffffffffffffffffff16141515611046576040517f08c379a00000000000000000000000000000000000000000000000000000000081526004018080602001828103825260268152602001807f41646472657373206f6620636f6e7472616374204b6173736120616c7265616481526020017f79207365742e000000000000000000000000000000000000000000000000000081525060400191505060405180910390fd5b80601160006101000a81548173ffffffffffffffffffffffffffffffffffffffff021916908373ffffffffffffffffffffffffffffffffffffffff16021790555050565b33816007600082815260200190815260200160002060009054906101000a900473ffffffffffffffffffffffffffffffffffffffff1673ffffffffffffffffffffffffffffffffffffffff168273ffffffffffffffffffffffffffffffffffffffff16141515611188576040517f08c379a00000000000000000000000000000000000000000000000000000000081526004018080602001828103825260258152602001807f53656e6465722069736e277420616e206f776e6572206f6620746f6b656e206281526020017f792069642e00000000000000000000000000000000000000000000000000000081525060400191505060405180910390fd5b826000600381111561119657fe5b600c600083815260200190815260200160002060040160009054906101000a900460ff1660038111156111c557fe5b141515611260576040517f08c379a00000000000000000000000000000000000000000000000000000000081526004018080602001828103825260298152602001807f46696c6c6564207469636b65742063616e6e6f74206265207472616e7366657281526020017f206f722066696c6c2e000000000000000000000000000000000000000000000081525060400191505060405180910390fd5b83600b600082815260200190815260200160002060009054906101000a900460ff1615156112f6576040517f08c379a00000000000000000000000000000000000000000000000000000000081526004018080602001828103825260148152602001807f546f6b656e20646f65736e27742065786973742e00000000000000000000000081525060200191505060405180910390fd5b33868073ffffffffffffffffffffffffffffffffffffffff168273ffffffffffffffffffffffffffffffffffffffff161415151561139c576040517f08c379a000000000000000000000000000000000000000000000000000000000815260040180806020018281038252601a8152602001807f53656e6465722063616e6e6f742062652072656369657665722e00000000000081525060200191505060405180910390fd5b87600a60003373ffffffffffffffffffffffffffffffffffffffff1673ffffffffffffffffffffffffffffffffffffffff168152602001908152602001600020600089815260200190815260200160002060006101000a81548173ffffffffffffffffffffffffffffffffffffffff021916908373ffffffffffffffffffffffffffffffffffffffff1602179055508773ffffffffffffffffffffffffffffffffffffffff163373ffffffffffffffffffffffffffffffffffffffff167f8c5be1e5ebec7d5bd14f71427d1e84f3dd0314c0f7b2291e5b200ac8c7c3b925896040518082815260200191505060405180910390a35050505050505050565b600c6020528060005260406000206000915090508060000154908060040160009054906101000a900460ff16905082565b60025481565b600d60009054906101000a900473ffffffffffffffffffffffffffffffffffffffff1673ffffffffffffffffffffffffffffffffffffffff163373ffffffffffffffffffffffffffffffffffffffff161415156115bc576040517f08c379a00000000000000000000000000000000000000000000000000000000081526004018080602001828103825260258152602001807f4f6e6c792061646d696e206f6620636f6e74726163742063616e2063616c6c2081526020017f746869732e00000000000000000000000000000000000000000000000000000081525060400191505060405180910390fd5b600073ffffffffffffffffffffffffffffffffffffffff16601060009054906101000a900473ffffffffffffffffffffffffffffffffffffffff1673ffffffffffffffffffffffffffffffffffffffff16141515611682576040517f08c379a000000000000000000000000000000000000000000000000000000000815260040180806020018281038252601c8152602001807f4d6967726174696f6e206167656e7420616c7265616479207365742e0000000081525060200191505060405180910390fd5b80601060006101000a81548173ffffffffffffffffffffffffffffffffffffffff021916908373ffffffffffffffffffffffffffffffffffffffff16021790555050565b601160009054906101000a900473ffffffffffffffffffffffffffffffffffffffff1673ffffffffffffffffffffffffffffffffffffffff163373ffffffffffffffffffffffffffffffffffffffff161415156117b1576040517f08c379a00000000000000000000000000000000000000000000000000000000081526004018080602001828103825260228152602001807f4f6e6c7920636f6e7472616374204b617373612063616e2063616c6c2074686981526020017f732e00000000000000000000000000000000000000000000000000000000000081525060400191505060405180910390fd5b80600260038111156117bf57fe5b600c600083815260200190815260200160002060040160009054906101000a900460ff1660038111156117ee57fe5b141515611889576040517f08c379a00000000000000000000000000000000000000000000000000000000081526004018080602001828103825260228152602001807f5469636b65742073686f756c642068617665207374617475732057696e6e696e81526020017f672e00000000000000000000000000000000000000000000000000000000000081525060400191505060405180910390fd5b6003600c600084815260200190815260200160002060040160006101000a81548160ff021916908360038111156118bc57fe5b02179055505050565b6008602052816000526040600020602052806000526040600020600091509150505481565b600d60009054906101000a900473ffffffffffffffffffffffffffffffffffffffff1673ffffffffffffffffffffffffffffffffffffffff163373ffffffffffffffffffffffffffffffffffffffff161415156119d5576040517f08c379a00000000000000000000000000000000000000000000000000000000081526004018080602001828103825260258152602001807f4f6e6c792061646d696e206f6620636f6e74726163742063616e2063616c6c2081526020017f746869732e00000000000000000000000000000000000000000000000000000081525060400191505060405180910390fd5b601160149054906101000a900460ff16151515611a80576040517f08c379a000000000000000000000000000000000000000000000000000000000815260040180806020018281038252602c8152602001807f41646472657373206f6620636f6e7472616374205469636b65747353616c652081526020017f616c7265616479207365742e000000000000000000000000000000000000000081525060400191505060405180910390fd5b80600e60006101000a81548173ffffffffffffffffffffffffffffffffffffffff021916908373ffffffffffffffffffffffffffffffffffffffff1602179055506001601160146101000a81548160ff02191690831515021790555050565b600080600080600073ffffffffffffffffffffffffffffffffffffffff16601060009054906101000a900473ffffffffffffffffffffffffffffffffffffffff1673ffffffffffffffffffffffffffffffffffffffff16141515611bab576040517f08c379a000000000000000000000000000000000000000000000000000000000815260040180806020018281038252601c8152602001807f4d6967726174696f6e206167656e7420616c7265616479207365742e0000000081525060200191505060405180910390fd5b601160159054906101000a900460ff161515611c55576040517f08c379a00000000000000000000000000000000000000000000000000000000081526004018080602001828103825260278152602001807f41646472657373206f6620636f6e747261637420447261772073686f756c642081526020017f6265207365742e0000000000000000000000000000000000000000000000000081525060400191505060405180910390fd5b600e60009054906101000a900473ffffffffffffffffffffffffffffffffffffffff1673ffffffffffffffffffffffffffffffffffffffff163373ffffffffffffffffffffffffffffffffffffffff16141515611d40576040517f08c379a000000000000000000000000000000000000000000000000000000000815260040180806020018281038252602a8152602001807f53656e6465722073686f756c642062652074686520636f6e747261637420546981526020017f636b65747353616c652e0000000000000000000000000000000000000000000081525060400191505060405180910390fd5b600073ffffffffffffffffffffffffffffffffffffffff168673ffffffffffffffffffffffffffffffffffffffff1614151515611de5576040517f08c379a00000000000000000000000000000000000000000000000000000000081526004018080602001828103825260128152602001807f4f776e65722063616e6e6f7420626520302e000000000000000000000000000081525060200191505060405180910390fd5b600460009054906101000a900460ff1660ff168511151515611e95576040517f08c379a000000000000000000000000000000000000000000000000000000000815260040180806020018281038252603a8152602001807f4f776e65722063616e6e6f74206d696e74206d6f7265207468616e203230207481526020017f69636b65747320696e206f6e65207472616e73616374696f6e2e00000000000081525060400191505060405180910390fd5b601260009054906101000a900473ffffffffffffffffffffffffffffffffffffffff1673ffffffffffffffffffffffffffffffffffffffff1663bca78fab6040518163ffffffff167c0100000000000000000000000000000000000000000000000000000000028152600401602060405180830381600087803b158015611f1b57600080fd5b505af1158015611f2f573d6000803e3d6000fd5b505050506040513d6020811015611f4557600080fd5b81019080805190602001909291905050509350601260009054906101000a900473ffffffffffffffffffffffffffffffffffffffff1673ffffffffffffffffffffffffffffffffffffffff166350e024a86040518163ffffffff167c0100000000000000000000000000000000000000000000000000000000028152600401602060405180830381600087803b158015611fde57600080fd5b505af1158015611ff2573d6000803e3d6000fd5b505050506040513d602081101561200857600080fd5b810190808051906020019092919050505015156120b3576040517f08c379a00000000000000000000000000000000000000000000000000000000081526004018080602001828103825260318152602001807f5374616765206f662063757272656e7420647261772073686f756c642062652081526020017f2753616c65206f66207469636b6574732700000000000000000000000000000081525060400191505060405180910390fd5b600660008773ffffffffffffffffffffffffffffffffffffffff1673ffffffffffffffffffffffffffffffffffffffff168152602001908152602001600020549250600160035401915060018583010390505b808211151561222a576001600b600084815260200190815260200160002060006101000a81548160ff021916908315150217905550856007600084815260200190815260200160002060006101000a81548173ffffffffffffffffffffffffffffffffffffffff021916908373ffffffffffffffffffffffffffffffffffffffff16021790555083600c60008481526020019081526020016000206000018190555081600860008873ffffffffffffffffffffffffffffffffffffffff1673ffffffffffffffffffffffffffffffffffffffff16815260200190815260200160002060008581526020019081526020016000208190555082600960008481526020019081526020016000208190555082806001019350508180600101925050612106565b846003600082825401925050819055508460026000828254019250508190555084600560008681526020019081526020016000206000828254019250508190555084600660008873ffffffffffffffffffffffffffffffffffffffff1673ffffffffffffffffffffffffffffffffffffffff168152602001908152602001600020600082825401925050819055508573ffffffffffffffffffffffffffffffffffffffff167f0f6798a560793a54c3bcfe86a93cde1e73087d944c0ea20544137d4121396885866040518082815260200191505060405180910390a2505050505050565b600460009054906101000a900460ff1681565b60035481565b601160159054906101000a900460ff1615156123d1576040517f08c379a00000000000000000000000000000000000000000000000000000000081526004018080602001828103825260278152602001807f41646472657373206f6620636f6e747261637420447261772073686f756c642081526020017f6265207365742e0000000000000000000000000000000000000000000000000081525060400191505060405180910390fd5b601160009054906101000a900473ffffffffffffffffffffffffffffffffffffffff1673ffffffffffffffffffffffffffffffffffffffff163373ffffffffffffffffffffffffffffffffffffffff161415156124bc576040517f08c379a00000000000000000000000000000000000000000000000000000000081526004018080602001828103825260228152602001807f4f6e6c7920636f6e7472616374204b617373612063616e2063616c6c2074686981526020017f732e00000000000000000000000000000000000000000000000000000000000081525060400191505060405180910390fd5b80600160038111156124ca57fe5b600c600083815260200190815260200160002060040160009054906101000a900460ff1660038111156124f957fe5b141515612594576040517f08c379a00000000000000000000000000000000000000000000000000000000081526004018080602001828103825260218152602001807f5469636b65742073686f756c642068617665207374617475732046696c6c656481526020017f2e0000000000000000000000000000000000000000000000000000000000000081525060400191505060405180910390fd5b601260009054906101000a900473ffffffffffffffffffffffffffffffffffffffff1673ffffffffffffffffffffffffffffffffffffffff1663186364ac6040518163ffffffff167c0100000000000000000000000000000000000000000000000000000000028152600401602060405180830381600087803b15801561261a57600080fd5b505af115801561262e573d6000803e3d6000fd5b505050506040513d602081101561264457600080fd5b810190808051906020019092919050505015156126ef576040517f08c379a000000000000000000000000000000000000000000000000000000000815260040180806020018281038252603e8152602001807f5374616765206f662063757272656e7420647261772073686f756c642062652081526020017f27416363657074696e672072657175657374206f6e2077696e6e696e6727000081525060400191505060405180910390fd5b6002600c600084815260200190815260200160002060040160006101000a81548160ff0219169083600381111561272257fe5b02179055505050565b612733614c36565b600073ffffffffffffffffffffffffffffffffffffffff16601060009054906101000a900473ffffffffffffffffffffffffffffffffffffffff1673ffffffffffffffffffffffffffffffffffffffff16141515156127fa576040517f08c379a000000000000000000000000000000000000000000000000000000000815260040180806020018281038252601a8152602001807f4d6967726174696f6e206167656e742069736e2774207365742e00000000000081525060200191505060405180910390fd5b33826007600082815260200190815260200160002060009054906101000a900473ffffffffffffffffffffffffffffffffffffffff1673ffffffffffffffffffffffffffffffffffffffff168273ffffffffffffffffffffffffffffffffffffffff161415156128f8576040517f08c379a00000000000000000000000000000000000000000000000000000000081526004018080602001828103825260258152602001807f53656e6465722069736e277420616e206f776e6572206f6620746f6b656e206281526020017f792069642e00000000000000000000000000000000000000000000000000000081525060400191505060405180910390fd5b83600b600082815260200190815260200160002060009054906101000a900460ff16151561298e576040517f08c379a00000000000000000000000000000000000000000000000000000000081526004018080602001828103825260148152602001807f546f6b656e20646f65736e27742065786973742e00000000000000000000000081525060200191505060405180910390fd5b600c60008681526020019081526020016000206060604051908101604052908160008201548152602001600182016003806020026040519081016040528092919082600380156129f7576020028201915b815460001916815260200190600101908083116129df575b505050505081526020016004820160009054906101000a900460ff166003811115612a1e57fe5b6003811115612a2957fe5b815250509350612a3b336000876140fd565b60006007600087815260200190815260200160002060006101000a81548173ffffffffffffffffffffffffffffffffffffffff021916908373ffffffffffffffffffffffffffffffffffffffff1602179055506000600b600087815260200190815260200160002060006101000a81548160ff0219169083151502179055506002600081548092919060019003919050555060056000856000015181526020019081526020016000206000815480929190600190039190505550601060009054906101000a900473ffffffffffffffffffffffffffffffffffffffff1673ffffffffffffffffffffffffffffffffffffffff1663567d043d33878760000151886020015189604001516003811115612b4f57fe5b6040518663ffffffff167c0100000000000000000000000000000000000000000000000000000000028152600401808673ffffffffffffffffffffffffffffffffffffffff1673ffffffffffffffffffffffffffffffffffffffff16815260200185815260200184815260200183600360200280838360005b83811015612be3578082015181840152602081019050612bc8565b505050509050018260ff1660ff16815260200195505050505050600060405180830381600087803b158015612c1757600080fd5b505af1158015612c2b573d6000803e3d6000fd5b505050507f971d2b5c96fb854638604b7908e15ec2cc48b5afc367e1e1ea3f3a24e7a04db5856040518082815260200191505060405180910390a15050505050565b600e60009054906101000a900473ffffffffffffffffffffffffffffffffffffffff1681565b600d60009054906101000a900473ffffffffffffffffffffffffffffffffffffffff1673ffffffffffffffffffffffffffffffffffffffff163373ffffffffffffffffffffffffffffffffffffffff16141515612d7e576040517f08c379a00000000000000000000000000000000000000000000000000000000081526004018080602001828103825260258152602001807f4f6e6c792061646d696e206f6620636f6e74726163742063616e2063616c6c2081526020017f746869732e00000000000000000000000000000000000000000000000000000081525060400191505060405180910390fd5b601160159054906101000a900460ff16151515612e29576040517f08c379a00000000000000000000000000000000000000000000000000000000081526004018080602001828103825260258152602001807f41646472657373206f6620636f6e7472616374204472617720616c726561647981526020017f207365742e00000000000000000000000000000000000000000000000000000081525060400191505060405180910390fd5b80600f60006101000a81548173ffffffffffffffffffffffffffffffffffffffff021916908373ffffffffffffffffffffffffffffffffffffffff16021790555080601260006101000a81548173ffffffffffffffffffffffffffffffffffffffff021916908373ffffffffffffffffffffffffffffffffffffffff1602179055506001601160156101000a81548160ff02191690831515021790555050565b60076020528060005260406000206000915054906101000a900473ffffffffffffffffffffffffffffffffffffffff1681565b60056020528060005260406000206000915090505481565b60066020528060005260406000206000915090505481565b601260009054906101000a900473ffffffffffffffffffffffffffffffffffffffff1681565b60008033846007600082815260200190815260200160002060009054906101000a900473ffffffffffffffffffffffffffffffffffffffff1673ffffffffffffffffffffffffffffffffffffffff168273ffffffffffffffffffffffffffffffffffffffff16141515613053576040517f08c379a00000000000000000000000000000000000000000000000000000000081526004018080602001828103825260258152602001807f53656e6465722069736e277420616e206f776e6572206f6620746f6b656e206281526020017f792069642e00000000000000000000000000000000000000000000000000000081525060400191505060405180910390fd5b856000600381111561306157fe5b600c600083815260200190815260200160002060040160009054906101000a900460ff16600381111561309057fe5b14151561312b576040517f08c379a00000000000000000000000000000000000000000000000000000000081526004018080602001828103825260298152602001807f46696c6c6564207469636b65742063616e6e6f74206265207472616e7366657281526020017f206f722066696c6c2e000000000000000000000000000000000000000000000081525060400191505060405180910390fd5b85600160038110151561313a57fe5b60200201516000191686600060038110151561315257fe5b60200201516000191614158015613197575085600260038110151561317357fe5b60200201516000191686600060038110151561318b57fe5b60200201516000191614155b80156131d157508560026003811015156131ad57fe5b6020020151600019168660016003811015156131c557fe5b60200201516000191614155b1515613245576040517f08c379a00000000000000000000000000000000000000000000000000000000081526004018080602001828103825260168152602001807f4e756d626572732063616e6e6f74207265706561742e0000000000000000000081525060200191505060405180910390fd5b600073ffffffffffffffffffffffffffffffffffffffff16600a60003373ffffffffffffffffffffffffffffffffffffffff1673ffffffffffffffffffffffffffffffffffffffff168152602001908152602001600020600089815260200190815260200160002060009054906101000a900473ffffffffffffffffffffffffffffffffffffffff1673ffffffffffffffffffffffffffffffffffffffff1614151561337f576040517f08c379a00000000000000000000000000000000000000000000000000000000081526004018080602001828103825260228152602001807f53656e6465722063616e6e6f742066696c6c2070726f6d6973656420746f6b6581526020017f6e2e00000000000000000000000000000000000000000000000000000000000081525060400191505060405180910390fd5b601260009054906101000a900473ffffffffffffffffffffffffffffffffffffffff1673ffffffffffffffffffffffffffffffffffffffff1663bca78fab6040518163ffffffff167c0100000000000000000000000000000000000000000000000000000000028152600401602060405180830381600087803b15801561340557600080fd5b505af1158015613419573d6000803e3d6000fd5b505050506040513d602081101561342f57600080fd5b81019080805190602001909291905050509450600c600088815260200190815260200160002060000154935083851415156134f8576040517f08c379a00000000000000000000000000000000000000000000000000000000081526004018080602001828103825260358152602001807f46696c6c696e67206f66207469636b657420697320617661696c61626c65206f81526020017f6e6c7920666f722063757272656e7420647261772e000000000000000000000081525060400191505060405180910390fd5b601260009054906101000a900473ffffffffffffffffffffffffffffffffffffffff1673ffffffffffffffffffffffffffffffffffffffff166376198edb6040518163ffffffff167c0100000000000000000000000000000000000000000000000000000000028152600401602060405180830381600087803b15801561357e57600080fd5b505af1158015613592573d6000803e3d6000fd5b505050506040513d60208110156135a857600080fd5b81019080805190602001909291905050501515613679576040517f08c379a00000000000000000000000000000000000000000000000000000000081526004018080602001828103825260538152602001807f5374616765206f662063757272656e7420647261772073686f756c642062652081526020017f2753616c65206f66207469636b65747327206f72202746696c6c696e6720746981526020017f636b65747320776974686f75742073616c65270000000000000000000000000081525060600191505060405180910390fd5b85600c600089815260200190815260200160002060010190600361369e929190614c69565b506001600c600089815260200190815260200160002060040160006101000a81548160ff021916908360038111156136d257fe5b02179055507f6816f8e6680233f7b1b28929c5295fe158c55358f73e356313b06d25f73f124e876040518082815260200191505060405180910390a150505050505050565b600f60009054906101000a900473ffffffffffffffffffffffffffffffffffffffff1681565b601160009054906101000a900473ffffffffffffffffffffffffffffffffffffffff1681565b601060009054906101000a900473ffffffffffffffffffffffffffffffffffffffff1681565b600080600080600080600073ffffffffffffffffffffffffffffffffffffffff16601060009054906101000a900473ffffffffffffffffffffffffffffffffffffffff1673ffffffffffffffffffffffffffffffffffffffff1614151515613859576040517f08c379a000000000000000000000000000000000000000000000000000000000815260040180806020018281038252601a8152602001807f4d6967726174696f6e206167656e742069736e2774207365742e00000000000081525060200191505060405180910390fd5b600660003373ffffffffffffffffffffffffffffffffffffffff1673ffffffffffffffffffffffffffffffffffffffff168152602001908152602001600020549550600194508660ff16600460019054906101000a900460ff1660ff1610151515613952576040517f08c379a000000000000000000000000000000000000000000000000000000000815260040180806020018281038252603d8152602001807f53656e6465722063616e6e6f74206d696772617465206d6f726520746f6b656e81526020017f73207468616e20313020696e206f6e65207472616e73616374696f6e2e00000081525060400191505060405180910390fd5b8660ff1686101515156139f3576040517f08c379a000000000000000000000000000000000000000000000000000000000815260040180806020018281038252602e8152602001807f53656e6465722063616e6e6f74206d696772617465206d6f726520746f6b656e81526020017f73207468616e206865206861732e00000000000000000000000000000000000081525060400191505060405180910390fd5b6001860388141515613ab9576040517f08c379a000000000000000000000000000000000000000000000000000000000815260040180806020018281038252604d8152602001807f496e646578206f6620666972737420746f6b656e2066726f6d2074686520656e81526020017f642073686f756c6420626520746865206c61737420696e646578206f6620746f81526020017f6b656e206f66206f776e65722e0000000000000000000000000000000000000081525060600191505060405180910390fd5b601260009054906101000a900473ffffffffffffffffffffffffffffffffffffffff1673ffffffffffffffffffffffffffffffffffffffff1663bca78fab6040518163ffffffff167c0100000000000000000000000000000000000000000000000000000000028152600401602060405180830381600087803b158015613b3f57600080fd5b505af1158015613b53573d6000803e3d6000fd5b505050506040513d6020811015613b6957600080fd5b810190808051906020019092919050505092508660ff16860391508790505b8181101515613c3557600860003373ffffffffffffffffffffffffffffffffffffffff1673ffffffffffffffffffffffffffffffffffffffff168152602001908152602001600020600082815260200190815260200160002054935082600c600086815260200190815260200160002060000154141515613c0c5760009450613c35565b613c158461272b565b6000811415613c275760009450613c35565b808060019003915050613b88565b7fa2b374c0cb92d8dc3d38356f47d577c15da0989449f81885a2a275001d9eb321888887604051808481526020018360ff1660ff16815260200182151515158152602001935050505060405180910390a15050505050505050565b60018054600181600116156101000203166002900480601f016020809104026020016040519081016040528092919081815260200182805460018160011615610100020316600290048015613d265780601f10613cfb57610100808354040283529160200191613d26565b820191906000526020600020905b815481529060010190602001808311613d0957829003601f168201915b505050505081565b613d393383836145e1565b5050565b60096020528060005260406000206000915090505481565b60006007600083815260200190815260200160002060009054906101000a900473ffffffffffffffffffffffffffffffffffffffff1690503373ffffffffffffffffffffffffffffffffffffffff16600a60008373ffffffffffffffffffffffffffffffffffffffff1673ffffffffffffffffffffffffffffffffffffffff168152602001908152602001600020600084815260200190815260200160002060009054906101000a900473ffffffffffffffffffffffffffffffffffffffff1673ffffffffffffffffffffffffffffffffffffffff16141515613ec6576040517f08c379a000000000000000000000000000000000000000000000000000000000815260040180806020018281038252602f8152602001807f53656e64657220646f65736e2774206861766520617070726f766520746f206781526020017f657420746f6b656e2062792069642e000000000000000000000000000000000081525060400191505060405180910390fd5b613ed18133846145e1565b5050565b6000613edf614caf565b6000613ee9614c36565b600c6000868152602001908152602001600020606060405190810160405290816000820154815260200160018201600380602002604051908101604052809291908260038015613f52576020028201915b81546000191681526020019060010190808311613f3a575b505050505081526020016004820160009054906101000a900460ff166003811115613f7957fe5b6003811115613f8457fe5b815250509050806000015181602001518260400151819150935093509350509193909250565b600460019054906101000a900460ff1681565b6000600c6000838152602001908152602001600020600001549050919050565b613fe5614caf565b600c6000838152602001908152602001600020600101600380602002604051908101604052809291908260038015614036576020028201915b8154600019168152602001906001019080831161401e575b50505050509050919050565b601160159054906101000a900460ff1681565b601160149054906101000a900460ff1681565b600a6020528160005260406000206020528060005260406000206000915091509054906101000a900473ffffffffffffffffffffffffffffffffffffffff1681565b600d60009054906101000a900473ffffffffffffffffffffffffffffffffffffffff1681565b6000600c600083815260200190815260200160002060040160009054906101000a900460ff169050919050565b6000806000806001600660008973ffffffffffffffffffffffffffffffffffffffff1673ffffffffffffffffffffffffffffffffffffffff1681526020019081526020016000205403935060096000868152602001908152602001600020549250600860008873ffffffffffffffffffffffffffffffffffffffff1673ffffffffffffffffffffffffffffffffffffffff168152602001908152602001600020600085815260200190815260200160002054915083831415156142285781600860008973ffffffffffffffffffffffffffffffffffffffff1673ffffffffffffffffffffffffffffffffffffffff1681526020019081526020016000206000858152602001908152602001600020819055508260096000848152602001908152602001600020819055505b600073ffffffffffffffffffffffffffffffffffffffff168673ffffffffffffffffffffffffffffffffffffffff16141561427757600060096000878152602001908152602001600020819055505b6000600860008973ffffffffffffffffffffffffffffffffffffffff1673ffffffffffffffffffffffffffffffffffffffff1681526020019081526020016000206000868152602001908152602001600020819055506001600660008973ffffffffffffffffffffffffffffffffffffffff1673ffffffffffffffffffffffffffffffffffffffff16815260200190815260200160002060008282540392505081905550600073ffffffffffffffffffffffffffffffffffffffff16600a60008973ffffffffffffffffffffffffffffffffffffffff1673ffffffffffffffffffffffffffffffffffffffff168152602001908152602001600020600087815260200190815260200160002060009054906101000a900473ffffffffffffffffffffffffffffffffffffffff1673ffffffffffffffffffffffffffffffffffffffff16141515614452576000600a60008973ffffffffffffffffffffffffffffffffffffffff1673ffffffffffffffffffffffffffffffffffffffff168152602001908152602001600020600087815260200190815260200160002060006101000a81548173ffffffffffffffffffffffffffffffffffffffff021916908373ffffffffffffffffffffffffffffffffffffffff1602179055505b600073ffffffffffffffffffffffffffffffffffffffff168673ffffffffffffffffffffffffffffffffffffffff161415156145d857600660008773ffffffffffffffffffffffffffffffffffffffff1673ffffffffffffffffffffffffffffffffffffffff168152602001908152602001600020549050806009600087815260200190815260200160002081905550856007600087815260200190815260200160002060006101000a81548173ffffffffffffffffffffffffffffffffffffffff021916908373ffffffffffffffffffffffffffffffffffffffff16021790555084600860008873ffffffffffffffffffffffffffffffffffffffff1673ffffffffffffffffffffffffffffffffffffffff1681526020019081526020016000206000838152602001908152602001600020819055506001600660008873ffffffffffffffffffffffffffffffffffffffff1673ffffffffffffffffffffffffffffffffffffffff168152602001908152602001600020600082825401925050819055505b50505050505050565b600083826007600082815260200190815260200160002060009054906101000a900473ffffffffffffffffffffffffffffffffffffffff1673ffffffffffffffffffffffffffffffffffffffff168273ffffffffffffffffffffffffffffffffffffffff161415156146e1576040517f08c379a00000000000000000000000000000000000000000000000000000000081526004018080602001828103825260258152602001807f53656e6465722069736e277420616e206f776e6572206f6620746f6b656e206281526020017f792069642e00000000000000000000000000000000000000000000000000000081525060400191505060405180910390fd5b83600060038111156146ef57fe5b600c600083815260200190815260200160002060040160009054906101000a900460ff16600381111561471e57fe5b1415156147b9576040517f08c379a00000000000000000000000000000000000000000000000000000000081526004018080602001828103825260298152602001807f46696c6c6564207469636b65742063616e6e6f74206265207472616e7366657281526020017f206f722066696c6c2e000000000000000000000000000000000000000000000081525060400191505060405180910390fd5b84600b600082815260200190815260200160002060009054906101000a900460ff16151561484f576040517f08c379a00000000000000000000000000000000000000000000000000000000081526004018080602001828103825260148152602001807f546f6b656e20646f65736e27742065786973742e00000000000000000000000081525060200191505060405180910390fd5b87878073ffffffffffffffffffffffffffffffffffffffff168273ffffffffffffffffffffffffffffffffffffffff16141515156148f5576040517f08c379a000000000000000000000000000000000000000000000000000000000815260040180806020018281038252601a8152602001807f53656e6465722063616e6e6f742062652072656369657665722e00000000000081525060200191505060405180910390fd5b601160159054906101000a900460ff16151561499f576040517f08c379a00000000000000000000000000000000000000000000000000000000081526004018080602001828103825260278152602001807f41646472657373206f6620636f6e747261637420447261772073686f756c642081526020017f6265207365742e0000000000000000000000000000000000000000000000000081525060400191505060405180910390fd5b601260009054906101000a900473ffffffffffffffffffffffffffffffffffffffff1673ffffffffffffffffffffffffffffffffffffffff1663bca78fab6040518163ffffffff167c0100000000000000000000000000000000000000000000000000000000028152600401602060405180830381600087803b158015614a2557600080fd5b505af1158015614a39573d6000803e3d6000fd5b505050506040513d6020811015614a4f57600080fd5b81019080805190602001909291905050509650600073ffffffffffffffffffffffffffffffffffffffff168973ffffffffffffffffffffffffffffffffffffffff1614151515614b07576040517f08c379a00000000000000000000000000000000000000000000000000000000081526004018080602001828103825260148152602001807f52656369657665722063616e6e6f74206265203000000000000000000000000081525060200191505060405180910390fd5b86600c60008a815260200190815260200160002060000154141515614bba576040517f08c379a00000000000000000000000000000000000000000000000000000000081526004018080602001828103825260338152602001807f53656e6465722063616e207472616e73666572207469636b657473206f6e6c7981526020017f2066726f6d2063757272656e7420647261772e0000000000000000000000000081525060400191505060405180910390fd5b614bc58a8a8a6140fd565b8873ffffffffffffffffffffffffffffffffffffffff168a73ffffffffffffffffffffffffffffffffffffffff167fddf252ad1be2c89b69c2b068fc378daa952ba7f163c4a11628f55a4df523b3ef8a6040518082815260200191505060405180910390a350505050505050505050565b60a06040519081016040528060008152602001614c51614cd2565b815260200160006003811115614c6357fe5b81525090565b8260038101928215614c9e579160200282015b82811115614c9d578251829060001916905591602001919060010190614c7c565b5b509050614cab9190614cf5565b5090565b606060405190810160405280600390602082028038833980820191505090505090565b606060405190810160405280600390602082028038833980820191505090505090565b614d1791905b80821115614d13576000816000905550600101614cfb565b5090565b905600a165627a7a72305820909e12e51bf0cc013d4a4d7e106bd9d50a9a2a039a652cb471c01a8bd2bfbe340029",
  "source": "pragma solidity ^0.4.24;\n\ninterface MigrationAgent {\n    function migrateOneTokenFrom(address _from, uint256 _tokenId, uint256 _drawId, bytes32[3] _combinationOfTicket, uint8 _status) external;\n}\n\nimport './Draw.sol';\n\ncontract TokenERC721 {\n    enum Status {\n        NotFilled,\n        Filled,\n        Winning,\n        Payed\n    }\n\n    struct DataOfTicket {\n        uint256 drawId;\n        bytes32[3] combinationOfTicket;\n        Status status;\n    }\n\n    string public name;\n    string public symbol;\n    uint256 public totalSupply;\n    uint256 public lastIdOfToken;\n    uint8 public allowedToMintInOneTransaction = 20;\n    uint8 public allowedToMigrateInOneTransaction = 10;\n    mapping(uint256 => uint256) public totalTicketsInDraw; // [draw] = amount of tickets\n    mapping(address => uint256) public balanceOf; // [owner] = amount of tokens\n    mapping(uint256 => address) public ownerOf; // [tokenId] = owner of token\n    mapping(address => mapping(uint256 => uint256)) public tokenOfOwnerByIndex; //[owner][index] = tokenId\n    mapping(uint256 => uint256) public indexOfTokenForOwner; // [tokenId] = position in user's wallet\n    mapping(address => mapping(uint256 => address)) public allowance; // [owner][tokenId] = reciever\n    mapping(uint256 => bool) public tokenExists; // [tokenId] = token is exist\n    mapping(uint256 => DataOfTicket) public dataOfTicket; // [tokenId] = data of ticket\n\n    address public admin;\n    address public addressOfContractTicketsSale;\n    address public addressOfContractDraw;\n    address public addressOfMigrationAgent; // For migration\n    address public addressOfContractKassa;\n    bool public isSetAddressOfContractTicketsSale;\n    bool public isSetAddressOfContractDraw;\n\n    Draw public contractDraw;\n\n    event Transfer(address indexed _from, address indexed _to, uint256 _tokenId);\n    event Approval(address indexed _owner, address indexed _approved, uint256 _tokenId);\n    event Mint(address indexed _owner, uint256 _amountOfTokens);\n    event FillingTicket(uint256 _tokenId);\n    event MigrateOneToken(uint256 _tokenId); // For migration\n    event MigrateChunkOfTokens(uint256 _indexOfFirstTokenFromTheEnd, uint8 _sizeOfChunk, bool _needContinue); // For migration\n    //event TestCombination(bytes32[3] _numbers);\n\n    constructor() public {\n        name = \"hashlottery2\";\n        symbol = \"HL2\";\n        admin = msg.sender;\n    }\n\n    modifier onlyAdmin() {\n        require(msg.sender == admin, \"Only admin of contract can call this.\");\n        _;\n    }\n\n    modifier onlyOwnerOfToken(address _from, uint256 _tokenId) {\n        require(_from == ownerOf[_tokenId], \"Sender isn't an owner of token by id.\");\n        _;\n    }\n\n    modifier onlyNotFilledTicket(uint256 _tokenId) {\n        require(dataOfTicket[_tokenId].status == Status.NotFilled, \"Filled ticket cannot be transfer or fill.\");\n        _;\n    }\n\n    modifier onlyIfTokenExists(uint256 _tokenId) {\n        require(tokenExists[_tokenId], \"Token doesn't exist.\");\n        _;\n    }\n\n    modifier onlyIfSenderNotEqualReciever(address _from, address _to) {\n        require(_from != _to, \"Sender cannot be reciever.\");\n        _;\n    }\n\n    modifier onlyKassa() {\n        require(msg.sender == addressOfContractKassa, \"Only contract Kassa can call this.\");\n        _;\n    }\n\n    modifier onlyFilledTicket(uint256 _tokenId) {\n        require(dataOfTicket[_tokenId].status == Status.Filled, \"Ticket should have status Filled.\");\n        _;\n    }\n\n    modifier onlyWinningTicket(uint256 _tokenId) {\n        require(dataOfTicket[_tokenId].status == Status.Winning, \"Ticket should have status Winning.\");\n        _;\n    }\n\n    modifier onlyIfSetAddressOfContractDraw() {\n        require(isSetAddressOfContractDraw, \"Address of contract Draw should be set.\");\n        _;\n    }\n\n    // For migration\n    modifier onlyIfNotSetMigrationAgent() {\n        require(addressOfMigrationAgent == address(0), \"Migration agent already set.\");\n        _;\n    }\n\n    // For migration\n    modifier onlyIfSetMigrationAgent() {\n        require(addressOfMigrationAgent != address(0), \"Migration agent isn't set.\");\n        _;\n    }\n\n    function setAddressOfContractTicketsSale(address _address) public\n            onlyAdmin {\n        require(!isSetAddressOfContractTicketsSale, \"Address of contract TicketsSale already set.\");\n\n        addressOfContractTicketsSale = _address;\n        isSetAddressOfContractTicketsSale = true;\n    }\n\n    function setAddressOfContractDraw(address _address) public\n            onlyAdmin {\n        require(!isSetAddressOfContractDraw, \"Address of contract Draw already set.\");\n\n        addressOfContractDraw = _address;\n        contractDraw = Draw(_address);\n        isSetAddressOfContractDraw = true;\n    }\n\n    function setAddressOfContractKassa(address _address) public\n            onlyAdmin {\n        require(addressOfContractKassa == address(0), \"Address of contract Kassa already set.\");\n        addressOfContractKassa = _address;\n    }\n\n    function setTicketStatusWinning(uint256 _tokenId) public\n            onlyIfSetAddressOfContractDraw\n            onlyKassa\n            onlyFilledTicket(_tokenId) {\n        require(contractDraw.isAcceptRequestPeriod(), \"Stage of current draw should be 'Accepting request on winning'\");\n        dataOfTicket[_tokenId].status = Status.Winning;\n    }\n\n    function setTicketStatusPayed(uint256 _tokenId) public\n            onlyKassa\n            onlyWinningTicket(_tokenId) {\n        dataOfTicket[_tokenId].status = Status.Payed;\n    }\n\n    function getDataOfTicket(uint256 _tokenId) view public returns(uint256 _drawId, bytes32[3] _combinationOfTicket, Status _status) {\n        DataOfTicket memory _dataOfTicket = dataOfTicket[_tokenId];\n        return (_dataOfTicket.drawId, _dataOfTicket.combinationOfTicket, _dataOfTicket.status);\n    }\n\n    function mint(address _owner, uint256 _amountOfTokens) public\n            onlyIfNotSetMigrationAgent\n            onlyIfSetAddressOfContractDraw {\n        require(msg.sender == addressOfContractTicketsSale, \"Sender should be the contract TicketsSale.\");\n        require(_owner != address(0), \"Owner cannot be 0.\");\n        require(_amountOfTokens <= allowedToMintInOneTransaction, \"Owner cannot mint more than 20 tickets in one transaction.\");\n\n        uint256 drawId = contractDraw.currentDrawId();\n        require(contractDraw.isSellingTicketPeriod(), \"Stage of current draw should be 'Sale of tickets'\");\n\n        uint256 indexOfNextToken = balanceOf[_owner]; // index to put to tokenOfOwnerByIndex, indexOfTokenForOwner\n        uint256 idOfNextToken = lastIdOfToken + 1; // id to use as current tokenId\n        uint256 idOfEndToken = idOfNextToken + _amountOfTokens - 1;\n\n        // release specified amount of tickets\n        for (; idOfNextToken <= idOfEndToken; idOfNextToken++) {\n            tokenExists[idOfNextToken] = true;\n            ownerOf[idOfNextToken] = _owner;\n            dataOfTicket[idOfNextToken].drawId = drawId;\n\n            tokenOfOwnerByIndex[_owner][indexOfNextToken] = idOfNextToken;\n            indexOfTokenForOwner[idOfNextToken] = indexOfNextToken;\n            indexOfNextToken++;\n        }\n\n        lastIdOfToken += _amountOfTokens;\n        totalSupply += _amountOfTokens;\n        totalTicketsInDraw[drawId] += _amountOfTokens;\n        balanceOf[_owner] += _amountOfTokens;\n\n        emit Mint(_owner, _amountOfTokens);\n    }\n\n    function transfer(address _to, uint256 _tokenId) public {\n        _transfer(msg.sender, _to, _tokenId);\n    }\n\n    function approve(address _to, uint256 _tokenId) public\n            onlyOwnerOfToken(msg.sender, _tokenId)\n            onlyNotFilledTicket(_tokenId)\n            onlyIfTokenExists(_tokenId)\n            onlyIfSenderNotEqualReciever(msg.sender, _to) {\n        allowance[msg.sender][_tokenId] = _to;\n\n        emit Approval(msg.sender, _to, _tokenId);\n    }\n\n    function takeOwnership(uint256 _tokenId) public {\n        address ownerOfToken = ownerOf[_tokenId];\n\n        require(allowance[ownerOfToken][_tokenId] == msg.sender, \"Sender doesn't have approve to get token by id.\");\n\n        _transfer(ownerOfToken, msg.sender, _tokenId); // transfer token to reciever and clear allowance\n    }\n\n    function fillCombinationOfTicket(uint256 _tokenId, bytes32[3] _numbers) public\n            onlyOwnerOfToken(msg.sender, _tokenId)\n            onlyNotFilledTicket(_tokenId) {\n        require(_numbers[0] != _numbers[1] && _numbers[0] != _numbers[2] && _numbers[1] != _numbers[2], \"Numbers cannot repeat.\");\n        require(allowance[msg.sender][_tokenId] == address(0), \"Sender cannot fill promised token.\");\n\n        uint256 drawIdCurrent = contractDraw.currentDrawId();\n        uint256 drawIdOfTicket = dataOfTicket[_tokenId].drawId;\n        require(drawIdCurrent == drawIdOfTicket, \"Filling of ticket is available only for current draw.\");\n        require(contractDraw.isFillingTicketPeriod(), \"Stage of current draw should be 'Sale of tickets' or 'Filling tickets without sale'\");\n\n        dataOfTicket[_tokenId].combinationOfTicket = _numbers;\n        dataOfTicket[_tokenId].status = Status.Filled;\n\n        emit FillingTicket(_tokenId);\n        //emit TestCombination(dataOfTicket[_tokenId].combinationOfTicket);\n    }\n\n    // For migration\n    function startOutcomingMigration(address _addressOfMigrationAgent) public\n            onlyAdmin\n            onlyIfNotSetMigrationAgent {\n        addressOfMigrationAgent = _addressOfMigrationAgent;\n    }\n\n    // For migration\n    function migrateOneToken(uint256 _tokenId) public\n            onlyIfSetMigrationAgent\n            onlyOwnerOfToken(msg.sender, _tokenId)\n            onlyIfTokenExists(_tokenId) {\n        DataOfTicket memory _dataOfTicket = dataOfTicket[_tokenId];\n\n        changeOwnerDataOfToken(msg.sender, address(0), _tokenId); // delete owner data of token without sending to anybody\n        ownerOf[_tokenId] = address(0);\n        tokenExists[_tokenId] = false;\n        totalSupply--;\n        totalTicketsInDraw[_dataOfTicket.drawId]--;\n\n        MigrationAgent(addressOfMigrationAgent).migrateOneTokenFrom(msg.sender, _tokenId, _dataOfTicket.drawId, _dataOfTicket.combinationOfTicket, uint8(_dataOfTicket.status));\n\n        emit MigrateOneToken(_tokenId);\n    }\n\n    // For migration\n    function migrateChunkOfTokens(uint256 _indexOfFirstTokenFromTheEnd, uint8 _sizeOfChunk) public\n            onlyIfSetMigrationAgent {\n        uint256 balanceOfSender = balanceOf[msg.sender];\n        bool needContinue = true;\n        uint256 tokenId;\n\n        require(allowedToMigrateInOneTransaction >= _sizeOfChunk, \"Sender cannot migrate more tokens than 10 in one transaction.\");\n        require(balanceOfSender >= _sizeOfChunk, \"Sender cannot migrate more tokens than he has.\");\n        require(_indexOfFirstTokenFromTheEnd == balanceOfSender-1, \"Index of first token from the end should be the last index of token of owner.\");\n\n        uint256 currentDrawId = contractDraw.currentDrawId();\n\n        uint256 indexOfLastMigratedToken = balanceOfSender - _sizeOfChunk;\n        for(uint256 i = _indexOfFirstTokenFromTheEnd; i >= indexOfLastMigratedToken; i--) {\n            tokenId = tokenOfOwnerByIndex[msg.sender][i];\n            if (dataOfTicket[tokenId].drawId != currentDrawId) {\n                needContinue = false;\n                break;\n            }\n            migrateOneToken(tokenId);\n            if (i == 0) {\n                needContinue = false;\n                break;\n            }\n        }\n\n        emit MigrateChunkOfTokens(_indexOfFirstTokenFromTheEnd, _sizeOfChunk, needContinue);\n    }\n\n    //=========+++ Additional functions +++==========//\n    function _transfer(address _from, address _to, uint256 _tokenId) internal\n            onlyOwnerOfToken(_from, _tokenId)\n            onlyNotFilledTicket(_tokenId)\n            onlyIfTokenExists(_tokenId)\n            onlyIfSenderNotEqualReciever(_from, _to)\n            onlyIfSetAddressOfContractDraw {\n        uint256 currentDrawId = contractDraw.currentDrawId();\n\n        require(_to != address(0), \"Reciever cannot be 0\");\n        require(dataOfTicket[_tokenId].drawId == currentDrawId, \"Sender can transfer tickets only from current draw.\");\n\n        changeOwnerDataOfToken(_from, _to, _tokenId);\n\n        emit Transfer(_from, _to, _tokenId);\n    }\n\n    function changeOwnerDataOfToken(address _from, address _to, uint256 _tokenId) internal {\n        uint256 indexOfLastTokenOfOwner = balanceOf[_from]-1;\n        uint256 indexOfCurrentTokenOfOwner = indexOfTokenForOwner[_tokenId];\n\n        // Delete tokenId for owner from tokenOfOwnerByIndex\n        uint256 lastTokenOfOwner = tokenOfOwnerByIndex[_from][indexOfLastTokenOfOwner];\n        if (indexOfCurrentTokenOfOwner != indexOfLastTokenOfOwner) {\n            tokenOfOwnerByIndex[_from][indexOfCurrentTokenOfOwner] = lastTokenOfOwner;\n            indexOfTokenForOwner[lastTokenOfOwner] = indexOfCurrentTokenOfOwner; // Set new index for last token\n        }\n        if (_to == address(0)) {\n            indexOfTokenForOwner[_tokenId] = 0; // Delete index of token\n        }\n        tokenOfOwnerByIndex[_from][indexOfLastTokenOfOwner] = 0;\n        balanceOf[_from] -= 1;\n\n        // Clear allowance only if it's not zero\n        if (allowance[_from][_tokenId] != address(0)) {\n            allowance[_from][_tokenId] = address(0);\n        }\n\n        if (_to != address(0)) {\n            // Set new index of token\n            uint256 indexOfNextTokenForReciever = balanceOf[_to];\n            indexOfTokenForOwner[_tokenId] = indexOfNextTokenForReciever;\n\n            // Move tokenId to reciever\n            ownerOf[_tokenId] = _to;\n            tokenOfOwnerByIndex[_to][indexOfNextTokenForReciever] = _tokenId;\n            balanceOf[_to] += 1;\n        }\n    }\n    //=========--- Additional functions ---==========//\n\n    function getTicketCombination(uint256 ticketId) public view returns (bytes32[3]){\n        return dataOfTicket[ticketId].combinationOfTicket;\n    }\n\n    function getTicketDrawId(uint256 ticketId) public view returns (uint256){\n        return dataOfTicket[ticketId].drawId;\n    }\n\n    function getTicketStatus(uint256 ticketId) public view returns (Status){\n        return dataOfTicket[ticketId].status;\n    }\n}\n",
  "sourcePath": "/home/smartit-4/projects/hashlottery2/smart_contracts/contracts/lottery/TokenERC721.sol",
  "compiler": {
    "name": "solc",
    "version": "0.4.24+commit.e67f0147.Emscripten.clang"
  },
  "schemaVersion": "2.0.1",
  "updatedAt": "2018-12-12T13:11:54.935Z"
}