{
  "contractName": "TokenERC20",
  "abi": [
    {
      "constant": true,
      "inputs": [],
      "name": "name",
      "outputs": [
        {
          "name": "",
          "type": "string"
        }
      ],
      "payable": false,
      "stateMutability": "view",
      "type": "function"
    },
    {
      "constant": true,
      "inputs": [],
      "name": "totalSupply",
      "outputs": [
        {
          "name": "",
          "type": "uint256"
        }
      ],
      "payable": false,
      "stateMutability": "view",
      "type": "function"
    },
    {
      "constant": true,
      "inputs": [],
      "name": "decimals",
      "outputs": [
        {
          "name": "",
          "type": "uint8"
        }
      ],
      "payable": false,
      "stateMutability": "view",
      "type": "function"
    },
    {
      "constant": true,
      "inputs": [
        {
          "name": "",
          "type": "address"
        }
      ],
      "name": "balanceOf",
      "outputs": [
        {
          "name": "",
          "type": "uint256"
        }
      ],
      "payable": false,
      "stateMutability": "view",
      "type": "function"
    },
    {
      "constant": true,
      "inputs": [],
      "name": "migrationAgent",
      "outputs": [
        {
          "name": "",
          "type": "address"
        }
      ],
      "payable": false,
      "stateMutability": "view",
      "type": "function"
    },
    {
      "constant": true,
      "inputs": [],
      "name": "owner",
      "outputs": [
        {
          "name": "",
          "type": "address"
        }
      ],
      "payable": false,
      "stateMutability": "view",
      "type": "function"
    },
    {
      "constant": true,
      "inputs": [],
      "name": "totalMigrated",
      "outputs": [
        {
          "name": "",
          "type": "uint256"
        }
      ],
      "payable": false,
      "stateMutability": "view",
      "type": "function"
    },
    {
      "constant": true,
      "inputs": [],
      "name": "symbol",
      "outputs": [
        {
          "name": "",
          "type": "string"
        }
      ],
      "payable": false,
      "stateMutability": "view",
      "type": "function"
    },
    {
      "constant": true,
      "inputs": [
        {
          "name": "",
          "type": "address"
        },
        {
          "name": "",
          "type": "address"
        }
      ],
      "name": "allowance",
      "outputs": [
        {
          "name": "",
          "type": "uint256"
        }
      ],
      "payable": false,
      "stateMutability": "view",
      "type": "function"
    },
    {
      "inputs": [],
      "payable": false,
      "stateMutability": "nonpayable",
      "type": "constructor"
    },
    {
      "anonymous": false,
      "inputs": [
        {
          "indexed": true,
          "name": "from",
          "type": "address"
        },
        {
          "indexed": true,
          "name": "to",
          "type": "address"
        },
        {
          "indexed": false,
          "name": "value",
          "type": "uint256"
        }
      ],
      "name": "Transfer",
      "type": "event"
    },
    {
      "anonymous": false,
      "inputs": [
        {
          "indexed": true,
          "name": "_owner",
          "type": "address"
        },
        {
          "indexed": true,
          "name": "_spender",
          "type": "address"
        },
        {
          "indexed": false,
          "name": "_value",
          "type": "uint256"
        }
      ],
      "name": "Approval",
      "type": "event"
    },
    {
      "anonymous": false,
      "inputs": [
        {
          "indexed": false,
          "name": "tokensSupplyed",
          "type": "uint256"
        },
        {
          "indexed": false,
          "name": "totalTokens",
          "type": "uint256"
        }
      ],
      "name": "TokensEmitted",
      "type": "event"
    },
    {
      "anonymous": false,
      "inputs": [
        {
          "indexed": true,
          "name": "_from",
          "type": "address"
        },
        {
          "indexed": true,
          "name": "_to",
          "type": "address"
        },
        {
          "indexed": false,
          "name": "_value",
          "type": "uint256"
        }
      ],
      "name": "Migrate",
      "type": "event"
    },
    {
      "constant": false,
      "inputs": [
        {
          "name": "_agent",
          "type": "address"
        }
      ],
      "name": "setMigrationAgent",
      "outputs": [],
      "payable": false,
      "stateMutability": "nonpayable",
      "type": "function"
    },
    {
      "constant": false,
      "inputs": [],
      "name": "setMigrationStatus",
      "outputs": [],
      "payable": false,
      "stateMutability": "nonpayable",
      "type": "function"
    },
    {
      "constant": false,
      "inputs": [
        {
          "name": "_value",
          "type": "uint256"
        }
      ],
      "name": "migrateTokens",
      "outputs": [],
      "payable": false,
      "stateMutability": "nonpayable",
      "type": "function"
    },
    {
      "constant": false,
      "inputs": [
        {
          "name": "contract_address",
          "type": "address"
        }
      ],
      "name": "supplyTokens",
      "outputs": [
        {
          "name": "success",
          "type": "bool"
        }
      ],
      "payable": false,
      "stateMutability": "nonpayable",
      "type": "function"
    },
    {
      "constant": false,
      "inputs": [
        {
          "name": "tokens",
          "type": "uint256"
        },
        {
          "name": "receiver",
          "type": "address"
        }
      ],
      "name": "emitMoreTokens",
      "outputs": [
        {
          "name": "success",
          "type": "bool"
        }
      ],
      "payable": false,
      "stateMutability": "nonpayable",
      "type": "function"
    },
    {
      "constant": false,
      "inputs": [
        {
          "name": "_to",
          "type": "address"
        },
        {
          "name": "_value",
          "type": "uint256"
        }
      ],
      "name": "transfer",
      "outputs": [
        {
          "name": "success",
          "type": "bool"
        }
      ],
      "payable": false,
      "stateMutability": "nonpayable",
      "type": "function"
    },
    {
      "constant": false,
      "inputs": [
        {
          "name": "_from",
          "type": "address"
        },
        {
          "name": "_to",
          "type": "address"
        },
        {
          "name": "_value",
          "type": "uint256"
        }
      ],
      "name": "transferFrom",
      "outputs": [
        {
          "name": "success",
          "type": "bool"
        }
      ],
      "payable": false,
      "stateMutability": "nonpayable",
      "type": "function"
    },
    {
      "constant": false,
      "inputs": [
        {
          "name": "_spender",
          "type": "address"
        },
        {
          "name": "_value",
          "type": "uint256"
        }
      ],
      "name": "approve",
      "outputs": [
        {
          "name": "success",
          "type": "bool"
        }
      ],
      "payable": false,
      "stateMutability": "nonpayable",
      "type": "function"
    },
    {
      "constant": true,
      "inputs": [
        {
          "name": "account",
          "type": "address"
        }
      ],
      "name": "getOwnership",
      "outputs": [
        {
          "name": "percentageMultiplied100",
          "type": "uint256"
        }
      ],
      "payable": false,
      "stateMutability": "view",
      "type": "function"
    }
  ],
  "bytecode": "0x60806040526000600260006101000a81548160ff021916908360ff1602179055506000600660146101000a81548160ff0219169083151502179055506000600960006101000a81548160ff0219169083151502179055503480156200006357600080fd5b506040805190810160405280600881526020017f4c6f7453746f636b00000000000000000000000000000000000000000000000081525060009080519060200190620000b192919062000147565b506040805190810160405280600281526020017f4c2400000000000000000000000000000000000000000000000000000000000081525060019080519060200190620000ff92919062000147565b5033600660006101000a81548173ffffffffffffffffffffffffffffffffffffffff021916908373ffffffffffffffffffffffffffffffffffffffff160217905550620001f6565b828054600181600116156101000203166002900490600052602060002090601f016020900481019282601f106200018a57805160ff1916838001178555620001bb565b82800160010185558215620001bb579182015b82811115620001ba5782518255916020019190600101906200019d565b5b509050620001ca9190620001ce565b5090565b620001f391905b80821115620001ef576000816000905550600101620001d5565b5090565b90565b611c3080620002066000396000f3006080604052600436106100fc576000357c0100000000000000000000000000000000000000000000000000000000900463ffffffff16806306fdde0314610101578063095ea7b31461019157806318160ddd146101f657806323b872dd146102215780632b681a54146102a65780632c216fb0146102fd578063313ce5671461036257806370a082311461039357806371fee0ef146103ea57806375e2ff65146104015780638328dbcd146104445780638da5cb5b1461049b57806395a0f5eb146104f257806395d89b411461051d578063a9059cbb146105ad578063d0456b4e14610612578063dd62ed3e1461063f578063f766b660146106b6575b600080fd5b34801561010d57600080fd5b50610116610711565b6040518080602001828103825283818151815260200191508051906020019080838360005b8381101561015657808201518184015260208101905061013b565b50505050905090810190601f1680156101835780820380516001836020036101000a031916815260200191505b509250505060405180910390f35b34801561019d57600080fd5b506101dc600480360381019080803573ffffffffffffffffffffffffffffffffffffffff169060200190929190803590602001909291905050506107af565b604051808215151515815260200191505060405180910390f35b34801561020257600080fd5b5061020b6108a1565b6040518082815260200191505060405180910390f35b34801561022d57600080fd5b5061028c600480360381019080803573ffffffffffffffffffffffffffffffffffffffff169060200190929190803573ffffffffffffffffffffffffffffffffffffffff169060200190929190803590602001909291905050506108a7565b604051808215151515815260200191505060405180910390f35b3480156102b257600080fd5b506102e7600480360381019080803573ffffffffffffffffffffffffffffffffffffffff169060200190929190505050610a63565b6040518082815260200191505060405180910390f35b34801561030957600080fd5b5061034860048036038101908080359060200190929190803573ffffffffffffffffffffffffffffffffffffffff169060200190929190505050610abd565b604051808215151515815260200191505060405180910390f35b34801561036e57600080fd5b50610377610d2a565b604051808260ff1660ff16815260200191505060405180910390f35b34801561039f57600080fd5b506103d4600480360381019080803573ffffffffffffffffffffffffffffffffffffffff169060200190929190505050610d3d565b6040518082815260200191505060405180910390f35b3480156103f657600080fd5b506103ff610d55565b005b34801561040d57600080fd5b50610442600480360381019080803573ffffffffffffffffffffffffffffffffffffffff169060200190929190505050610f61565b005b34801561045057600080fd5b50610459611156565b604051808273ffffffffffffffffffffffffffffffffffffffff1673ffffffffffffffffffffffffffffffffffffffff16815260200191505060405180910390f35b3480156104a757600080fd5b506104b061117c565b604051808273ffffffffffffffffffffffffffffffffffffffff1673ffffffffffffffffffffffffffffffffffffffff16815260200191505060405180910390f35b3480156104fe57600080fd5b506105076111a2565b6040518082815260200191505060405180910390f35b34801561052957600080fd5b506105326111a8565b6040518080602001828103825283818151815260200191508051906020019080838360005b83811015610572578082015181840152602081019050610557565b50505050905090810190601f16801561059f5780820380516001836020036101000a031916815260200191505b509250505060405180910390f35b3480156105b957600080fd5b506105f8600480360381019080803573ffffffffffffffffffffffffffffffffffffffff16906020019092919080359060200190929190505050611246565b604051808215151515815260200191505060405180910390f35b34801561061e57600080fd5b5061063d6004803603810190808035906020019092919050505061125d565b005b34801561064b57600080fd5b506106a0600480360381019080803573ffffffffffffffffffffffffffffffffffffffff169060200190929190803573ffffffffffffffffffffffffffffffffffffffff169060200190929190505050611679565b6040518082815260200191505060405180910390f35b3480156106c257600080fd5b506106f7600480360381019080803573ffffffffffffffffffffffffffffffffffffffff16906020019092919050505061169e565b604051808215151515815260200191505060405180910390f35b60008054600181600116156101000203166002900480601f0160208091040260200160405190810160405280929190818152602001828054600181600116156101000203166002900480156107a75780601f1061077c576101008083540402835291602001916107a7565b820191906000526020600020905b81548152906001019060200180831161078a57829003601f168201915b505050505081565b600081600560003373ffffffffffffffffffffffffffffffffffffffff1673ffffffffffffffffffffffffffffffffffffffff16815260200190815260200160002060008573ffffffffffffffffffffffffffffffffffffffff1673ffffffffffffffffffffffffffffffffffffffff168152602001908152602001600020819055508273ffffffffffffffffffffffffffffffffffffffff163373ffffffffffffffffffffffffffffffffffffffff167f8c5be1e5ebec7d5bd14f71427d1e84f3dd0314c0f7b2291e5b200ac8c7c3b925846040518082815260200191505060405180910390a36001905092915050565b60035481565b6000600560008573ffffffffffffffffffffffffffffffffffffffff1673ffffffffffffffffffffffffffffffffffffffff16815260200190815260200160002060003373ffffffffffffffffffffffffffffffffffffffff1673ffffffffffffffffffffffffffffffffffffffff1681526020019081526020016000205482111515156109c3576040517f08c379a00000000000000000000000000000000000000000000000000000000081526004018080602001828103825260258152602001807f55736572206973206e6f7420616c6c6f77656420746f20706572666f726d206181526020017f6374696f6e00000000000000000000000000000000000000000000000000000081525060400191505060405180910390fd5b81600560008673ffffffffffffffffffffffffffffffffffffffff1673ffffffffffffffffffffffffffffffffffffffff16815260200190815260200160002060003373ffffffffffffffffffffffffffffffffffffffff1673ffffffffffffffffffffffffffffffffffffffff16815260200190815260200160002060008282540392505081905550610a588484846118a7565b600190509392505050565b6000600354612710600460008573ffffffffffffffffffffffffffffffffffffffff1673ffffffffffffffffffffffffffffffffffffffff1681526020019081526020016000205402811515610ab557fe5b049050919050565b600060011515600960009054906101000a900460ff16151514151515610bbd576040517f08c379a00000000000000000000000000000000000000000000000000000000081526004018080602001828103825260618152602001807f536f7272792c2062757420776520646574656374206d6967726174696f6e207481526020017f6f206e657720746f6b656e2e20596f75206d757374206d69676772617465206181526020017f6c6c20796f757220746f6b656e7320746f206e657720455243323020746f6b6581526020017f6e0000000000000000000000000000000000000000000000000000000000000081525060800191505060405180910390fd5b3373ffffffffffffffffffffffffffffffffffffffff16600660009054906101000a900473ffffffffffffffffffffffffffffffffffffffff1673ffffffffffffffffffffffffffffffffffffffff16141515610c82576040517f08c379a000000000000000000000000000000000000000000000000000000000815260040180806020018281038252600e8152602001807f4e6f7420417574686f72697a656400000000000000000000000000000000000081525060200191505060405180910390fd5b8260036000828254019250508190555082600460008473ffffffffffffffffffffffffffffffffffffffff1673ffffffffffffffffffffffffffffffffffffffff168152602001908152602001600020600082825401925050819055507f8438967ebb4863fc4c0d20d0fb9571485114cb066d69f6f8104d8bd82b7241c283600354604051808381526020018281526020019250505060405180910390a16001905092915050565b600260009054906101000a900460ff1681565b60046020528060005260406000206000915090505481565b600073ffffffffffffffffffffffffffffffffffffffff16600760009054906101000a900473ffffffffffffffffffffffffffffffffffffffff1673ffffffffffffffffffffffffffffffffffffffff1614151515610e42576040517f08c379a00000000000000000000000000000000000000000000000000000000081526004018080602001828103825260218152602001807f4d6967726174696f6e204167656e74207761736e277420736574206561726c6c81526020017f790000000000000000000000000000000000000000000000000000000000000081525060400191505060405180910390fd5b600760009054906101000a900473ffffffffffffffffffffffffffffffffffffffff1673ffffffffffffffffffffffffffffffffffffffff163373ffffffffffffffffffffffffffffffffffffffff16141515610f2d576040517f08c379a00000000000000000000000000000000000000000000000000000000081526004018080602001828103825260298152602001807f536f7272792c206974732063616c6c73206f6e6c792066726f6d206d6967726181526020017f74696f6e4167656e74000000000000000000000000000000000000000000000081525060400191505060405180910390fd5b600960009054906101000a900460ff161515610f5f576001600960006101000a81548160ff0219169083151502179055505b565b600073ffffffffffffffffffffffffffffffffffffffff16600760009054906101000a900473ffffffffffffffffffffffffffffffffffffffff1673ffffffffffffffffffffffffffffffffffffffff16141515611027576040517f08c379a000000000000000000000000000000000000000000000000000000000815260040180806020018281038252601e8152602001807f4d6967726174696f6e204167656e742077617320736574206561726c6c79000081525060200191505060405180910390fd5b600660009054906101000a900473ffffffffffffffffffffffffffffffffffffffff1673ffffffffffffffffffffffffffffffffffffffff163373ffffffffffffffffffffffffffffffffffffffff16141515611112576040517f08c379a00000000000000000000000000000000000000000000000000000000081526004018080602001828103825260248152602001807f4f6e6c79206f776e6572206f6620636f6e74726163742063616e2063616c6c2081526020017f746869730000000000000000000000000000000000000000000000000000000081525060400191505060405180910390fd5b80600760006101000a81548173ffffffffffffffffffffffffffffffffffffffff021916908373ffffffffffffffffffffffffffffffffffffffff16021790555050565b600760009054906101000a900473ffffffffffffffffffffffffffffffffffffffff1681565b600660009054906101000a900473ffffffffffffffffffffffffffffffffffffffff1681565b60085481565b60018054600181600116156101000203166002900480601f01602080910402602001604051908101604052809291908181526020018280546001816001161561010002031660029004801561123e5780601f106112135761010080835404028352916020019161123e565b820191906000526020600020905b81548152906001019060200180831161122157829003601f168201915b505050505081565b60006112533384846118a7565b6001905092915050565b600073ffffffffffffffffffffffffffffffffffffffff16600760009054906101000a900473ffffffffffffffffffffffffffffffffffffffff1673ffffffffffffffffffffffffffffffffffffffff161415151561134a576040517f08c379a00000000000000000000000000000000000000000000000000000000081526004018080602001828103825260218152602001807f4d6967726174696f6e204167656e74207761736e277420736574206561726c6c81526020017f790000000000000000000000000000000000000000000000000000000000000081525060400191505060405180910390fd5b806000811115156113e9576040517f08c379a00000000000000000000000000000000000000000000000000000000081526004018080602001828103825260228152602001807f56616c75652063616e27742073686f756c64206265206772617465207468616e81526020017f203000000000000000000000000000000000000000000000000000000000000081525060400191505060405180910390fd5b8133600460008273ffffffffffffffffffffffffffffffffffffffff1673ffffffffffffffffffffffffffffffffffffffff1681526020019081526020016000205482111515156114a2576040517f08c379a000000000000000000000000000000000000000000000000000000000815260040180806020018281038252601a8152602001807f56616c75652063616e2774206265206c657373207468616e203000000000000081525060200191505060405180910390fd5b83600460003373ffffffffffffffffffffffffffffffffffffffff1673ffffffffffffffffffffffffffffffffffffffff168152602001908152602001600020600082825403925050819055508360036000828254039250508190555083600860008282540192505081905550600760009054906101000a900473ffffffffffffffffffffffffffffffffffffffff1673ffffffffffffffffffffffffffffffffffffffff16637a3130e333866040518363ffffffff167c0100000000000000000000000000000000000000000000000000000000028152600401808373ffffffffffffffffffffffffffffffffffffffff1673ffffffffffffffffffffffffffffffffffffffff16815260200182815260200192505050600060405180830381600087803b1580156115d457600080fd5b505af11580156115e8573d6000803e3d6000fd5b50505050600760009054906101000a900473ffffffffffffffffffffffffffffffffffffffff1673ffffffffffffffffffffffffffffffffffffffff163373ffffffffffffffffffffffffffffffffffffffff167f18df02dcc52b9c494f391df09661519c0069bd8540141946280399408205ca1a866040518082815260200191505060405180910390a350505050565b6005602052816000526040600020602052806000526040600020600091509150505481565b60003373ffffffffffffffffffffffffffffffffffffffff16600660009054906101000a900473ffffffffffffffffffffffffffffffffffffffff1673ffffffffffffffffffffffffffffffffffffffff16141515611765576040517f08c379a000000000000000000000000000000000000000000000000000000000815260040180806020018281038252600e8152602001807f4e6f7420417574686f72697a656400000000000000000000000000000000000081525060200191505060405180910390fd5b60001515600660149054906101000a900460ff1615151415156117f0576040517f08c379a00000000000000000000000000000000000000000000000000000000081526004018080602001828103825260178152602001807f546f6b656e7320616c726561647920737570706c69656400000000000000000081525060200191505060405180910390fd5b620186a0600381905550600354600460008473ffffffffffffffffffffffffffffffffffffffff1673ffffffffffffffffffffffffffffffffffffffff168152602001908152602001600020819055506001600660146101000a81548160ff0219169083151502179055507f8438967ebb4863fc4c0d20d0fb9571485114cb066d69f6f8104d8bd82b7241c2600354600354604051808381526020018281526020019250505060405180910390a160019050919050565b60011515600960009054906101000a900460ff161515141515156119a5576040517f08c379a00000000000000000000000000000000000000000000000000000000081526004018080602001828103825260618152602001807f536f7272792c2062757420776520646574656374206d6967726174696f6e207481526020017f6f206e657720746f6b656e2e20596f75206d757374206d69676772617465206181526020017f6c6c20796f757220746f6b656e7320746f206e657720455243323020746f6b6581526020017f6e0000000000000000000000000000000000000000000000000000000000000081525060800191505060405180910390fd5b80600460008573ffffffffffffffffffffffffffffffffffffffff1673ffffffffffffffffffffffffffffffffffffffff1681526020019081526020016000205410151515611a5c576040517f08c379a00000000000000000000000000000000000000000000000000000000081526004018080602001828103825260108152602001807f4e6f7420656e6f7567682066756e64730000000000000000000000000000000081525060200191505060405180910390fd5b600073ffffffffffffffffffffffffffffffffffffffff168273ffffffffffffffffffffffffffffffffffffffff16141515611b00576040517f08c379a000000000000000000000000000000000000000000000000000000000815260040180806020018281038252601b8152602001807f5472792073656e642066756e647320746f20302d61646472657373000000000081525060200191505060405180910390fd5b80600460008573ffffffffffffffffffffffffffffffffffffffff1673ffffffffffffffffffffffffffffffffffffffff1681526020019081526020016000206000828254039250508190555080600460008473ffffffffffffffffffffffffffffffffffffffff1673ffffffffffffffffffffffffffffffffffffffff168152602001908152602001600020600082825401925050819055508173ffffffffffffffffffffffffffffffffffffffff168373ffffffffffffffffffffffffffffffffffffffff167fddf252ad1be2c89b69c2b068fc378daa952ba7f163c4a11628f55a4df523b3ef836040518082815260200191505060405180910390a35050505600a165627a7a72305820a796efd821a5bcb4fddb15fa0f925145d2ca7b968c2e3c18a9893adf58f85cea0029",
  "source": "pragma solidity ^0.4.24;\nimport \"./MigrationAgent.sol\";\n\ncontract TokenERC20 {\n    string public name; // Migrate ??\n    string public symbol; // Migrate ??\n    uint8 public decimals = 0; // Migrate ?\n    uint256 public totalSupply; // Migrate\n    mapping(address => uint256) public balanceOf; // Migrate\n    mapping(address => mapping(address => uint256)) public allowance;\n    address public owner;\n    bool private isTokensSupplied = false;\n\n    event Transfer(address indexed from, address indexed to, uint256 value);\n    event Approval(address indexed _owner, address indexed _spender, uint256 _value);\n    event TokensEmitted(uint256 tokensSupplyed, uint256 totalTokens);\n\n    // For migration ERC20\n    event Migrate(address indexed _from, address indexed _to, uint256 _value);\n    address public migrationAgent;\n    uint256 public totalMigrated;\n    bool migrationStatus = false;\n\n    modifier isNotSetMigrationAgent(){\n        require(migrationAgent == address(0), \"Migration Agent was set earlly\");\n        _;\n    }\n\n    modifier isSetMigrationAgent(){\n        require(migrationAgent != address(0), \"Migration Agent wasn't set earlly\");\n        _;\n    }\n\n    modifier isValue(uint _value){\n        require(_value > 0, \"Value can't should be grate than 0\");\n        _;\n    }\n\n    modifier isValueGTBalance(uint _value, address _sender){\n        require(_value <= balanceOf[_sender], \"Value can't be less than 0\");\n        _;\n    }\n\n    modifier onlyOwner() {\n        require(msg.sender == owner, \"Only owner of contract can call this\");\n        _;\n    }\n\n    modifier isMigrationNotRun(){\n        require(migrationStatus != true, \"Sorry, but we detect migration to new token. You must miggrate all your tokens to new ERC20 token\");\n        _;\n    }\n\n    modifier isItCallFormMigrationAgent(){\n        require(msg.sender == migrationAgent, \"Sorry, its calls only from migrationAgent\");\n        _;\n    }\n\n    function setMigrationAgent(address _agent) external isNotSetMigrationAgent() onlyOwner() {\n        migrationAgent = _agent;\n    }\n\n    function setMigrationStatus() public isSetMigrationAgent() isItCallFormMigrationAgent(){\n        if(!migrationStatus){\n            migrationStatus = true;\n        }\n    }\n\n    // User calls function for migrate his tokens to new ERC20 token\n    function migrateTokens(uint _value) external \n        isSetMigrationAgent() \n        isValue(_value) \n        isValueGTBalance(_value, msg.sender){\n\n        balanceOf[msg.sender] -= _value;\n        totalSupply -= _value;\n        totalMigrated += _value;\n        MigrationAgent(migrationAgent).migrateFrom(msg.sender, _value);\n        emit Migrate(msg.sender, migrationAgent, _value);\n    }\n\n    constructor() public {\n        name = \"LotStock\";\n        symbol = \"L$\";\n        owner = msg.sender;\n    }\n\n\n    function supplyTokens(address contract_address) public returns (bool success) {\n        require(owner == msg.sender, \"Not Authorized\");\n        require(isTokensSupplied == false, \"Tokens already supplied\");\n        totalSupply = 100000;\n        balanceOf[contract_address] = totalSupply;\n        isTokensSupplied = true;\n        emit TokensEmitted(totalSupply, totalSupply);\n        return true;\n    }\n\n    function emitMoreTokens(uint256 tokens, address receiver) public isMigrationNotRun() returns (bool success) {\n        require(owner == msg.sender, \"Not Authorized\");\n        totalSupply += tokens;\n        balanceOf[receiver] += tokens;\n        emit TokensEmitted(tokens, totalSupply);\n        return true;\n    }\n\n    function _transfer(address _from, address _to, uint _value) internal isMigrationNotRun() {\n        require(balanceOf[_from] >= _value, \"Not enough funds\");\n        require(_to == address(0), \"Try send funds to 0-address\");\n        balanceOf[_from] -= _value;\n        balanceOf[_to] += _value;\n        emit Transfer(_from, _to, _value);\n    }\n\n    function transfer(address _to, uint256 _value) public returns (bool success) {\n        _transfer(msg.sender, _to, _value);\n        return true;\n    }\n\n    function transferFrom(address _from, address _to, uint256 _value) public\n    returns (bool success) {\n        require(_value <= allowance[_from][msg.sender], \"User is not allowed to perform action\");\n        allowance[_from][msg.sender] -= _value;\n        _transfer(_from, _to, _value);\n        return true;\n    }\n\n    function approve(address _spender, uint256 _value) public\n    returns (bool success) {\n        allowance[msg.sender][_spender] = _value;\n        emit Approval(msg.sender, _spender, _value);\n        return true;\n    }\n\n    function getOwnership(address account) public view returns (uint256 percentageMultiplied100) {\n        return balanceOf[account] * 10000 / totalSupply;\n    }\n}",
  "sourcePath": "/home/kostiantyn/Projects/hashlottery2/smart_contracts/contracts/TokenERC20.sol",
  "compiler": {
    "name": "solc",
    "version": "0.4.24+commit.e67f0147.Emscripten.clang"
  },
  "schemaVersion": "2.0.1",
  "updatedAt": "2018-10-26T14:14:33.532Z"
}