{
  "contractName": "TokenERC20",
  "abi": [
    {
      "constant": true,
      "inputs": [],
      "name": "name",
      "outputs": [
        {
          "name": "",
          "type": "string"
        }
      ],
      "payable": false,
      "stateMutability": "view",
      "type": "function"
    },
    {
      "constant": true,
      "inputs": [
        {
          "name": "",
          "type": "uint256"
        }
      ],
      "name": "ownerAddressesListPart",
      "outputs": [
        {
          "name": "",
          "type": "address"
        }
      ],
      "payable": false,
      "stateMutability": "view",
      "type": "function"
    },
    {
      "constant": true,
      "inputs": [],
      "name": "totalSupply",
      "outputs": [
        {
          "name": "",
          "type": "uint256"
        }
      ],
      "payable": false,
      "stateMutability": "view",
      "type": "function"
    },
    {
      "constant": true,
      "inputs": [],
      "name": "decimals",
      "outputs": [
        {
          "name": "",
          "type": "uint8"
        }
      ],
      "payable": false,
      "stateMutability": "view",
      "type": "function"
    },
    {
      "constant": true,
      "inputs": [
        {
          "name": "",
          "type": "address"
        }
      ],
      "name": "ownersIndex",
      "outputs": [
        {
          "name": "",
          "type": "uint256"
        }
      ],
      "payable": false,
      "stateMutability": "view",
      "type": "function"
    },
    {
      "constant": true,
      "inputs": [
        {
          "name": "",
          "type": "address"
        }
      ],
      "name": "balanceOf",
      "outputs": [
        {
          "name": "",
          "type": "uint256"
        }
      ],
      "payable": false,
      "stateMutability": "view",
      "type": "function"
    },
    {
      "constant": true,
      "inputs": [],
      "name": "migrationAgent",
      "outputs": [
        {
          "name": "",
          "type": "address"
        }
      ],
      "payable": false,
      "stateMutability": "view",
      "type": "function"
    },
    {
      "constant": true,
      "inputs": [],
      "name": "owner",
      "outputs": [
        {
          "name": "",
          "type": "address"
        }
      ],
      "payable": false,
      "stateMutability": "view",
      "type": "function"
    },
    {
      "constant": true,
      "inputs": [],
      "name": "totalMigrated",
      "outputs": [
        {
          "name": "",
          "type": "uint256"
        }
      ],
      "payable": false,
      "stateMutability": "view",
      "type": "function"
    },
    {
      "constant": true,
      "inputs": [],
      "name": "symbol",
      "outputs": [
        {
          "name": "",
          "type": "string"
        }
      ],
      "payable": false,
      "stateMutability": "view",
      "type": "function"
    },
    {
      "constant": true,
      "inputs": [
        {
          "name": "",
          "type": "address"
        },
        {
          "name": "",
          "type": "address"
        }
      ],
      "name": "allowance",
      "outputs": [
        {
          "name": "",
          "type": "uint256"
        }
      ],
      "payable": false,
      "stateMutability": "view",
      "type": "function"
    },
    {
      "constant": true,
      "inputs": [
        {
          "name": "",
          "type": "uint256"
        }
      ],
      "name": "ownerAddressesLists",
      "outputs": [
        {
          "name": "",
          "type": "address"
        }
      ],
      "payable": false,
      "stateMutability": "view",
      "type": "function"
    },
    {
      "inputs": [],
      "payable": false,
      "stateMutability": "nonpayable",
      "type": "constructor"
    },
    {
      "anonymous": false,
      "inputs": [
        {
          "indexed": true,
          "name": "from",
          "type": "address"
        },
        {
          "indexed": true,
          "name": "to",
          "type": "address"
        },
        {
          "indexed": false,
          "name": "value",
          "type": "uint256"
        }
      ],
      "name": "Transfer",
      "type": "event"
    },
    {
      "anonymous": false,
      "inputs": [
        {
          "indexed": true,
          "name": "_owner",
          "type": "address"
        },
        {
          "indexed": true,
          "name": "_spender",
          "type": "address"
        },
        {
          "indexed": false,
          "name": "_value",
          "type": "uint256"
        }
      ],
      "name": "Approval",
      "type": "event"
    },
    {
      "anonymous": false,
      "inputs": [
        {
          "indexed": false,
          "name": "tokensSupplyed",
          "type": "uint256"
        }
      ],
      "name": "TokensEmitted",
      "type": "event"
    },
    {
      "anonymous": false,
      "inputs": [
        {
          "indexed": true,
          "name": "_from",
          "type": "address"
        },
        {
          "indexed": true,
          "name": "_to",
          "type": "address"
        },
        {
          "indexed": false,
          "name": "_value",
          "type": "uint256"
        }
      ],
      "name": "Migrate",
      "type": "event"
    },
    {
      "constant": false,
      "inputs": [
        {
          "name": "_agent",
          "type": "address"
        }
      ],
      "name": "setMigrationAgent",
      "outputs": [],
      "payable": false,
      "stateMutability": "nonpayable",
      "type": "function"
    },
    {
      "constant": false,
      "inputs": [],
      "name": "setMigrationStatus",
      "outputs": [],
      "payable": false,
      "stateMutability": "nonpayable",
      "type": "function"
    },
    {
      "constant": false,
      "inputs": [
        {
          "name": "_value",
          "type": "uint256"
        }
      ],
      "name": "migrateTokens",
      "outputs": [],
      "payable": false,
      "stateMutability": "nonpayable",
      "type": "function"
    },
    {
      "constant": false,
      "inputs": [
        {
          "name": "contract_address",
          "type": "address"
        }
      ],
      "name": "supplyTokens",
      "outputs": [
        {
          "name": "success",
          "type": "bool"
        }
      ],
      "payable": false,
      "stateMutability": "nonpayable",
      "type": "function"
    },
    {
      "constant": false,
      "inputs": [
        {
          "name": "tokens",
          "type": "uint256"
        },
        {
          "name": "receiver",
          "type": "address"
        }
      ],
      "name": "emitMoreTokens",
      "outputs": [
        {
          "name": "success",
          "type": "bool"
        }
      ],
      "payable": false,
      "stateMutability": "nonpayable",
      "type": "function"
    },
    {
      "constant": false,
      "inputs": [
        {
          "name": "_to",
          "type": "address"
        },
        {
          "name": "_value",
          "type": "uint256"
        }
      ],
      "name": "transfer",
      "outputs": [
        {
          "name": "success",
          "type": "bool"
        }
      ],
      "payable": false,
      "stateMutability": "nonpayable",
      "type": "function"
    },
    {
      "constant": false,
      "inputs": [
        {
          "name": "_from",
          "type": "address"
        },
        {
          "name": "_to",
          "type": "address"
        },
        {
          "name": "_value",
          "type": "uint256"
        }
      ],
      "name": "transferFrom",
      "outputs": [
        {
          "name": "success",
          "type": "bool"
        }
      ],
      "payable": false,
      "stateMutability": "nonpayable",
      "type": "function"
    },
    {
      "constant": false,
      "inputs": [
        {
          "name": "_spender",
          "type": "address"
        },
        {
          "name": "_value",
          "type": "uint256"
        }
      ],
      "name": "approve",
      "outputs": [
        {
          "name": "success",
          "type": "bool"
        }
      ],
      "payable": false,
      "stateMutability": "nonpayable",
      "type": "function"
    },
    {
      "constant": true,
      "inputs": [
        {
          "name": "account",
          "type": "address"
        }
      ],
      "name": "getOwnership",
      "outputs": [
        {
          "name": "percentageMultiplied10000",
          "type": "uint256"
        }
      ],
      "payable": false,
      "stateMutability": "view",
      "type": "function"
    },
    {
      "constant": false,
      "inputs": [
        {
          "name": "_startIndex",
          "type": "uint256"
        },
        {
          "name": "_endIndex",
          "type": "uint256"
        }
      ],
      "name": "getOwnerAddressesList",
      "outputs": [
        {
          "name": "",
          "type": "address[]"
        }
      ],
      "payable": false,
      "stateMutability": "nonpayable",
      "type": "function"
    },
    {
      "constant": true,
      "inputs": [],
      "name": "getOwnerAddressesListLength",
      "outputs": [
        {
          "name": "",
          "type": "uint256"
        }
      ],
      "payable": false,
      "stateMutability": "view",
      "type": "function"
    }
  ],
  "bytecode": "0x60806040526000600260006101000a81548160ff021916908360ff1602179055506000600660146101000a81548160ff0219169083151502179055506000600c60006101000a81548160ff0219169083151502179055503480156200006357600080fd5b506040805190810160405280600881526020017f4c6f7453746f636b00000000000000000000000000000000000000000000000081525060009080519060200190620000b192919062000147565b506040805190810160405280600281526020017f4c2400000000000000000000000000000000000000000000000000000000000081525060019080519060200190620000ff92919062000147565b5033600660006101000a81548173ffffffffffffffffffffffffffffffffffffffff021916908373ffffffffffffffffffffffffffffffffffffffff160217905550620001f6565b828054600181600116156101000203166002900490600052602060002090601f016020900481019282601f106200018a57805160ff1916838001178555620001bb565b82800160010185558215620001bb579182015b82811115620001ba5782518255916020019190600101906200019d565b5b509050620001ca9190620001ce565b5090565b620001f391905b80821115620001ef576000816000905550600101620001d5565b5090565b90565b6126b580620002066000396000f300608060405260043610610133576000357c0100000000000000000000000000000000000000000000000000000000900463ffffffff16806306fdde0314610138578063095ea7b3146101c8578063179e87211461022d57806318160ddd1461029a57806323b872dd146102c55780632b681a541461034a5780632c216fb0146103a1578063313ce56714610406578063586c21f81461043757806370a082311461048e57806371fee0ef146104e557806375e2ff65146104fc5780638328dbcd1461053f5780638da5cb5b1461059657806395a0f5eb146105ed57806395d89b4114610618578063a9059cbb146106a8578063b077f9641461070d578063d0456b4e14610738578063dd62ed3e14610765578063e661b60c146107dc578063e6e13e1814610849578063f766b660146108d5575b600080fd5b34801561014457600080fd5b5061014d610930565b6040518080602001828103825283818151815260200191508051906020019080838360005b8381101561018d578082015181840152602081019050610172565b50505050905090810190601f1680156101ba5780820380516001836020036101000a031916815260200191505b509250505060405180910390f35b3480156101d457600080fd5b50610213600480360381019080803573ffffffffffffffffffffffffffffffffffffffff169060200190929190803590602001909291905050506109ce565b604051808215151515815260200191505060405180910390f35b34801561023957600080fd5b5061025860048036038101908080359060200190929190505050610ac0565b604051808273ffffffffffffffffffffffffffffffffffffffff1673ffffffffffffffffffffffffffffffffffffffff16815260200191505060405180910390f35b3480156102a657600080fd5b506102af610afe565b6040518082815260200191505060405180910390f35b3480156102d157600080fd5b50610330600480360381019080803573ffffffffffffffffffffffffffffffffffffffff169060200190929190803573ffffffffffffffffffffffffffffffffffffffff16906020019092919080359060200190929190505050610b04565b604051808215151515815260200191505060405180910390f35b34801561035657600080fd5b5061038b600480360381019080803573ffffffffffffffffffffffffffffffffffffffff169060200190929190505050610cb7565b6040518082815260200191505060405180910390f35b3480156103ad57600080fd5b506103ec60048036038101908080359060200190929190803573ffffffffffffffffffffffffffffffffffffffff169060200190929190505050610d12565b604051808215151515815260200191505060405180910390f35b34801561041257600080fd5b5061041b611070565b604051808260ff1660ff16815260200191505060405180910390f35b34801561044357600080fd5b50610478600480360381019080803573ffffffffffffffffffffffffffffffffffffffff169060200190929190505050611083565b6040518082815260200191505060405180910390f35b34801561049a57600080fd5b506104cf600480360381019080803573ffffffffffffffffffffffffffffffffffffffff16906020019092919050505061109b565b6040518082815260200191505060405180910390f35b3480156104f157600080fd5b506104fa6110b3565b005b34801561050857600080fd5b5061053d600480360381019080803573ffffffffffffffffffffffffffffffffffffffff1690602001909291905050506112bf565b005b34801561054b57600080fd5b506105546114b4565b604051808273ffffffffffffffffffffffffffffffffffffffff1673ffffffffffffffffffffffffffffffffffffffff16815260200191505060405180910390f35b3480156105a257600080fd5b506105ab6114da565b604051808273ffffffffffffffffffffffffffffffffffffffff1673ffffffffffffffffffffffffffffffffffffffff16815260200191505060405180910390f35b3480156105f957600080fd5b50610602611500565b6040518082815260200191505060405180910390f35b34801561062457600080fd5b5061062d611506565b6040518080602001828103825283818151815260200191508051906020019080838360005b8381101561066d578082015181840152602081019050610652565b50505050905090810190601f16801561069a5780820380516001836020036101000a031916815260200191505b509250505060405180910390f35b3480156106b457600080fd5b506106f3600480360381019080803573ffffffffffffffffffffffffffffffffffffffff169060200190929190803590602001909291905050506115a4565b604051808215151515815260200191505060405180910390f35b34801561071957600080fd5b506107226115bb565b6040518082815260200191505060405180910390f35b34801561074457600080fd5b50610763600480360381019080803590602001909291905050506115c8565b005b34801561077157600080fd5b506107c6600480360381019080803573ffffffffffffffffffffffffffffffffffffffff169060200190929190803573ffffffffffffffffffffffffffffffffffffffff1690602001909291905050506119e4565b6040518082815260200191505060405180910390f35b3480156107e857600080fd5b5061080760048036038101908080359060200190929190505050611a09565b604051808273ffffffffffffffffffffffffffffffffffffffff1673ffffffffffffffffffffffffffffffffffffffff16815260200191505060405180910390f35b34801561085557600080fd5b5061087e6004803603810190808035906020019092919080359060200190929190505050611a47565b6040518080602001828103825283818151815260200191508051906020019060200280838360005b838110156108c15780820151818401526020810190506108a6565b505050509050019250505060405180910390f35b3480156108e157600080fd5b50610916600480360381019080803573ffffffffffffffffffffffffffffffffffffffff169060200190929190505050611ba2565b604051808215151515815260200191505060405180910390f35b60008054600181600116156101000203166002900480601f0160208091040260200160405190810160405280929190818152602001828054600181600116156101000203166002900480156109c65780601f1061099b576101008083540402835291602001916109c6565b820191906000526020600020905b8154815290600101906020018083116109a957829003601f168201915b505050505081565b600081600560003373ffffffffffffffffffffffffffffffffffffffff1673ffffffffffffffffffffffffffffffffffffffff16815260200190815260200160002060008573ffffffffffffffffffffffffffffffffffffffff1673ffffffffffffffffffffffffffffffffffffffff168152602001908152602001600020819055508273ffffffffffffffffffffffffffffffffffffffff163373ffffffffffffffffffffffffffffffffffffffff167f8c5be1e5ebec7d5bd14f71427d1e84f3dd0314c0f7b2291e5b200ac8c7c3b925846040518082815260200191505060405180910390a36001905092915050565b600981815481101515610acf57fe5b906000526020600020016000915054906101000a900473ffffffffffffffffffffffffffffffffffffffff1681565b60035481565b6000600560008573ffffffffffffffffffffffffffffffffffffffff1673ffffffffffffffffffffffffffffffffffffffff16815260200190815260200160002060003373ffffffffffffffffffffffffffffffffffffffff1673ffffffffffffffffffffffffffffffffffffffff168152602001908152602001600020548211151515610c20576040517f08c379a00000000000000000000000000000000000000000000000000000000081526004018080602001828103825260258152602001807f55736572206973206e6f7420616c6c6f77656420746f20706572666f726d206181526020017f6374696f6e00000000000000000000000000000000000000000000000000000081525060400191505060405180910390fd5b81600560008673ffffffffffffffffffffffffffffffffffffffff1673ffffffffffffffffffffffffffffffffffffffff16815260200190815260200160002060003373ffffffffffffffffffffffffffffffffffffffff1673ffffffffffffffffffffffffffffffffffffffff16815260200190815260200160002081905550610cac848484611e4c565b600190509392505050565b6000600354620f4240600460008573ffffffffffffffffffffffffffffffffffffffff1673ffffffffffffffffffffffffffffffffffffffff1681526020019081526020016000205402811515610d0a57fe5b049050919050565b600060011515600c60009054906101000a900460ff16151514151515610e12576040517f08c379a00000000000000000000000000000000000000000000000000000000081526004018080602001828103825260618152602001807f536f7272792c2062757420776520646574656374206d6967726174696f6e207481526020017f6f206e657720746f6b656e2e20596f75206d757374206d69676772617465206181526020017f6c6c20796f757220746f6b656e7320746f206e657720455243323020746f6b6581526020017f6e0000000000000000000000000000000000000000000000000000000000000081525060800191505060405180910390fd5b3373ffffffffffffffffffffffffffffffffffffffff16600660009054906101000a900473ffffffffffffffffffffffffffffffffffffffff1673ffffffffffffffffffffffffffffffffffffffff16141515610ed7576040517f08c379a000000000000000000000000000000000000000000000000000000000815260040180806020018281038252600e8152602001807f4e6f7420417574686f72697a656400000000000000000000000000000000000081525060200191505060405180910390fd5b8260036000828254019250508190555082600460008473ffffffffffffffffffffffffffffffffffffffff1673ffffffffffffffffffffffffffffffffffffffff168152602001908152602001600020600082825401925050819055506000600760008473ffffffffffffffffffffffffffffffffffffffff1673ffffffffffffffffffffffffffffffffffffffff16815260200190815260200160002054141561102f5760088290806001815401808255809150509060018203906000526020600020016000909192909190916101000a81548173ffffffffffffffffffffffffffffffffffffffff021916908373ffffffffffffffffffffffffffffffffffffffff16021790555050600160088054905003600760008473ffffffffffffffffffffffffffffffffffffffff1673ffffffffffffffffffffffffffffffffffffffff168152602001908152602001600020819055505b7f2aa96caefc338980cfbb5f55c044257c9dfac53f04d038fffd8217bb13c3e2d2836040518082815260200191505060405180910390a16001905092915050565b600260009054906101000a900460ff1681565b60076020528060005260406000206000915090505481565b60046020528060005260406000206000915090505481565b600073ffffffffffffffffffffffffffffffffffffffff16600a60009054906101000a900473ffffffffffffffffffffffffffffffffffffffff1673ffffffffffffffffffffffffffffffffffffffff16141515156111a0576040517f08c379a00000000000000000000000000000000000000000000000000000000081526004018080602001828103825260218152602001807f4d6967726174696f6e204167656e74207761736e277420736574206561726c6c81526020017f790000000000000000000000000000000000000000000000000000000000000081525060400191505060405180910390fd5b600a60009054906101000a900473ffffffffffffffffffffffffffffffffffffffff1673ffffffffffffffffffffffffffffffffffffffff163373ffffffffffffffffffffffffffffffffffffffff1614151561128b576040517f08c379a00000000000000000000000000000000000000000000000000000000081526004018080602001828103825260298152602001807f536f7272792c206974732063616c6c73206f6e6c792066726f6d206d6967726181526020017f74696f6e4167656e74000000000000000000000000000000000000000000000081525060400191505060405180910390fd5b600c60009054906101000a900460ff1615156112bd576001600c60006101000a81548160ff0219169083151502179055505b565b600073ffffffffffffffffffffffffffffffffffffffff16600a60009054906101000a900473ffffffffffffffffffffffffffffffffffffffff1673ffffffffffffffffffffffffffffffffffffffff16141515611385576040517f08c379a000000000000000000000000000000000000000000000000000000000815260040180806020018281038252601e8152602001807f4d6967726174696f6e204167656e742077617320736574206561726c6c79000081525060200191505060405180910390fd5b600660009054906101000a900473ffffffffffffffffffffffffffffffffffffffff1673ffffffffffffffffffffffffffffffffffffffff163373ffffffffffffffffffffffffffffffffffffffff16141515611470576040517f08c379a00000000000000000000000000000000000000000000000000000000081526004018080602001828103825260248152602001807f4f6e6c79206f776e6572206f6620636f6e74726163742063616e2063616c6c2081526020017f746869730000000000000000000000000000000000000000000000000000000081525060400191505060405180910390fd5b80600a60006101000a81548173ffffffffffffffffffffffffffffffffffffffff021916908373ffffffffffffffffffffffffffffffffffffffff16021790555050565b600a60009054906101000a900473ffffffffffffffffffffffffffffffffffffffff1681565b600660009054906101000a900473ffffffffffffffffffffffffffffffffffffffff1681565b600b5481565b60018054600181600116156101000203166002900480601f01602080910402602001604051908101604052809291908181526020018280546001816001161561010002031660029004801561159c5780601f106115715761010080835404028352916020019161159c565b820191906000526020600020905b81548152906001019060200180831161157f57829003601f168201915b505050505081565b60006115b1338484611e4c565b6001905092915050565b6000600880549050905090565b600073ffffffffffffffffffffffffffffffffffffffff16600a60009054906101000a900473ffffffffffffffffffffffffffffffffffffffff1673ffffffffffffffffffffffffffffffffffffffff16141515156116b5576040517f08c379a00000000000000000000000000000000000000000000000000000000081526004018080602001828103825260218152602001807f4d6967726174696f6e204167656e74207761736e277420736574206561726c6c81526020017f790000000000000000000000000000000000000000000000000000000000000081525060400191505060405180910390fd5b80600081111515611754576040517f08c379a00000000000000000000000000000000000000000000000000000000081526004018080602001828103825260228152602001807f56616c75652063616e27742073686f756c64206265206772617465207468616e81526020017f203000000000000000000000000000000000000000000000000000000000000081525060400191505060405180910390fd5b8133600460008273ffffffffffffffffffffffffffffffffffffffff1673ffffffffffffffffffffffffffffffffffffffff16815260200190815260200160002054821115151561180d576040517f08c379a000000000000000000000000000000000000000000000000000000000815260040180806020018281038252601a8152602001807f56616c75652063616e2774206265206c657373207468616e203000000000000081525060200191505060405180910390fd5b83600460003373ffffffffffffffffffffffffffffffffffffffff1673ffffffffffffffffffffffffffffffffffffffff168152602001908152602001600020600082825403925050819055508360036000828254039250508190555083600b60008282540192505081905550600a60009054906101000a900473ffffffffffffffffffffffffffffffffffffffff1673ffffffffffffffffffffffffffffffffffffffff16637a3130e333866040518363ffffffff167c0100000000000000000000000000000000000000000000000000000000028152600401808373ffffffffffffffffffffffffffffffffffffffff1673ffffffffffffffffffffffffffffffffffffffff16815260200182815260200192505050600060405180830381600087803b15801561193f57600080fd5b505af1158015611953573d6000803e3d6000fd5b50505050600a60009054906101000a900473ffffffffffffffffffffffffffffffffffffffff1673ffffffffffffffffffffffffffffffffffffffff163373ffffffffffffffffffffffffffffffffffffffff167f18df02dcc52b9c494f391df09661519c0069bd8540141946280399408205ca1a866040518082815260200191505060405180910390a350505050565b6005602052816000526040600020602052806000526040600020600091509150505481565b600881815481101515611a1857fe5b906000526020600020016000915054906101000a900473ffffffffffffffffffffffffffffffffffffffff1681565b6060600080600981611a599190612638565b508390505b82811015611b12576009600882815481101515611a7757fe5b9060005260206000200160009054906101000a900473ffffffffffffffffffffffffffffffffffffffff1690806001815401808255809150509060018203906000526020600020016000909192909190916101000a81548173ffffffffffffffffffffffffffffffffffffffff021916908373ffffffffffffffffffffffffffffffffffffffff160217905550508080600101915050611a5e565b6009805480602002602001604051908101604052809291908181526020018280548015611b9457602002820191906000526020600020905b8160009054906101000a900473ffffffffffffffffffffffffffffffffffffffff1673ffffffffffffffffffffffffffffffffffffffff1681526020019060010190808311611b4a575b505050505091505092915050565b60003373ffffffffffffffffffffffffffffffffffffffff16600660009054906101000a900473ffffffffffffffffffffffffffffffffffffffff1673ffffffffffffffffffffffffffffffffffffffff16141515611c69576040517f08c379a000000000000000000000000000000000000000000000000000000000815260040180806020018281038252600e8152602001807f4e6f7420417574686f72697a656400000000000000000000000000000000000081525060200191505060405180910390fd5b60001515600660149054906101000a900460ff161515141515611cf4576040517f08c379a00000000000000000000000000000000000000000000000000000000081526004018080602001828103825260178152602001807f546f6b656e7320616c726561647920737570706c69656400000000000000000081525060200191505060405180910390fd5b620186a0600381905550600354600460008473ffffffffffffffffffffffffffffffffffffffff1673ffffffffffffffffffffffffffffffffffffffff168152602001908152602001600020819055506001600660146101000a81548160ff0219169083151502179055506000600760008473ffffffffffffffffffffffffffffffffffffffff1673ffffffffffffffffffffffffffffffffffffffff1681526020019081526020016000208190555060088290806001815401808255809150509060018203906000526020600020016000909192909190916101000a81548173ffffffffffffffffffffffffffffffffffffffff021916908373ffffffffffffffffffffffffffffffffffffffff160217905550507f2aa96caefc338980cfbb5f55c044257c9dfac53f04d038fffd8217bb13c3e2d26003546040518082815260200191505060405180910390a160019050919050565b600080600060011515600c60009054906101000a900460ff16151514151515611f4f576040517f08c379a00000000000000000000000000000000000000000000000000000000081526004018080602001828103825260618152602001807f536f7272792c2062757420776520646574656374206d6967726174696f6e207481526020017f6f206e657720746f6b656e2e20596f75206d757374206d69676772617465206181526020017f6c6c20796f757220746f6b656e7320746f206e657720455243323020746f6b6581526020017f6e0000000000000000000000000000000000000000000000000000000000000081525060800191505060405180910390fd5b60011515600660149054906101000a900460ff161515141515611fda576040517f08c379a00000000000000000000000000000000000000000000000000000000081526004018080602001828103825260178152602001807f546f6b656e7320617265206e6f7420737570706c69656400000000000000000081525060200191505060405180910390fd5b83600460008873ffffffffffffffffffffffffffffffffffffffff1673ffffffffffffffffffffffffffffffffffffffff1681526020019081526020016000205410151515612091576040517f08c379a00000000000000000000000000000000000000000000000000000000081526004018080602001828103825260108152602001807f4e6f7420656e6f7567682066756e64730000000000000000000000000000000081525060200191505060405180910390fd5b8473ffffffffffffffffffffffffffffffffffffffff168673ffffffffffffffffffffffffffffffffffffffff161415151561215b576040517f08c379a000000000000000000000000000000000000000000000000000000000815260040180806020018281038252602b8152602001807f5472616e73666572696e67206f6e2073616d65206163636f756e74206973206e81526020017f6f7420616c6c6f7765642100000000000000000000000000000000000000000081525060400191505060405180910390fd5b600073ffffffffffffffffffffffffffffffffffffffff168573ffffffffffffffffffffffffffffffffffffffff1614151515612200576040517f08c379a000000000000000000000000000000000000000000000000000000000815260040180806020018281038252601b8152602001807f5472792073656e642066756e647320746f20302d61646472657373000000000081525060200191505060405180910390fd5b83600460008873ffffffffffffffffffffffffffffffffffffffff1673ffffffffffffffffffffffffffffffffffffffff1681526020019081526020016000206000828254039250508190555083600460008773ffffffffffffffffffffffffffffffffffffffff1673ffffffffffffffffffffffffffffffffffffffff168152602001908152602001600020600082825401925050819055506000600460008873ffffffffffffffffffffffffffffffffffffffff1673ffffffffffffffffffffffffffffffffffffffff1681526020019081526020016000205414801561234f57508573ffffffffffffffffffffffffffffffffffffffff166008600081548110151561230b57fe5b9060005260206000200160009054906101000a900473ffffffffffffffffffffffffffffffffffffffff1673ffffffffffffffffffffffffffffffffffffffff1614155b156124d357600160088054905003925060088381548110151561236e57fe5b9060005260206000200160009054906101000a900473ffffffffffffffffffffffffffffffffffffffff1691508573ffffffffffffffffffffffffffffffffffffffff168273ffffffffffffffffffffffffffffffffffffffff161415156124c257600760008773ffffffffffffffffffffffffffffffffffffffff1673ffffffffffffffffffffffffffffffffffffffff1681526020019081526020016000205490508160088281548110151561242257fe5b9060005260206000200160006101000a81548173ffffffffffffffffffffffffffffffffffffffff021916908373ffffffffffffffffffffffffffffffffffffffff16021790555080600760008473ffffffffffffffffffffffffffffffffffffffff1673ffffffffffffffffffffffffffffffffffffffff16815260200190815260200160002081905550826008816124bc9190612638565b506124d2565b826008816124d09190612638565b505b5b6000600760008773ffffffffffffffffffffffffffffffffffffffff1673ffffffffffffffffffffffffffffffffffffffff1681526020019081526020016000205414156125cb57600880549050600760008773ffffffffffffffffffffffffffffffffffffffff1673ffffffffffffffffffffffffffffffffffffffff1681526020019081526020016000208190555060088590806001815401808255809150509060018203906000526020600020016000909192909190916101000a81548173ffffffffffffffffffffffffffffffffffffffff021916908373ffffffffffffffffffffffffffffffffffffffff160217905550505b8473ffffffffffffffffffffffffffffffffffffffff168673ffffffffffffffffffffffffffffffffffffffff167fddf252ad1be2c89b69c2b068fc378daa952ba7f163c4a11628f55a4df523b3ef866040518082815260200191505060405180910390a3505050505050565b81548183558181111561265f5781836000526020600020918201910161265e9190612664565b5b505050565b61268691905b8082111561268257600081600090555060010161266a565b5090565b905600a165627a7a723058204ae124a2c29f41c4a673fcced4dfeb07c421ecf5cb206e0bb2c14befa05bcfcf0029",
  "source": "pragma solidity ^0.4.24;\n\ncontract MigrationAgent {\n    function migrateFrom( address sender, uint256 _value) public;\n}\n\ncontract TokenERC20 {\n    string public name; // Migrate ??\n    string public symbol; // Migrate ??\n    uint8 public decimals = 0; // Migrate ?\n    uint256 public totalSupply; // Migrate\n    mapping(address => uint256) public balanceOf; // Migrate\n    mapping(address => mapping(address => uint256)) public allowance;\n    address public owner;\n    bool private isTokensSupplied = false;\n\n    // ownership definition\n    mapping(address => uint256) public ownersIndex;\n    address[] public ownerAddressesLists;\n    address[] public ownerAddressesListPart;\n\n    event Transfer(address indexed from, address indexed to, uint256 value);\n    event Approval(address indexed _owner, address indexed _spender, uint256 _value);\n    event TokensEmitted(uint256 tokensSupplyed);\n\n    // For migration ERC20\n    event Migrate(address indexed _from, address indexed _to, uint256 _value);\n    address public migrationAgent;\n    uint256 public totalMigrated;\n    bool migrationStatus = false;\n\n    modifier isNotSetMigrationAgent(){\n        require(migrationAgent == address(0), \"Migration Agent was set earlly\");\n        _;\n    }\n\n    modifier isSetMigrationAgent(){\n        require(migrationAgent != address(0), \"Migration Agent wasn't set earlly\");\n        _;\n    }\n\n    modifier isValue(uint _value){\n        require(_value > 0, \"Value can't should be grate than 0\");\n        _;\n    }\n\n    modifier isValueGTBalance(uint _value, address _sender){\n        require(_value <= balanceOf[_sender], \"Value can't be less than 0\");\n        _;\n    }\n\n    modifier onlyOwner() {\n        require(msg.sender == owner, \"Only owner of contract can call this\");\n        _;\n    }\n\n    modifier isMigrationNotRun(){\n        require(migrationStatus != true, \"Sorry, but we detect migration to new token. You must miggrate all your tokens to new ERC20 token\");\n        _;\n    }\n\n    modifier isItCallFormMigrationAgent(){\n        require(msg.sender == migrationAgent, \"Sorry, its calls only from migrationAgent\");\n        _;\n    }\n\n    function setMigrationAgent(address _agent) external isNotSetMigrationAgent() onlyOwner() {\n        migrationAgent = _agent;\n    }\n\n    function setMigrationStatus() public isSetMigrationAgent() isItCallFormMigrationAgent(){\n        if(!migrationStatus){\n            migrationStatus = true;\n        }\n    }\n\n    // User calls function for migrate his tokens to new ERC20 token\n    function migrateTokens(uint _value) external\n    isSetMigrationAgent()\n    isValue(_value)\n    isValueGTBalance(_value, msg.sender){\n\n        balanceOf[msg.sender] -= _value;\n        totalSupply -= _value;\n        totalMigrated += _value;\n        MigrationAgent(migrationAgent).migrateFrom(msg.sender, _value);\n        emit Migrate(msg.sender, migrationAgent, _value);\n    }\n\n    constructor() public {\n        name = \"LotStock\";\n        symbol = \"L$\";\n        owner = msg.sender;\n    }\n\n    function supplyTokens(address contract_address) public returns (bool success) {\n        require(owner == msg.sender, \"Not Authorized\");\n        require(isTokensSupplied == false, \"Tokens already supplied\");\n        totalSupply = 100000;\n        balanceOf[contract_address] = totalSupply;\n        isTokensSupplied = true;\n        ownersIndex[contract_address] = 0;\n        ownerAddressesLists.push(contract_address);\n        emit TokensEmitted(totalSupply);\n        return true;\n    }\n\n    function emitMoreTokens(uint256 tokens, address receiver) public isMigrationNotRun() returns (bool success) {\n        require(owner == msg.sender, \"Not Authorized\");\n        totalSupply += tokens;\n        balanceOf[receiver] += tokens;\n        if(ownersIndex[receiver] == 0) {\n            ownerAddressesLists.push(receiver);\n            ownersIndex[receiver] = ownerAddressesLists.length - 1;\n        }\n        emit TokensEmitted(tokens);\n        return true;\n    }\n\n    function _transfer(address _from, address _to, uint _value) internal isMigrationNotRun() {\n        require(isTokensSupplied == true, \"Tokens are not supplied\");\n        require(balanceOf[_from] >= _value, \"Not enough funds\");\n        require(_from != _to, \"Transfering on same account is not allowed!\");\n        require(_to != address(0), \"Try send funds to 0-address\");\n        balanceOf[_from] -= _value;\n        balanceOf[_to] += _value;\n\n        if (balanceOf[_from] == 0 && ownerAddressesLists[0] != _from) {\n            uint256 lastElemIndex = ownerAddressesLists.length - 1;\n            address lastElem = ownerAddressesLists[lastElemIndex];\n            if (lastElem != _from) {\n                uint256 senderIndex = ownersIndex[_from];\n                ownerAddressesLists[senderIndex] = lastElem;\n                ownersIndex[lastElem] = senderIndex;\n                ownerAddressesLists.length = lastElemIndex;\n            } else {\n                ownerAddressesLists.length = lastElemIndex;\n            }\n        }\n\n        if (ownersIndex[_to] == 0) {\n            ownersIndex[_to] = ownerAddressesLists.length;\n            ownerAddressesLists.push(_to);\n        }\n\n        emit Transfer(_from, _to, _value);\n    }\n\n    function transfer(address _to, uint256 _value) public returns (bool success) {\n        _transfer(msg.sender, _to, _value);\n        return true;\n    }\n\n    function transferFrom(address _from, address _to, uint256 _value) public\n    returns (bool success) {\n        require(_value <= allowance[_from][msg.sender], \"User is not allowed to perform action\");\n        allowance[_from][msg.sender] = _value;\n        _transfer(_from, _to, _value);\n        return true;\n    }\n\n    function approve(address _spender, uint256 _value) public\n    returns (bool success) {\n        allowance[msg.sender][_spender] = _value;\n        emit Approval(msg.sender, _spender, _value);\n        return true;\n    }\n\n    //             10000\n    function getOwnership(address account) public view returns (uint256 percentageMultiplied10000) {\n        return balanceOf[account] * 1000000 / totalSupply;\n    }\n\n    function getOwnerAddressesList(uint256 _startIndex, uint256 _endIndex) public returns (address[]) {\n        ownerAddressesListPart.length = 0;\n        for (uint256 index = _startIndex; index < _endIndex; index++) {\n            ownerAddressesListPart.push(ownerAddressesLists[index]);\n        }\n        return ownerAddressesListPart;\n    }\n\n    function getOwnerAddressesListLength() public view returns (uint256) {\n        return ownerAddressesLists.length;\n    }\n}",
  "sourcePath": "/home/smartit-4/projects/hashlottery2/smart_contracts/contracts/TokenERC20.sol",
  "compiler": {
    "name": "solc",
    "version": "0.4.24+commit.e67f0147.Emscripten.clang"
  },
  "schemaVersion": "2.0.1",
  "updatedAt": "2018-12-11T10:02:39.156Z"
}