{
  "contractName": "TokenERC20",
  "abi": [
    {
      "constant": true,
      "inputs": [],
      "name": "name",
      "outputs": [
        {
          "name": "",
          "type": "string"
        }
      ],
      "payable": false,
      "stateMutability": "view",
      "type": "function"
    },
    {
      "constant": true,
      "inputs": [],
      "name": "totalSupply",
      "outputs": [
        {
          "name": "",
          "type": "uint256"
        }
      ],
      "payable": false,
      "stateMutability": "view",
      "type": "function"
    },
    {
      "constant": true,
      "inputs": [],
      "name": "decimals",
      "outputs": [
        {
          "name": "",
          "type": "uint8"
        }
      ],
      "payable": false,
      "stateMutability": "view",
      "type": "function"
    },
    {
      "constant": true,
      "inputs": [
        {
          "name": "",
          "type": "address"
        }
      ],
      "name": "ownersIndex",
      "outputs": [
        {
          "name": "",
          "type": "uint256"
        }
      ],
      "payable": false,
      "stateMutability": "view",
      "type": "function"
    },
    {
      "constant": true,
      "inputs": [
        {
          "name": "",
          "type": "address"
        }
      ],
      "name": "balanceOf",
      "outputs": [
        {
          "name": "",
          "type": "uint256"
        }
      ],
      "payable": false,
      "stateMutability": "view",
      "type": "function"
    },
    {
      "constant": true,
      "inputs": [],
      "name": "migrationAgent",
      "outputs": [
        {
          "name": "",
          "type": "address"
        }
      ],
      "payable": false,
      "stateMutability": "view",
      "type": "function"
    },
    {
      "constant": true,
      "inputs": [],
      "name": "owner",
      "outputs": [
        {
          "name": "",
          "type": "address"
        }
      ],
      "payable": false,
      "stateMutability": "view",
      "type": "function"
    },
    {
      "constant": true,
      "inputs": [],
      "name": "totalMigrated",
      "outputs": [
        {
          "name": "",
          "type": "uint256"
        }
      ],
      "payable": false,
      "stateMutability": "view",
      "type": "function"
    },
    {
      "constant": true,
      "inputs": [],
      "name": "symbol",
      "outputs": [
        {
          "name": "",
          "type": "string"
        }
      ],
      "payable": false,
      "stateMutability": "view",
      "type": "function"
    },
    {
      "constant": true,
      "inputs": [
        {
          "name": "",
          "type": "address"
        },
        {
          "name": "",
          "type": "address"
        }
      ],
      "name": "allowance",
      "outputs": [
        {
          "name": "",
          "type": "uint256"
        }
      ],
      "payable": false,
      "stateMutability": "view",
      "type": "function"
    },
    {
      "constant": true,
      "inputs": [
        {
          "name": "",
          "type": "uint256"
        }
      ],
      "name": "ownerAddressesLists",
      "outputs": [
        {
          "name": "",
          "type": "address"
        }
      ],
      "payable": false,
      "stateMutability": "view",
      "type": "function"
    },
    {
      "inputs": [],
      "payable": false,
      "stateMutability": "nonpayable",
      "type": "constructor"
    },
    {
      "anonymous": false,
      "inputs": [
        {
          "indexed": true,
          "name": "from",
          "type": "address"
        },
        {
          "indexed": true,
          "name": "to",
          "type": "address"
        },
        {
          "indexed": false,
          "name": "value",
          "type": "uint256"
        }
      ],
      "name": "Transfer",
      "type": "event"
    },
    {
      "anonymous": false,
      "inputs": [
        {
          "indexed": true,
          "name": "_owner",
          "type": "address"
        },
        {
          "indexed": true,
          "name": "_spender",
          "type": "address"
        },
        {
          "indexed": false,
          "name": "_value",
          "type": "uint256"
        }
      ],
      "name": "Approval",
      "type": "event"
    },
    {
      "anonymous": false,
      "inputs": [
        {
          "indexed": false,
          "name": "tokensSupplyed",
          "type": "uint256"
        }
      ],
      "name": "TokensEmitted",
      "type": "event"
    },
    {
      "anonymous": false,
      "inputs": [
        {
          "indexed": true,
          "name": "_from",
          "type": "address"
        },
        {
          "indexed": true,
          "name": "_to",
          "type": "address"
        },
        {
          "indexed": false,
          "name": "_value",
          "type": "uint256"
        }
      ],
      "name": "Migrate",
      "type": "event"
    },
    {
      "constant": false,
      "inputs": [
        {
          "name": "_agent",
          "type": "address"
        }
      ],
      "name": "setMigrationAgent",
      "outputs": [],
      "payable": false,
      "stateMutability": "nonpayable",
      "type": "function"
    },
    {
      "constant": false,
      "inputs": [],
      "name": "setMigrationStatus",
      "outputs": [],
      "payable": false,
      "stateMutability": "nonpayable",
      "type": "function"
    },
    {
      "constant": false,
      "inputs": [
        {
          "name": "_value",
          "type": "uint256"
        }
      ],
      "name": "migrateTokens",
      "outputs": [],
      "payable": false,
      "stateMutability": "nonpayable",
      "type": "function"
    },
    {
      "constant": false,
      "inputs": [
        {
          "name": "contract_address",
          "type": "address"
        }
      ],
      "name": "supplyTokens",
      "outputs": [
        {
          "name": "success",
          "type": "bool"
        }
      ],
      "payable": false,
      "stateMutability": "nonpayable",
      "type": "function"
    },
    {
      "constant": false,
      "inputs": [
        {
          "name": "tokens",
          "type": "uint256"
        },
        {
          "name": "receiver",
          "type": "address"
        }
      ],
      "name": "emitMoreTokens",
      "outputs": [
        {
          "name": "success",
          "type": "bool"
        }
      ],
      "payable": false,
      "stateMutability": "nonpayable",
      "type": "function"
    },
    {
      "constant": false,
      "inputs": [
        {
          "name": "_to",
          "type": "address"
        },
        {
          "name": "_value",
          "type": "uint256"
        }
      ],
      "name": "transfer",
      "outputs": [
        {
          "name": "success",
          "type": "bool"
        }
      ],
      "payable": false,
      "stateMutability": "nonpayable",
      "type": "function"
    },
    {
      "constant": false,
      "inputs": [
        {
          "name": "_from",
          "type": "address"
        },
        {
          "name": "_to",
          "type": "address"
        },
        {
          "name": "_value",
          "type": "uint256"
        }
      ],
      "name": "transferFrom",
      "outputs": [
        {
          "name": "success",
          "type": "bool"
        }
      ],
      "payable": false,
      "stateMutability": "nonpayable",
      "type": "function"
    },
    {
      "constant": false,
      "inputs": [
        {
          "name": "_spender",
          "type": "address"
        },
        {
          "name": "_value",
          "type": "uint256"
        }
      ],
      "name": "approve",
      "outputs": [
        {
          "name": "success",
          "type": "bool"
        }
      ],
      "payable": false,
      "stateMutability": "nonpayable",
      "type": "function"
    },
    {
      "constant": true,
      "inputs": [
        {
          "name": "account",
          "type": "address"
        }
      ],
      "name": "getOwnership",
      "outputs": [
        {
          "name": "percentageMultiplied100",
          "type": "uint256"
        }
      ],
      "payable": false,
      "stateMutability": "view",
      "type": "function"
    },
    {
      "constant": true,
      "inputs": [],
      "name": "getOwnerAddressesList",
      "outputs": [
        {
          "name": "ownerAddressesListPart",
          "type": "address[]"
        }
      ],
      "payable": false,
      "stateMutability": "view",
      "type": "function"
    },
    {
      "constant": true,
      "inputs": [
        {
          "name": "userIndex",
          "type": "uint256"
        }
      ],
      "name": "getOwnerAddressesListElement",
      "outputs": [
        {
          "name": "ownerAddress",
          "type": "address"
        }
      ],
      "payable": false,
      "stateMutability": "view",
      "type": "function"
    }
  ],
  "bytecode": "0x60806040526000600260006101000a81548160ff021916908360ff1602179055506000600660146101000a81548160ff0219169083151502179055506000600b60006101000a81548160ff0219169083151502179055503480156200006357600080fd5b506040805190810160405280600881526020017f4c6f7453746f636b00000000000000000000000000000000000000000000000081525060009080519060200190620000b192919062000147565b506040805190810160405280600281526020017f4c2400000000000000000000000000000000000000000000000000000000000081525060019080519060200190620000ff92919062000147565b5033600660006101000a81548173ffffffffffffffffffffffffffffffffffffffff021916908373ffffffffffffffffffffffffffffffffffffffff160217905550620001f6565b828054600181600116156101000203166002900490600052602060002090601f016020900481019282601f106200018a57805160ff1916838001178555620001bb565b82800160010185558215620001bb579182015b82811115620001ba5782518255916020019190600101906200019d565b5b509050620001ca9190620001ce565b5090565b620001f391905b80821115620001ef576000816000905550600101620001d5565b5090565b90565b61244d80620002066000396000f300608060405260043610610128576000357c0100000000000000000000000000000000000000000000000000000000900463ffffffff16806306fdde031461012d578063095ea7b3146101bd5780630e5c8e731461022257806318160ddd1461028f57806323b872dd146102ba5780632b681a541461033f5780632c216fb014610396578063313ce567146103fb578063586c21f81461042c57806370a082311461048357806371fee0ef146104da57806375e2ff65146104f15780638328dbcd146105345780638da5cb5b1461058b57806395a0f5eb146105e257806395d89b411461060d578063a9059cbb1461069d578063c0a4541614610702578063d0456b4e1461076e578063dd62ed3e1461079b578063e661b60c14610812578063f766b6601461087f575b600080fd5b34801561013957600080fd5b506101426108da565b6040518080602001828103825283818151815260200191508051906020019080838360005b83811015610182578082015181840152602081019050610167565b50505050905090810190601f1680156101af5780820380516001836020036101000a031916815260200191505b509250505060405180910390f35b3480156101c957600080fd5b50610208600480360381019080803573ffffffffffffffffffffffffffffffffffffffff16906020019092919080359060200190929190505050610978565b604051808215151515815260200191505060405180910390f35b34801561022e57600080fd5b5061024d60048036038101908080359060200190929190505050610a6a565b604051808273ffffffffffffffffffffffffffffffffffffffff1673ffffffffffffffffffffffffffffffffffffffff16815260200191505060405180910390f35b34801561029b57600080fd5b506102a4610aad565b6040518082815260200191505060405180910390f35b3480156102c657600080fd5b50610325600480360381019080803573ffffffffffffffffffffffffffffffffffffffff169060200190929190803573ffffffffffffffffffffffffffffffffffffffff16906020019092919080359060200190929190505050610ab3565b604051808215151515815260200191505060405180910390f35b34801561034b57600080fd5b50610380600480360381019080803573ffffffffffffffffffffffffffffffffffffffff169060200190929190505050610c66565b6040518082815260200191505060405180910390f35b3480156103a257600080fd5b506103e160048036038101908080359060200190929190803573ffffffffffffffffffffffffffffffffffffffff169060200190929190505050610cc0565b604051808215151515815260200191505060405180910390f35b34801561040757600080fd5b5061041061101e565b604051808260ff1660ff16815260200191505060405180910390f35b34801561043857600080fd5b5061046d600480360381019080803573ffffffffffffffffffffffffffffffffffffffff169060200190929190505050611031565b6040518082815260200191505060405180910390f35b34801561048f57600080fd5b506104c4600480360381019080803573ffffffffffffffffffffffffffffffffffffffff169060200190929190505050611049565b6040518082815260200191505060405180910390f35b3480156104e657600080fd5b506104ef611061565b005b3480156104fd57600080fd5b50610532600480360381019080803573ffffffffffffffffffffffffffffffffffffffff16906020019092919050505061126d565b005b34801561054057600080fd5b50610549611462565b604051808273ffffffffffffffffffffffffffffffffffffffff1673ffffffffffffffffffffffffffffffffffffffff16815260200191505060405180910390f35b34801561059757600080fd5b506105a0611488565b604051808273ffffffffffffffffffffffffffffffffffffffff1673ffffffffffffffffffffffffffffffffffffffff16815260200191505060405180910390f35b3480156105ee57600080fd5b506105f76114ae565b6040518082815260200191505060405180910390f35b34801561061957600080fd5b506106226114b4565b6040518080602001828103825283818151815260200191508051906020019080838360005b83811015610662578082015181840152602081019050610647565b50505050905090810190601f16801561068f5780820380516001836020036101000a031916815260200191505b509250505060405180910390f35b3480156106a957600080fd5b506106e8600480360381019080803573ffffffffffffffffffffffffffffffffffffffff16906020019092919080359060200190929190505050611552565b604051808215151515815260200191505060405180910390f35b34801561070e57600080fd5b50610717611569565b6040518080602001828103825283818151815260200191508051906020019060200280838360005b8381101561075a57808201518184015260208101905061073f565b505050509050019250505060405180910390f35b34801561077a57600080fd5b50610799600480360381019080803590602001909291905050506115f7565b005b3480156107a757600080fd5b506107fc600480360381019080803573ffffffffffffffffffffffffffffffffffffffff169060200190929190803573ffffffffffffffffffffffffffffffffffffffff169060200190929190505050611a13565b6040518082815260200191505060405180910390f35b34801561081e57600080fd5b5061083d60048036038101908080359060200190929190505050611a38565b604051808273ffffffffffffffffffffffffffffffffffffffff1673ffffffffffffffffffffffffffffffffffffffff16815260200191505060405180910390f35b34801561088b57600080fd5b506108c0600480360381019080803573ffffffffffffffffffffffffffffffffffffffff169060200190929190505050611a76565b604051808215151515815260200191505060405180910390f35b60008054600181600116156101000203166002900480601f0160208091040260200160405190810160405280929190818152602001828054600181600116156101000203166002900480156109705780601f1061094557610100808354040283529160200191610970565b820191906000526020600020905b81548152906001019060200180831161095357829003601f168201915b505050505081565b600081600560003373ffffffffffffffffffffffffffffffffffffffff1673ffffffffffffffffffffffffffffffffffffffff16815260200190815260200160002060008573ffffffffffffffffffffffffffffffffffffffff1673ffffffffffffffffffffffffffffffffffffffff168152602001908152602001600020819055508273ffffffffffffffffffffffffffffffffffffffff163373ffffffffffffffffffffffffffffffffffffffff167f8c5be1e5ebec7d5bd14f71427d1e84f3dd0314c0f7b2291e5b200ac8c7c3b925846040518082815260200191505060405180910390a36001905092915050565b6000600882815481101515610a7b57fe5b9060005260206000200160009054906101000a900473ffffffffffffffffffffffffffffffffffffffff169050919050565b60035481565b6000600560008573ffffffffffffffffffffffffffffffffffffffff1673ffffffffffffffffffffffffffffffffffffffff16815260200190815260200160002060003373ffffffffffffffffffffffffffffffffffffffff1673ffffffffffffffffffffffffffffffffffffffff168152602001908152602001600020548211151515610bcf576040517f08c379a00000000000000000000000000000000000000000000000000000000081526004018080602001828103825260258152602001807f55736572206973206e6f7420616c6c6f77656420746f20706572666f726d206181526020017f6374696f6e00000000000000000000000000000000000000000000000000000081525060400191505060405180910390fd5b81600560008673ffffffffffffffffffffffffffffffffffffffff1673ffffffffffffffffffffffffffffffffffffffff16815260200190815260200160002060003373ffffffffffffffffffffffffffffffffffffffff1673ffffffffffffffffffffffffffffffffffffffff16815260200190815260200160002081905550610c5b848484611d20565b600190509392505050565b6000600354612710600460008573ffffffffffffffffffffffffffffffffffffffff1673ffffffffffffffffffffffffffffffffffffffff1681526020019081526020016000205402811515610cb857fe5b049050919050565b600060011515600b60009054906101000a900460ff16151514151515610dc0576040517f08c379a00000000000000000000000000000000000000000000000000000000081526004018080602001828103825260618152602001807f536f7272792c2062757420776520646574656374206d6967726174696f6e207481526020017f6f206e657720746f6b656e2e20596f75206d757374206d69676772617465206181526020017f6c6c20796f757220746f6b656e7320746f206e657720455243323020746f6b6581526020017f6e0000000000000000000000000000000000000000000000000000000000000081525060800191505060405180910390fd5b3373ffffffffffffffffffffffffffffffffffffffff16600660009054906101000a900473ffffffffffffffffffffffffffffffffffffffff1673ffffffffffffffffffffffffffffffffffffffff16141515610e85576040517f08c379a000000000000000000000000000000000000000000000000000000000815260040180806020018281038252600e8152602001807f4e6f7420417574686f72697a656400000000000000000000000000000000000081525060200191505060405180910390fd5b8260036000828254019250508190555082600460008473ffffffffffffffffffffffffffffffffffffffff1673ffffffffffffffffffffffffffffffffffffffff168152602001908152602001600020600082825401925050819055506000600760008473ffffffffffffffffffffffffffffffffffffffff1673ffffffffffffffffffffffffffffffffffffffff168152602001908152602001600020541415610fdd5760088290806001815401808255809150509060018203906000526020600020016000909192909190916101000a81548173ffffffffffffffffffffffffffffffffffffffff021916908373ffffffffffffffffffffffffffffffffffffffff16021790555050600160088054905003600760008473ffffffffffffffffffffffffffffffffffffffff1673ffffffffffffffffffffffffffffffffffffffff168152602001908152602001600020819055505b7f2aa96caefc338980cfbb5f55c044257c9dfac53f04d038fffd8217bb13c3e2d2836040518082815260200191505060405180910390a16001905092915050565b600260009054906101000a900460ff1681565b60076020528060005260406000206000915090505481565b60046020528060005260406000206000915090505481565b600073ffffffffffffffffffffffffffffffffffffffff16600960009054906101000a900473ffffffffffffffffffffffffffffffffffffffff1673ffffffffffffffffffffffffffffffffffffffff161415151561114e576040517f08c379a00000000000000000000000000000000000000000000000000000000081526004018080602001828103825260218152602001807f4d6967726174696f6e204167656e74207761736e277420736574206561726c6c81526020017f790000000000000000000000000000000000000000000000000000000000000081525060400191505060405180910390fd5b600960009054906101000a900473ffffffffffffffffffffffffffffffffffffffff1673ffffffffffffffffffffffffffffffffffffffff163373ffffffffffffffffffffffffffffffffffffffff16141515611239576040517f08c379a00000000000000000000000000000000000000000000000000000000081526004018080602001828103825260298152602001807f536f7272792c206974732063616c6c73206f6e6c792066726f6d206d6967726181526020017f74696f6e4167656e74000000000000000000000000000000000000000000000081525060400191505060405180910390fd5b600b60009054906101000a900460ff16151561126b576001600b60006101000a81548160ff0219169083151502179055505b565b600073ffffffffffffffffffffffffffffffffffffffff16600960009054906101000a900473ffffffffffffffffffffffffffffffffffffffff1673ffffffffffffffffffffffffffffffffffffffff16141515611333576040517f08c379a000000000000000000000000000000000000000000000000000000000815260040180806020018281038252601e8152602001807f4d6967726174696f6e204167656e742077617320736574206561726c6c79000081525060200191505060405180910390fd5b600660009054906101000a900473ffffffffffffffffffffffffffffffffffffffff1673ffffffffffffffffffffffffffffffffffffffff163373ffffffffffffffffffffffffffffffffffffffff1614151561141e576040517f08c379a00000000000000000000000000000000000000000000000000000000081526004018080602001828103825260248152602001807f4f6e6c79206f776e6572206f6620636f6e74726163742063616e2063616c6c2081526020017f746869730000000000000000000000000000000000000000000000000000000081525060400191505060405180910390fd5b80600960006101000a81548173ffffffffffffffffffffffffffffffffffffffff021916908373ffffffffffffffffffffffffffffffffffffffff16021790555050565b600960009054906101000a900473ffffffffffffffffffffffffffffffffffffffff1681565b600660009054906101000a900473ffffffffffffffffffffffffffffffffffffffff1681565b600a5481565b60018054600181600116156101000203166002900480601f01602080910402602001604051908101604052809291908181526020018280546001816001161561010002031660029004801561154a5780601f1061151f5761010080835404028352916020019161154a565b820191906000526020600020905b81548152906001019060200180831161152d57829003601f168201915b505050505081565b600061155f338484611d20565b6001905092915050565b606060088054806020026020016040519081016040528092919081815260200182805480156115ed57602002820191906000526020600020905b8160009054906101000a900473ffffffffffffffffffffffffffffffffffffffff1673ffffffffffffffffffffffffffffffffffffffff16815260200190600101908083116115a3575b5050505050905090565b600073ffffffffffffffffffffffffffffffffffffffff16600960009054906101000a900473ffffffffffffffffffffffffffffffffffffffff1673ffffffffffffffffffffffffffffffffffffffff16141515156116e4576040517f08c379a00000000000000000000000000000000000000000000000000000000081526004018080602001828103825260218152602001807f4d6967726174696f6e204167656e74207761736e277420736574206561726c6c81526020017f790000000000000000000000000000000000000000000000000000000000000081525060400191505060405180910390fd5b80600081111515611783576040517f08c379a00000000000000000000000000000000000000000000000000000000081526004018080602001828103825260228152602001807f56616c75652063616e27742073686f756c64206265206772617465207468616e81526020017f203000000000000000000000000000000000000000000000000000000000000081525060400191505060405180910390fd5b8133600460008273ffffffffffffffffffffffffffffffffffffffff1673ffffffffffffffffffffffffffffffffffffffff16815260200190815260200160002054821115151561183c576040517f08c379a000000000000000000000000000000000000000000000000000000000815260040180806020018281038252601a8152602001807f56616c75652063616e2774206265206c657373207468616e203000000000000081525060200191505060405180910390fd5b83600460003373ffffffffffffffffffffffffffffffffffffffff1673ffffffffffffffffffffffffffffffffffffffff168152602001908152602001600020600082825403925050819055508360036000828254039250508190555083600a60008282540192505081905550600960009054906101000a900473ffffffffffffffffffffffffffffffffffffffff1673ffffffffffffffffffffffffffffffffffffffff16637a3130e333866040518363ffffffff167c0100000000000000000000000000000000000000000000000000000000028152600401808373ffffffffffffffffffffffffffffffffffffffff1673ffffffffffffffffffffffffffffffffffffffff16815260200182815260200192505050600060405180830381600087803b15801561196e57600080fd5b505af1158015611982573d6000803e3d6000fd5b50505050600960009054906101000a900473ffffffffffffffffffffffffffffffffffffffff1673ffffffffffffffffffffffffffffffffffffffff163373ffffffffffffffffffffffffffffffffffffffff167f18df02dcc52b9c494f391df09661519c0069bd8540141946280399408205ca1a866040518082815260200191505060405180910390a350505050565b6005602052816000526040600020602052806000526040600020600091509150505481565b600881815481101515611a4757fe5b906000526020600020016000915054906101000a900473ffffffffffffffffffffffffffffffffffffffff1681565b60003373ffffffffffffffffffffffffffffffffffffffff16600660009054906101000a900473ffffffffffffffffffffffffffffffffffffffff1673ffffffffffffffffffffffffffffffffffffffff16141515611b3d576040517f08c379a000000000000000000000000000000000000000000000000000000000815260040180806020018281038252600e8152602001807f4e6f7420417574686f72697a656400000000000000000000000000000000000081525060200191505060405180910390fd5b60001515600660149054906101000a900460ff161515141515611bc8576040517f08c379a00000000000000000000000000000000000000000000000000000000081526004018080602001828103825260178152602001807f546f6b656e7320616c726561647920737570706c69656400000000000000000081525060200191505060405180910390fd5b620186a0600381905550600354600460008473ffffffffffffffffffffffffffffffffffffffff1673ffffffffffffffffffffffffffffffffffffffff168152602001908152602001600020819055506001600660146101000a81548160ff0219169083151502179055506000600760008473ffffffffffffffffffffffffffffffffffffffff1673ffffffffffffffffffffffffffffffffffffffff1681526020019081526020016000208190555060088290806001815401808255809150509060018203906000526020600020016000909192909190916101000a81548173ffffffffffffffffffffffffffffffffffffffff021916908373ffffffffffffffffffffffffffffffffffffffff160217905550507f2aa96caefc338980cfbb5f55c044257c9dfac53f04d038fffd8217bb13c3e2d26003546040518082815260200191505060405180910390a160019050919050565b600080600060011515600b60009054906101000a900460ff16151514151515611e23576040517f08c379a00000000000000000000000000000000000000000000000000000000081526004018080602001828103825260618152602001807f536f7272792c2062757420776520646574656374206d6967726174696f6e207481526020017f6f206e657720746f6b656e2e20596f75206d757374206d69676772617465206181526020017f6c6c20796f757220746f6b656e7320746f206e657720455243323020746f6b6581526020017f6e0000000000000000000000000000000000000000000000000000000000000081525060800191505060405180910390fd5b60011515600660149054906101000a900460ff161515141515611eae576040517f08c379a00000000000000000000000000000000000000000000000000000000081526004018080602001828103825260178152602001807f546f6b656e7320617265206e6f7420737570706c69656400000000000000000081525060200191505060405180910390fd5b83600460008873ffffffffffffffffffffffffffffffffffffffff1673ffffffffffffffffffffffffffffffffffffffff1681526020019081526020016000205410151515611f65576040517f08c379a00000000000000000000000000000000000000000000000000000000081526004018080602001828103825260108152602001807f4e6f7420656e6f7567682066756e64730000000000000000000000000000000081525060200191505060405180910390fd5b600073ffffffffffffffffffffffffffffffffffffffff168573ffffffffffffffffffffffffffffffffffffffff161415151561200a576040517f08c379a000000000000000000000000000000000000000000000000000000000815260040180806020018281038252601b8152602001807f5472792073656e642066756e647320746f20302d61646472657373000000000081525060200191505060405180910390fd5b83600460008873ffffffffffffffffffffffffffffffffffffffff1673ffffffffffffffffffffffffffffffffffffffff1681526020019081526020016000206000828254039250508190555083600460008773ffffffffffffffffffffffffffffffffffffffff1673ffffffffffffffffffffffffffffffffffffffff168152602001908152602001600020600082825401925050819055506000600460008873ffffffffffffffffffffffffffffffffffffffff1673ffffffffffffffffffffffffffffffffffffffff16815260200190815260200160002054141561226b57600160088054905003925060088381548110151561210657fe5b9060005260206000200160009054906101000a900473ffffffffffffffffffffffffffffffffffffffff1691508573ffffffffffffffffffffffffffffffffffffffff168273ffffffffffffffffffffffffffffffffffffffff1614151561225a57600760008773ffffffffffffffffffffffffffffffffffffffff1673ffffffffffffffffffffffffffffffffffffffff168152602001908152602001600020549050816008828154811015156121ba57fe5b9060005260206000200160006101000a81548173ffffffffffffffffffffffffffffffffffffffff021916908373ffffffffffffffffffffffffffffffffffffffff16021790555080600760008473ffffffffffffffffffffffffffffffffffffffff1673ffffffffffffffffffffffffffffffffffffffff168152602001908152602001600020819055508260088161225491906123d0565b5061226a565b8260088161226891906123d0565b505b5b6000600760008773ffffffffffffffffffffffffffffffffffffffff1673ffffffffffffffffffffffffffffffffffffffff16815260200190815260200160002054141561236357600880549050600760008773ffffffffffffffffffffffffffffffffffffffff1673ffffffffffffffffffffffffffffffffffffffff1681526020019081526020016000208190555060088590806001815401808255809150509060018203906000526020600020016000909192909190916101000a81548173ffffffffffffffffffffffffffffffffffffffff021916908373ffffffffffffffffffffffffffffffffffffffff160217905550505b8473ffffffffffffffffffffffffffffffffffffffff168673ffffffffffffffffffffffffffffffffffffffff167fddf252ad1be2c89b69c2b068fc378daa952ba7f163c4a11628f55a4df523b3ef866040518082815260200191505060405180910390a3505050505050565b8154818355818111156123f7578183600052602060002091820191016123f691906123fc565b5b505050565b61241e91905b8082111561241a576000816000905550600101612402565b5090565b905600a165627a7a7230582024565c5b4da2d1c77a509ffea7e4070694db2cd693de16db802db8fd06456c970029",
  "source": "pragma solidity ^0.4.24;\nimport './MigrationAgent.sol';\n//contract MigrationAgent {\n//    function migrateFrom( address sender, uint256 _value);\n//}\n\ncontract TokenERC20 {\n    string public name; // Migrate ??\n    string public symbol; // Migrate ??\n    uint8 public decimals = 0; // Migrate ?\n    uint256 public totalSupply; // Migrate\n    mapping(address => uint256) public balanceOf; // Migrate\n    mapping(address => mapping(address => uint256)) public allowance;\n    address public owner;\n    bool private isTokensSupplied = false;\n\n    // ownership definition\n    mapping(address => uint256) public ownersIndex;\n    address[] public ownerAddressesLists;\n\n    event Transfer(address indexed from, address indexed to, uint256 value);\n    event Approval(address indexed _owner, address indexed _spender, uint256 _value);\n    event TokensEmitted(uint256 tokensSupplyed);\n\n    // For migration ERC20\n    event Migrate(address indexed _from, address indexed _to, uint256 _value);\n    address public migrationAgent;\n    uint256 public totalMigrated;\n    bool migrationStatus = false;\n\n    modifier isNotSetMigrationAgent(){\n        require(migrationAgent == address(0), \"Migration Agent was set earlly\");\n        _;\n    }\n\n    modifier isSetMigrationAgent(){\n        require(migrationAgent != address(0), \"Migration Agent wasn't set earlly\");\n        _;\n    }\n\n    modifier isValue(uint _value){\n        require(_value > 0, \"Value can't should be grate than 0\");\n        _;\n    }\n\n    modifier isValueGTBalance(uint _value, address _sender){\n        require(_value <= balanceOf[_sender], \"Value can't be less than 0\");\n        _;\n    }\n\n    modifier onlyOwner() {\n        require(msg.sender == owner, \"Only owner of contract can call this\");\n        _;\n    }\n\n    modifier isMigrationNotRun(){\n        require(migrationStatus != true, \"Sorry, but we detect migration to new token. You must miggrate all your tokens to new ERC20 token\");\n        _;\n    }\n\n    modifier isItCallFormMigrationAgent(){\n        require(msg.sender == migrationAgent, \"Sorry, its calls only from migrationAgent\");\n        _;\n    }\n\n    function setMigrationAgent(address _agent) external isNotSetMigrationAgent() onlyOwner() {\n        migrationAgent = _agent;\n    }\n\n    function setMigrationStatus() public isSetMigrationAgent() isItCallFormMigrationAgent(){\n        if(!migrationStatus){\n            migrationStatus = true;\n        }\n    }\n\n    // User calls function for migrate his tokens to new ERC20 token\n    function migrateTokens(uint _value) external\n    isSetMigrationAgent()\n    isValue(_value)\n    isValueGTBalance(_value, msg.sender){\n\n        balanceOf[msg.sender] -= _value;\n        totalSupply -= _value;\n        totalMigrated += _value;\n        MigrationAgent(migrationAgent).migrateFrom(msg.sender, _value);\n        emit Migrate(msg.sender, migrationAgent, _value);\n    }\n\n    constructor() public {\n        name = \"LotStock\";\n        symbol = \"L$\";\n        owner = msg.sender;\n    }\n\n    function supplyTokens(address contract_address) public returns (bool success) {\n        require(owner == msg.sender, \"Not Authorized\");\n        require(isTokensSupplied == false, \"Tokens already supplied\");\n        totalSupply = 100000;\n        balanceOf[contract_address] = totalSupply;\n        isTokensSupplied = true;\n        ownersIndex[contract_address] = 0;\n        ownerAddressesLists.push(contract_address);\n        emit TokensEmitted(totalSupply);\n        return true;\n    }\n\n    function emitMoreTokens(uint256 tokens, address receiver) public isMigrationNotRun() returns (bool success) {\n        require(owner == msg.sender, \"Not Authorized\");\n        totalSupply += tokens;\n        balanceOf[receiver] += tokens;\n        if(ownersIndex[receiver] == 0) {\n            ownerAddressesLists.push(receiver);\n            ownersIndex[receiver] = ownerAddressesLists.length - 1;\n        }\n        emit TokensEmitted(tokens);\n        return true;\n    }\n\n    function _transfer(address _from, address _to, uint _value) internal isMigrationNotRun() {\n        require(isTokensSupplied == true, \"Tokens are not supplied\");\n        require(balanceOf[_from] >= _value, \"Not enough funds\");\n        require(_to != address(0), \"Try send funds to 0-address\");\n        balanceOf[_from] -= _value;\n        balanceOf[_to] += _value;\n\n        if (balanceOf[_from] == 0) {\n            uint256 lastElemIndex = ownerAddressesLists.length - 1;\n            address lastElem = ownerAddressesLists[lastElemIndex];\n            if (lastElem != _from) {\n                uint256 senderIndex = ownersIndex[_from];\n                ownerAddressesLists[senderIndex] = lastElem;\n                ownersIndex[lastElem] = senderIndex;\n                ownerAddressesLists.length = lastElemIndex;\n            } else {\n                ownerAddressesLists.length = lastElemIndex;\n            }\n        }\n\n        if (ownersIndex[_to] == 0) {\n            ownersIndex[_to] = ownerAddressesLists.length;\n            ownerAddressesLists.push(_to);\n        }\n\n        emit Transfer(_from, _to, _value);\n    }\n\n    function transfer(address _to, uint256 _value) public returns (bool success) {\n        _transfer(msg.sender, _to, _value);\n        return true;\n    }\n\n    function transferFrom(address _from, address _to, uint256 _value) public\n    returns (bool success) {\n        require(_value <= allowance[_from][msg.sender], \"User is not allowed to perform action\");\n        allowance[_from][msg.sender] = _value;\n        _transfer(_from, _to, _value);\n        return true;\n    }\n\n    function approve(address _spender, uint256 _value) public\n    returns (bool success) {\n        allowance[msg.sender][_spender] = _value;\n        emit Approval(msg.sender, _spender, _value);\n        return true;\n    }\n\n    function getOwnership(address account) public view returns (uint256 percentageMultiplied100) {\n        return balanceOf[account] * 10000 / totalSupply;\n    }\n\n    function getOwnerAddressesList() public view returns (address[] ownerAddressesListPart) {\n        return ownerAddressesLists;\n    }\n\n    function getOwnerAddressesListElement(uint256 userIndex) public view returns (address ownerAddress) {\n        return ownerAddressesLists[userIndex];\n    }\n}",
  "sourcePath": "/home/kostiantyn/Projects/hashlottery2/smart_contracts/contracts/TokenERC20.sol",
  "compiler": {
    "name": "solc",
    "version": "0.4.24+commit.e67f0147.Emscripten.clang"
  },
  "schemaVersion": "2.0.1",
  "updatedAt": "2018-11-17T12:25:56.259Z"
}